{
  "contractName": "BancorFormula",
  "abi": [
    {
      "constant": true,
      "inputs": [],
      "name": "version",
      "outputs": [
        {
          "internalType": "string",
          "name": "",
          "type": "string"
        }
      ],
      "payable": false,
      "stateMutability": "view",
      "type": "function"
    },
    {
      "constant": true,
      "inputs": [
        {
          "internalType": "uint256",
          "name": "_supply",
          "type": "uint256"
        },
        {
          "internalType": "uint256",
          "name": "_reserveBalance",
          "type": "uint256"
        },
        {
          "internalType": "uint32",
          "name": "_reserveRatio",
          "type": "uint32"
        },
        {
          "internalType": "uint256",
          "name": "_depositAmount",
          "type": "uint256"
        }
      ],
      "name": "calculatePurchaseReturn",
      "outputs": [
        {
          "internalType": "uint256",
          "name": "",
          "type": "uint256"
        }
      ],
      "payable": false,
      "stateMutability": "view",
      "type": "function"
    },
    {
      "constant": true,
      "inputs": [
        {
          "internalType": "uint256",
          "name": "_supply",
          "type": "uint256"
        },
        {
          "internalType": "uint256",
          "name": "_reserveBalance",
          "type": "uint256"
        },
        {
          "internalType": "uint32",
          "name": "_reserveRatio",
          "type": "uint32"
        },
        {
          "internalType": "uint256",
          "name": "_sellAmount",
          "type": "uint256"
        }
      ],
      "name": "calculateSaleReturn",
      "outputs": [
        {
          "internalType": "uint256",
          "name": "",
          "type": "uint256"
        }
      ],
      "payable": false,
      "stateMutability": "view",
      "type": "function"
    }
  ],
  "bytecode": "0x60c06040526003608081905262302e3360e81b60a090815262000026916000919062000756565b506001641c35fedd1560601b036021556001646c3390ecc9605e1b036022556001640cf801476160611b0360235560016431bdb23e1d605f1b0360245560016502fb1d8fe083605b1b0360255560016505b771955b37605a1b036026556001650af67a93bb5160591b0360275560016515060c256cb360581b036028556001651428a2f98d7360581b036029556001654d515663970960561b03602a55600165944620b0e70f60551b03602b55600166011c592761c66760541b03602c5560016602214d10d014eb60531b03602d55600166020ade36b7dbef60531b03602e5560016603eab73b3bbfe360521b03602f556001660782ee3593f6d760511b036030556001661ccf4b44bb4821604f1b0360315560016606e7f88ad8a77760511b0360325560016669f3d1c921891d604d1b03603355600166cb2ff529eb71e5604c1b03603455600166c2d415c3db974b604c1b0360355560016702eb40f9f620fda7604a1b0360365560016705990681d961a1eb60491b03603755600167055e12902701414760491b0360385560016714962dee9dc9764160471b0360395560016704ef57b9b560fab560491b03603a5560016712ed7b32a58f552b60471b03603b556001679131271922eaa60760441b03603c556001678b380f3558668c4760441b03603d556001680215f77c045fbe885760421b03603e556001600160831b03603f556001670f577eded5773a1160471b036040556001680eb5ec597592befbf5603f1b036041556001681c35fedd14b861eb05603e1b036042556001683619c87664579bc94b603d1b0360435560016867c00a3b07ffc01fd7603c1b03604455600168c6f6c8f8739773a7a5603b1b03604555600168bec763f8209b7a72b1603b1b0360465560016902dbb8caad9b7097b91b60391b03604755600169057b3d49dda84556d6f760381b03604855600169054183095b2c8ececf3160381b036049556001690a14517cc6b9457111ef60371b03604a5560016913545598e5c23276ccf160361b03604b556001692511882c39c3adea96ff60351b03604c55600169471649d87199aa99075760341b03604d557004429a21a029d4c1457cfbffffffffffff604e55700415bc6d6fb7dd71af2cb3ffffffffffff604f557003eab73b3bbfe282243ce1ffffffffffff6050557003c1771ac9fb6b4c18e229ffffffffffff605155700399e96897690418f785257fffffffffff605255700373fc456c53bb779bf0ea9fffffffffff60535570034f9e8e490c48e67e6ab8bfffffffffff60545570032cbfd4a7adc790560b3337ffffffffff60555570030b50570f6e5d2acca94613ffffffffff6056557002eb40f9f620fda6b56c2861ffffffffff6057557002cc8340ecb0d0f520a6af58ffffffffff6058557002af09481380a0a35cf1ba02ffffffffff605955700292c5bdd3b92ec810287b1b3fffffffff605a55700277abdcdab07d5a77ac6d6b9fffffffff605b5570025daf6654b1eaa55fd64df5efffffffff605c55700244c49c648baa98192dce88b7ffffffff605d5570022ce03cd5619a311b2471268bffffffff605e55700215f77c045fbe885654a44a0fffffffff605f556001600160811b036060557001eaefdbdaaee7421fc4d3ede5ffffffff6061557001d6bd8b2eb257df7e8ca57b09bfffffff6062557001c35fedd14b861eb0443f7f133fffffff6063557001b0ce43b322bcde4a56e8ada5afffffff60645570019f0028ec1fff007f5a195a39dfffffff60655570018ded91f0e72ee74f49b15ba527ffffff60665570017d8ec7f04136f4e5615fd41a63ffffff60675570016ddc6556cdb84bdc8d12d22e6fffffff60685570015ecf52776a1155b5bd8395814f7fffff60695570015060c256cb23b3b3cc3754cf40ffffff606a557001428a2f98d728ae223ddab715be3fffff606b5570013545598e5c23276ccf0ede68034fffff606c557001288c4161ce1d6f54b7f61081194fffff606d5570011c592761c666aa641d5a01a40f17ffff606e55700110a688680a7530515f3e6e6cfdcdffff606f557001056f1b5bedf75c6bcb2ce8aed428ffff6070556ffaadceceeff8a0890f3875f008277fff6071556ff05dc6b27edad306388a600f6ba0bfff6072556fe67a5a25da41063de1495d5b18cdbfff6073556fdcff115b14eedde6fc3aa5353f2e4fff6074556fd3e7a3924312399f9aae2e0f868f8fff6075556fcb2ff529eb71e41582cccd5a1ee26fff6076556fc2d415c3db974ab32a51840c0b67edff6077556fbad03e7d883f69ad5b0a186184e06bff6078556fb320d03b2c343d4829abd6075f0cc5ff6079556fabc25204e02828d73c6e80bcdb1a95bf607a556fa4b16f74ee4bb2040a1ec6c15fbbf2df607b556f9deaf736ac1f569deb1b5ae3f36c130f607c556f976bd9952c7aa957f5937d790ef65037607d556f9131271922eaa6064b73a22d0bd4f2bf607e556f8b380f3558668c46c91c49a2f8e967b9607f556f857ddf0117efa215952912839f6473e6608055620007fb565b828054600181600116156101000203166002900490600052602060002090601f016020900481019282601f106200079957805160ff1916838001178555620007c9565b82800160010185558215620007c9579182015b82811115620007c9578251825591602001919060010190620007ac565b50620007d7929150620007db565b5090565b620007f891905b80821115620007d75760008155600101620007e2565b90565b611628806200080b6000396000f3fe608060405234801561001057600080fd5b50600436106100415760003560e01c806329a00e7c1461004657806349f9b0f71461008d57806354fd4d50146100c2575b600080fd5b61007b6004803603608081101561005c57600080fd5b5080359060208101359063ffffffff604082013516906060013561013f565b60408051918252519081900360200190f35b61007b600480360360808110156100a357600080fd5b5080359060208101359063ffffffff6040820135169060600135610270565b6100ca6103ad565b6040805160208082528351818301528351919283929083019185019080838360005b838110156101045781810151838201526020016100ec565b50505050905090810190601f1680156101315780820380516001836020036101000a031916815260200191505b509250505060405180910390f35b600080851180156101505750600084115b8015610162575060008363ffffffff16115b80156101775750620f424063ffffffff841611155b6101c8576040805162461bcd60e51b815260206004820152600f60248201527f496e76616c696420696e707574732e0000000000000000000000000000000000604482015290519081900360640190fd5b816101d557506000610268565b63ffffffff8316620f4240141561020d57610206846101fa878563ffffffff61043b16565b9063ffffffff61049d16565b9050610268565b60008080610221858863ffffffff6104df16565b9050610232818888620f4240610539565b9093509150600060ff831661024d8a8663ffffffff61043b16565b901c9050610261818a63ffffffff6106c216565b9450505050505b949350505050565b600080851180156102815750600084115b8015610293575060008363ffffffff16115b80156102a85750620f424063ffffffff841611155b80156102b45750848211155b610305576040805162461bcd60e51b815260206004820152600f60248201527f496e76616c696420696e707574732e0000000000000000000000000000000000604482015290519081900360640190fd5b8161031257506000610268565b84821415610321575082610268565b63ffffffff8316620f4240141561034657610206856101fa868563ffffffff61043b16565b6000808061035a888663ffffffff6106c216565b905061036b8882620f424089610539565b90935091506000610382888563ffffffff61043b16565b905060ff831688901b61039f856101fa848463ffffffff6106c216565b9a9950505050505050505050565b6000805460408051602060026001851615610100026000190190941693909304601f810184900484028201840190925281815292918301828280156104335780601f1061040857610100808354040283529160200191610433565b820191906000526020600020905b81548152906001019060200180831161041657829003601f168201915b505050505081565b60008261044a57506000610497565b8282028284828161045757fe5b04146104945760405162461bcd60e51b81526004018080602001828103825260218152602001806115d36021913960400191505060405180910390fd5b90505b92915050565b600061049483836040518060400160405280601a81526020017f536166654d6174683a206469766973696f6e206279207a65726f000000000000815250610704565b600082820183811015610494576040805162461bcd60e51b815260206004820152601b60248201527f536166654d6174683a206164646974696f6e206f766572666c6f770000000000604482015290519081900360640190fd5b60008070020000000000000000000000000000000086106105a1576040805162461bcd60e51b815260206004820152601860248201527f626173654e2065786365656473206d61782076616c75652e0000000000000000604482015290519081900360640190fd5b848610156105f6576040805162461bcd60e51b815260206004820152601c60248201527f4261736573203c203120617265206e6f7420737570706f727465642e00000000604482015290519081900360640190fd5b600080866001607f1b89028161060857fe5b04905070015bf0a8b1457695355fb8ac404e7a79e38110156106345761062d816107a6565b9150610640565b61063d81610c53565b91505b60008563ffffffff168763ffffffff1684028161065957fe5b04905070080000000000000000000000000000000081101561068c5761067e81610d03565b607f945094505050506106b9565b6000610697826110e5565b90506106ac81607f0360ff1683901c82611177565b955093506106b992505050565b94509492505050565b600061049483836040518060400160405280601e81526020017f536166654d6174683a207375627472616374696f6e206f766572666c6f770000815250611514565b600081836107905760405162461bcd60e51b81526004018080602001828103825283818151815260200191508051906020019080838360005b8381101561075557818101518382015260200161073d565b50505050905090810190601f1680156107825780820380516001836020036101000a031916815260200191505b509250505060405180910390fd5b50600083858161079c57fe5b0495945050505050565b6000808080806fd3094c70f034de4b96ff7d5b6f99fcd886106107fb576f40000000000000000000000000000000840193506fd3094c70f034de4b96ff7d5b6f99fcd86001607f1b8702816107f757fe5b0495505b6fa45af1e1f40c333b3de1db4dd55f29a7861061084a576f20000000000000000000000000000000840193506fa45af1e1f40c333b3de1db4dd55f29a76001607f1b87028161084657fe5b0495505b6f910b022db7ae67ce76b441c27035c6a18610610899576f10000000000000000000000000000000840193506f910b022db7ae67ce76b441c27035c6a16001607f1b87028161089557fe5b0495505b6f88415abbe9a76bead8d00cf112e4d4a886106108e8576f08000000000000000000000000000000840193506f88415abbe9a76bead8d00cf112e4d4a86001607f1b8702816108e457fe5b0495505b6f84102b00893f64c705e841d5d4064bd38610610937576f04000000000000000000000000000000840193506f84102b00893f64c705e841d5d4064bd36001607f1b87028161093357fe5b0495505b6f8204055aaef1c8bd5c3259f4822735a28610610986576f02000000000000000000000000000000840193506f8204055aaef1c8bd5c3259f4822735a26001607f1b87028161098257fe5b0495505b6f810100ab00222d861931c15e39b44e9986106109d5576f01000000000000000000000000000000840193506f810100ab00222d861931c15e39b44e996001607f1b8702816109d157fe5b0495505b6f808040155aabbbe9451521693554f7338610610a23576e800000000000000000000000000000840193506f808040155aabbbe9451521693554f7336001607f1b870281610a1f57fe5b0495505b7fffffffffffffffffffffffffffffffff80000000000000000000000000000000860192508291506001607f1b828002049050600160801b838103830204840193506001607f1b81830281610a7457fe5b049150700200000000000000000000000000000000836faaaaaaaaaaaaaaaaaaaaaaaaaaaaaaaa03830281610aa557fe5b04840193506001607f1b81830281610ab957fe5b049150700300000000000000000000000000000000836f9999999999999999999999999999999903830281610aea57fe5b04840193506001607f1b81830281610afe57fe5b049150700400000000000000000000000000000000836f9249249249249249249249249249249203830281610b2f57fe5b04840193506001607f1b81830281610b4357fe5b049150700500000000000000000000000000000000836f8e38e38e38e38e38e38e38e38e38e38e03830281610b7457fe5b04840193506001607f1b81830281610b8857fe5b049150700600000000000000000000000000000000836f8ba2e8ba2e8ba2e8ba2e8ba2e8ba2e8b03830281610bb957fe5b04840193506001607f1b81830281610bcd57fe5b049150700700000000000000000000000000000000836f89d89d89d89d89d89d89d89d89d89d8903830281610bfe57fe5b04840193506001607f1b81830281610c1257fe5b049150700800000000000000000000000000000000836f8888888888888888888888888888888803830281610c4357fe5b049390930193505050505b919050565b60008082600160801b8110610c86576000610c736001607f1b830461156e565b60ff166001607f1b810293509190911c90505b6001607f1b811115610cd657607f5b60ff811615610cd4576001607f1b828002049150600160801b8210610ccb57600182901c91506001810360ff166001901b830192505b60001901610c95565b505b6f05b9de1d10bf4103d647b0955897ba806f03f80fe03f80fe03f80fe03f80fe03f8830204949350505050565b6000670168244fdac780006001607f1b6f0fffffffffffffffffffffffffffffff84168080028290048082028390048083028490049485026710e1b3be415a00009092026705a0913f6b1e000091909102010192909181830204905080664807432bc1800002830192506001607f1b82820281610d7c57fe5b04905080660c0135dca0400002830192506001607f1b82820281610d9c57fe5b049050806601b707b1cdc00002830192506001607f1b82820281610dbc57fe5b049050806536e0f639b80002830192506001607f1b82820281610ddb57fe5b04905080650618fee9f80002830192506001607f1b82820281610dfa57fe5b04905080649c197dcc0002830192506001607f1b82820281610e1857fe5b04905080640e30dce40002830192506001607f1b82820281610e3657fe5b0490508064012ebd130002830192506001607f1b82820281610e5457fe5b049050806317499f0002830192506001607f1b82820281610e7157fe5b049050806301a9d48002830192506001607f1b82820281610e8e57fe5b04905080621c638002830192506001607f1b82820281610eaa57fe5b049050806201c63802830192506001607f1b82820281610ec657fe5b04905080611ab802830192506001607f1b82820281610ee157fe5b0490508061017c02830192506001607f1b82820281610efc57fe5b04905080601402830192506001607f1b82820281610f1657fe5b6721c3677c82b400009190049384010482016001607f1b019290506f10000000000000000000000000000000851615610f735770018ebef9eac820ae8682b9793ac6d1e7767001c3d6a24ed82218787d624d3e5eba95f984020492505b6f20000000000000000000000000000000851615610fb5577001368b2fc6f9609fe7aceb46aa619baed470018ebef9eac820ae8682b9793ac6d1e77884020492505b6f40000000000000000000000000000000851615610ff6576fbc5ab1b16779be3575bd8f0520a9f21f7001368b2fc6f9609fe7aceb46aa619baed584020492505b6001607f1b85161561102a576f454aaa8efe072e7f6ddbab84b40a55c96fbc5ab1b16779be3575bd8f0520a9f21e84020492505b600160801b85161561105e576f0960aadc109e7a3bf4578099615711ea6f454aaa8efe072e7f6ddbab84b40a55c584020492505b70020000000000000000000000000000000085161561109e576e2bf84208204f5977f9a8cf01fdce3d6f0960aadc109e7a3bf4578099615711d784020492505b7004000000000000000000000000000000008516156110dc576d03c6ab775dd0b95b4cbee7e65d116e2bf84208204f5977f9a8cf01fdc30784020492505b50909392505050565b60006020607f5b8060ff168260010160ff161015611134576000600260ff848401160490508460018260ff166080811061111b57fe5b01541061112a5780925061112e565b8091505b506110ec565b8360018260ff166080811061114557fe5b015410611155579150610c4e9050565b8360018360ff166080811061116657fe5b01541061117557509050610c4e565bfe5b60008083905060008090508360ff16858302901c9150816f03442c4e6074a82f1797f72ac000000002810190508360ff16858302901c9150816f0116b96f757c380fb287fd0e4000000002810190508360ff16858302901c9150816e45ae5bdd5f0e03eca1ff439000000002810190508360ff16858302901c9150816e0defabf91302cd95b9ffda5000000002810190508360ff16858302901c9150816e02529ca9832b22439efff9b800000002810190508360ff16858302901c9150816d54f1cf12bd04e516b6da8800000002810190508360ff16858302901c9150816d0a9e39e257a09ca2d6db5100000002810190508360ff16858302901c9150816d012e066e7b839fa050c30900000002810190508360ff16858302901c9150816c1e33d7d926c329a1ad1a80000002810190508360ff16858302901c9150816c02bee513bdb4a6b19b5f80000002810190508360ff16858302901c9150816b3a9316fa79b88eccf2a0000002810190508360ff16858302901c9150816b048177ebe1fa81237520000002810190508360ff16858302901c9150816a5263fe90242dcbacf0000002810190508360ff16858302901c9150816a057e22099c030d9410000002810190508360ff16858302901c9150816957e22099c030d941000002810190508360ff16858302901c91508169052b6b5456997631000002810190508360ff16858302901c915081684985f67696bf74800002810190508360ff16858302901c9150816803dea12ea99e49800002810190508360ff16858302901c9150816731880f2214b6e00002810190508360ff16858302901c91508167025bcff56eb3600002810190508360ff16858302901c915081661b722e10ab100002810190508360ff16858302901c9150816601317c7007700002810190508360ff16858302901c915081650cba84aafa0002810190508360ff16858302901c9150816482573a0a0002810190508360ff16858302901c9150816405035ad90002810190508360ff16858302901c915081632f881b0002810190508360ff16858302901c9150816301b2934002810190508360ff16858302901c915081620efc4002810190508360ff16858302901c915081617fe002810190508360ff16858302901c91508161042002810190508360ff16858302901c915081602102810190508360ff16858302901c915081600102810190508360ff166001901b856f0688589cc0e9505e2f2fee5580000000838161150857fe5b04010195945050505050565b600081848411156115665760405162461bcd60e51b815260206004820181815283516024840152835190928392604490910191908501908083836000831561075557818101518382015260200161073d565b505050900390565b60008082610100811015611597575b6001811115611592576001918201911c61157d565b6115cb565b60805b60ff8116156115c957600160ff82161b82106115be579182179160ff81169190911c905b60011c607f1661159a565b505b509291505056fe536166654d6174683a206d756c7469706c69636174696f6e206f766572666c6f77a265627a7a72315820d700785f356d8e46e54e0c6193aa83292d66e2825e5a99b65ee854bb91e991fa64736f6c63430005100032",
  "source": "pragma solidity ^0.5.2;\n\nimport \"openzeppelin-solidity/contracts/math/SafeMath.sol\";\nimport \"./Power.sol\"; // Efficient power function.\n\n\n/**\n* @title Bancor formula by Bancor\n*\n* Licensed to the Apache Software Foundation (ASF) under one or more contributor license agreements;\n* and to You under the Apache License, Version 2.0. \"\n*/\ncontract BancorFormula is Power {\n    using SafeMath for uint256;\n    uint32 private constant MAX_RESERVE_RATIO = 1000000;\n\n    /**\n    * @dev given a continuous token supply, reserve token balance, reserve ratio, and a deposit amount (in the reserve token),\n    * calculates the return for a given conversion (in the continuous token)\n    *\n    * Formula:\n    * Return = _supply * ((1 + _depositAmount / _reserveBalance) ^ (_reserveRatio / MAX_RESERVE_RATIO) - 1)\n    *\n    * @param _supply              continuous token total supply\n    * @param _reserveBalance    total reserve token balance\n    * @param _reserveRatio     reserve ratio, represented in ppm, 1-1000000\n    * @param _depositAmount       deposit amount, in reserve token\n    *\n    *  @return purchase return amount\n    */\n    function calculatePurchaseReturn(\n        uint256 _supply,\n        uint256 _reserveBalance,\n        uint32 _reserveRatio,\n        uint256 _depositAmount) public view returns (uint256)\n    {\n        // validate input\n        require(_supply > 0 && _reserveBalance > 0 && _reserveRatio > 0 && _reserveRatio <= MAX_RESERVE_RATIO, \"Invalid inputs.\");\n        // special case for 0 deposit amount\n        if (_depositAmount == 0) {\n            return 0;\n        }\n        // special case if the ratio = 100%\n        if (_reserveRatio == MAX_RESERVE_RATIO) {\n            return _supply.mul(_depositAmount).div(_reserveBalance);\n        }\n        uint256 result;\n        uint8 precision;\n        uint256 baseN = _depositAmount.add(_reserveBalance);\n        (result, precision) = power(\n            baseN, _reserveBalance, _reserveRatio, MAX_RESERVE_RATIO\n        );\n        uint256 newTokenSupply = _supply.mul(result) >> precision;\n        return newTokenSupply.sub(_supply);\n    }\n\n    /**\n    * @dev given a continuous token supply, reserve token balance, reserve ratio and a sell amount (in the continuous token),\n    * calculates the return for a given conversion (in the reserve token)\n    *\n    * Formula:\n    * Return = _reserveBalance * (1 - (1 - _sellAmount / _supply) ^ (1 / (_reserveRatio / MAX_RESERVE_RATIO)))\n    *\n    * @param _supply              continuous token total supply\n    * @param _reserveBalance    total reserve token balance\n    * @param _reserveRatio     constant reserve ratio, represented in ppm, 1-1000000\n    * @param _sellAmount          sell amount, in the continuous token itself\n    *\n    * @return sale return amount\n    */\n    function calculateSaleReturn(\n        uint256 _supply,\n        uint256 _reserveBalance,\n        uint32 _reserveRatio,\n        uint256 _sellAmount) public view returns (uint256)\n    {\n        // validate input\n        require(_supply > 0 && _reserveBalance > 0 && _reserveRatio > 0 && _reserveRatio <= MAX_RESERVE_RATIO && _sellAmount <= _supply, \"Invalid inputs.\");\n        // special case for 0 sell amount\n        if (_sellAmount == 0) {\n            return 0;\n        }\n        // special case for selling the entire supply\n        if (_sellAmount == _supply) {\n            return _reserveBalance;\n        }\n        // special case if the ratio = 100%\n        if (_reserveRatio == MAX_RESERVE_RATIO) {\n            return _reserveBalance.mul(_sellAmount).div(_supply);\n        }\n        uint256 result;\n        uint8 precision;\n        uint256 baseD = _supply.sub(_sellAmount);\n        (result, precision) = power(\n            _supply, baseD, MAX_RESERVE_RATIO, _reserveRatio\n        );\n        uint256 oldBalance = _reserveBalance.mul(result);\n        uint256 newBalance = _reserveBalance << precision;\n        return oldBalance.sub(newBalance).div(result);\n    }\n}",
  "sourcePath": "/Users/jzstern/Go on.... GIT/bound/truffle/contracts/math/BancorFormula.sol",
  "compiler": {
    "name": "solc",
    "version": "0.5.16+commit.9c3226ce.Emscripten.clang"
  },
  "schemaVersion": "3.0.23",
  "updatedAt": "2020-02-16T12:52:29.747Z",
  "devdoc": {
    "methods": {
      "calculatePurchaseReturn(uint256,uint256,uint32,uint256)": {
        "details": "given a continuous token supply, reserve token balance, reserve ratio, and a deposit amount (in the reserve token), calculates the return for a given conversion (in the continuous token)    * Formula: Return = _supply * ((1 + _depositAmount / _reserveBalance) ^ (_reserveRatio / MAX_RESERVE_RATIO) - 1)",
        "params": {
          "_depositAmount": "deposit amount, in reserve token",
          "_reserveBalance": "total reserve token balance",
          "_reserveRatio": "reserve ratio, represented in ppm, 1-1000000",
          "_supply": "continuous token total supply"
        },
        "return": "purchase return amount"
      },
      "calculateSaleReturn(uint256,uint256,uint32,uint256)": {
        "details": "given a continuous token supply, reserve token balance, reserve ratio and a sell amount (in the continuous token), calculates the return for a given conversion (in the reserve token)    * Formula: Return = _reserveBalance * (1 - (1 - _sellAmount / _supply) ^ (1 / (_reserveRatio / MAX_RESERVE_RATIO)))",
        "params": {
          "_reserveBalance": "total reserve token balance",
          "_reserveRatio": "constant reserve ratio, represented in ppm, 1-1000000",
          "_sellAmount": "sell amount, in the continuous token itself",
          "_supply": "continuous token total supply"
        },
        "return": "sale return amount"
      }
    },
    "title": "Bancor formula by Bancor * Licensed to the Apache Software Foundation (ASF) under one or more contributor license agreements; and to You under the Apache License, Version 2.0. \""
  },
  "userdoc": {
    "methods": {}
  }
}