{
  "contractName": "ERC20ContinuousToken",
  "abi": [
    {
      "constant": true,
      "inputs": [],
      "name": "name",
      "outputs": [
        {
          "name": "",
          "type": "string"
        }
      ],
      "payable": false,
      "stateMutability": "view",
      "type": "function"
    },
    {
      "constant": false,
      "inputs": [
        {
          "name": "spender",
          "type": "address"
        },
        {
          "name": "amount",
          "type": "uint256"
        }
      ],
      "name": "approve",
      "outputs": [
        {
          "name": "",
          "type": "bool"
        }
      ],
      "payable": false,
      "stateMutability": "nonpayable",
      "type": "function"
    },
    {
      "constant": true,
      "inputs": [],
      "name": "reserveRatio",
      "outputs": [
        {
          "name": "",
          "type": "uint32"
        }
      ],
      "payable": false,
      "stateMutability": "view",
      "type": "function"
    },
    {
      "constant": true,
      "inputs": [
        {
          "name": "_reserveTokenAmount",
          "type": "uint256"
        }
      ],
      "name": "getContinuousMintReward",
      "outputs": [
        {
          "name": "",
          "type": "uint256"
        }
      ],
      "payable": false,
      "stateMutability": "view",
      "type": "function"
    },
    {
      "constant": true,
      "inputs": [],
      "name": "totalSupply",
      "outputs": [
        {
          "name": "",
          "type": "uint256"
        }
      ],
      "payable": false,
      "stateMutability": "view",
      "type": "function"
    },
    {
      "constant": false,
      "inputs": [
        {
          "name": "sender",
          "type": "address"
        },
        {
          "name": "recipient",
          "type": "address"
        },
        {
          "name": "amount",
          "type": "uint256"
        }
      ],
      "name": "transferFrom",
      "outputs": [
        {
          "name": "",
          "type": "bool"
        }
      ],
      "payable": false,
      "stateMutability": "nonpayable",
      "type": "function"
    },
    {
      "constant": true,
      "inputs": [
        {
          "name": "_supply",
          "type": "uint256"
        },
        {
          "name": "_reserveBalance",
          "type": "uint256"
        },
        {
          "name": "_reserveRatio",
          "type": "uint32"
        },
        {
          "name": "_depositAmount",
          "type": "uint256"
        }
      ],
      "name": "calculatePurchaseReturn",
      "outputs": [
        {
          "name": "",
          "type": "uint256"
        }
      ],
      "payable": false,
      "stateMutability": "view",
      "type": "function"
    },
    {
      "constant": true,
      "inputs": [],
      "name": "decimals",
      "outputs": [
        {
          "name": "",
          "type": "uint8"
        }
      ],
      "payable": false,
      "stateMutability": "view",
      "type": "function"
    },
    {
      "constant": false,
      "inputs": [
        {
          "name": "spender",
          "type": "address"
        },
        {
          "name": "addedValue",
          "type": "uint256"
        }
      ],
      "name": "increaseAllowance",
      "outputs": [
        {
          "name": "",
          "type": "bool"
        }
      ],
      "payable": false,
      "stateMutability": "nonpayable",
      "type": "function"
    },
    {
      "constant": true,
      "inputs": [],
      "name": "maxGasPrice",
      "outputs": [
        {
          "name": "",
          "type": "uint256"
        }
      ],
      "payable": false,
      "stateMutability": "view",
      "type": "function"
    },
    {
      "constant": true,
      "inputs": [
        {
          "name": "_supply",
          "type": "uint256"
        },
        {
          "name": "_reserveBalance",
          "type": "uint256"
        },
        {
          "name": "_reserveRatio",
          "type": "uint32"
        },
        {
          "name": "_sellAmount",
          "type": "uint256"
        }
      ],
      "name": "calculateSaleReturn",
      "outputs": [
        {
          "name": "",
          "type": "uint256"
        }
      ],
      "payable": false,
      "stateMutability": "view",
      "type": "function"
    },
    {
      "constant": true,
      "inputs": [],
      "name": "version",
      "outputs": [
        {
          "name": "",
          "type": "string"
        }
      ],
      "payable": false,
      "stateMutability": "view",
      "type": "function"
    },
    {
      "constant": true,
      "inputs": [
        {
          "name": "account",
          "type": "address"
        }
      ],
      "name": "balanceOf",
      "outputs": [
        {
          "name": "",
          "type": "uint256"
        }
      ],
      "payable": false,
      "stateMutability": "view",
      "type": "function"
    },
    {
      "constant": false,
      "inputs": [],
      "name": "renounceOwnership",
      "outputs": [],
      "payable": false,
      "stateMutability": "nonpayable",
      "type": "function"
    },
    {
      "constant": true,
      "inputs": [
        {
          "name": "_continuousTokenAmount",
          "type": "uint256"
        }
      ],
      "name": "getContinuousBurnRefund",
      "outputs": [
        {
          "name": "",
          "type": "uint256"
        }
      ],
      "payable": false,
      "stateMutability": "view",
      "type": "function"
    },
    {
      "constant": true,
      "inputs": [],
      "name": "owner",
      "outputs": [
        {
          "name": "",
          "type": "address"
        }
      ],
      "payable": false,
      "stateMutability": "view",
      "type": "function"
    },
    {
      "constant": true,
      "inputs": [],
      "name": "isOwner",
      "outputs": [
        {
          "name": "",
          "type": "bool"
        }
      ],
      "payable": false,
      "stateMutability": "view",
      "type": "function"
    },
    {
      "constant": true,
      "inputs": [],
      "name": "symbol",
      "outputs": [
        {
          "name": "",
          "type": "string"
        }
      ],
      "payable": false,
      "stateMutability": "view",
      "type": "function"
    },
    {
      "constant": false,
      "inputs": [
        {
          "name": "_amount",
          "type": "uint256"
        }
      ],
      "name": "sponsoredBurn",
      "outputs": [],
      "payable": false,
      "stateMutability": "nonpayable",
      "type": "function"
    },
    {
      "constant": false,
      "inputs": [
        {
          "name": "spender",
          "type": "address"
        },
        {
          "name": "subtractedValue",
          "type": "uint256"
        }
      ],
      "name": "decreaseAllowance",
      "outputs": [
        {
          "name": "",
          "type": "bool"
        }
      ],
      "payable": false,
      "stateMutability": "nonpayable",
      "type": "function"
    },
    {
      "constant": false,
      "inputs": [
        {
          "name": "recipient",
          "type": "address"
        },
        {
          "name": "amount",
          "type": "uint256"
        }
      ],
      "name": "transfer",
      "outputs": [
        {
          "name": "",
          "type": "bool"
        }
      ],
      "payable": false,
      "stateMutability": "nonpayable",
      "type": "function"
    },
    {
      "constant": false,
      "inputs": [
        {
          "name": "_from",
          "type": "address"
        },
        {
          "name": "_amount",
          "type": "uint256"
        }
      ],
      "name": "sponsoredBurnFrom",
      "outputs": [],
      "payable": false,
      "stateMutability": "nonpayable",
      "type": "function"
    },
    {
      "constant": false,
      "inputs": [
        {
          "name": "newPrice",
          "type": "uint256"
        }
      ],
      "name": "setMaxGasPrice",
      "outputs": [],
      "payable": false,
      "stateMutability": "nonpayable",
      "type": "function"
    },
    {
      "constant": true,
      "inputs": [],
      "name": "continuousSupply",
      "outputs": [
        {
          "name": "",
          "type": "uint256"
        }
      ],
      "payable": false,
      "stateMutability": "view",
      "type": "function"
    },
    {
      "constant": true,
      "inputs": [
        {
          "name": "owner",
          "type": "address"
        },
        {
          "name": "spender",
          "type": "address"
        }
      ],
      "name": "allowance",
      "outputs": [
        {
          "name": "",
          "type": "uint256"
        }
      ],
      "payable": false,
      "stateMutability": "view",
      "type": "function"
    },
    {
      "constant": false,
      "inputs": [
        {
          "name": "newOwner",
          "type": "address"
        }
      ],
      "name": "transferOwnership",
      "outputs": [],
      "payable": false,
      "stateMutability": "nonpayable",
      "type": "function"
    },
    {
      "constant": true,
      "inputs": [],
      "name": "reserveToken",
      "outputs": [
        {
          "name": "",
          "type": "address"
        }
      ],
      "payable": false,
      "stateMutability": "view",
      "type": "function"
    },
    {
      "inputs": [
        {
          "name": "_name",
          "type": "string"
        },
        {
          "name": "_symbol",
          "type": "string"
        },
        {
          "name": "_decimals",
          "type": "uint8"
        },
        {
          "name": "_initialSupply",
          "type": "uint256"
        },
        {
          "name": "_reserveRatio",
          "type": "uint32"
        },
        {
          "name": "_reserveToken",
          "type": "address"
        }
      ],
      "payable": false,
      "stateMutability": "nonpayable",
      "type": "constructor"
    },
    {
      "payable": false,
      "stateMutability": "nonpayable",
      "type": "fallback"
    },
    {
      "anonymous": false,
      "inputs": [
        {
          "indexed": false,
          "name": "sender",
          "type": "address"
        },
        {
          "indexed": false,
          "name": "amount",
          "type": "uint256"
        },
        {
          "indexed": false,
          "name": "deposit",
          "type": "uint256"
        }
      ],
      "name": "Minted",
      "type": "event"
    },
    {
      "anonymous": false,
      "inputs": [
        {
          "indexed": false,
          "name": "sender",
          "type": "address"
        },
        {
          "indexed": false,
          "name": "amount",
          "type": "uint256"
        },
        {
          "indexed": false,
          "name": "refund",
          "type": "uint256"
        }
      ],
      "name": "Burned",
      "type": "event"
    },
    {
      "anonymous": false,
      "inputs": [
        {
          "indexed": true,
          "name": "previousOwner",
          "type": "address"
        },
        {
          "indexed": true,
          "name": "newOwner",
          "type": "address"
        }
      ],
      "name": "OwnershipTransferred",
      "type": "event"
    },
    {
      "anonymous": false,
      "inputs": [
        {
          "indexed": true,
          "name": "from",
          "type": "address"
        },
        {
          "indexed": true,
          "name": "to",
          "type": "address"
        },
        {
          "indexed": false,
          "name": "value",
          "type": "uint256"
        }
      ],
      "name": "Transfer",
      "type": "event"
    },
    {
      "anonymous": false,
      "inputs": [
        {
          "indexed": true,
          "name": "owner",
          "type": "address"
        },
        {
          "indexed": true,
          "name": "spender",
          "type": "address"
        },
        {
          "indexed": false,
          "name": "value",
          "type": "uint256"
        }
      ],
      "name": "Approval",
      "type": "event"
    },
    {
      "constant": false,
      "inputs": [
        {
          "name": "_amount",
          "type": "uint256"
        }
      ],
      "name": "mint",
      "outputs": [],
      "payable": false,
      "stateMutability": "nonpayable",
      "type": "function"
    },
    {
      "constant": false,
      "inputs": [
        {
          "name": "_amount",
          "type": "uint256"
        }
      ],
      "name": "burn",
      "outputs": [],
      "payable": false,
      "stateMutability": "nonpayable",
      "type": "function"
    },
    {
      "constant": true,
      "inputs": [],
      "name": "reserveBalance",
      "outputs": [
        {
          "name": "",
          "type": "uint256"
        }
      ],
      "payable": false,
      "stateMutability": "view",
      "type": "function"
    }
  ],
  "bytecode": "0x60806040526040805190810160405280600381526020017f302e330000000000000000000000000000000000000000000000000000000000815250600790805190602001906200005192919062001468565b50670de0b6b3a76400006089553480156200006b57600080fd5b506040516200594238038062005942833981018060405260c08110156200009157600080fd5b810190808051640100000000811115620000aa57600080fd5b82810190506020810184811115620000c157600080fd5b8151856001820283011164010000000082111715620000df57600080fd5b50509291906020018051640100000000811115620000fc57600080fd5b828101905060208101848111156200011357600080fd5b81518560018202830111640100000000821117156200013157600080fd5b505092919060200180519060200190929190805190602001909291908051906020019092919080519060200190929190505050858585858580858585600062000188620011f5640100000000026401000000009004565b9050806000806101000a81548173ffffffffffffffffffffffffffffffffffffffff021916908373ffffffffffffffffffffffffffffffffffffffff1602179055508073ffffffffffffffffffffffffffffffffffffffff16600073ffffffffffffffffffffffffffffffffffffffff167f8be0079c531659141344cd1fd0a4f28419497f9722a3daafe3b4186f6b6457e060405160405180910390a35082600490805190602001906200023e92919062001468565b5081600590805190602001906200025792919062001468565b5080600660006101000a81548160ff021916908360ff160217905550505050701c35fedd14ffffffffffffffffffffffff600860206080811015156200029957fe5b0181905550701b0ce43b323fffffffffffffffffffffff60086021608081101515620002c157fe5b01819055507019f0028ec1ffffffffffffffffffffffff60086022608081101515620002e957fe5b01819055507018ded91f0e7fffffffffffffffffffffff600860236080811015156200031157fe5b01819055507017d8ec7f0417ffffffffffffffffffffff600860246080811015156200033957fe5b01819055507016ddc6556cdbffffffffffffffffffffff600860256080811015156200036157fe5b01819055507015ecf52776a1ffffffffffffffffffffff600860266080811015156200038957fe5b01819055507015060c256cb2ffffffffffffffffffffff60086027608081101515620003b157fe5b0181905550701428a2f98d72ffffffffffffffffffffff60086028608081101515620003d957fe5b01819055507013545598e5c23fffffffffffffffffffff600860296080811015156200040157fe5b0181905550701288c4161ce1dfffffffffffffffffffff6008602a6080811015156200042957fe5b01819055507011c592761c666fffffffffffffffffffff6008602b6080811015156200045157fe5b018190555070110a688680a757ffffffffffffffffffff6008602c6080811015156200047957fe5b0181905550701056f1b5bedf77ffffffffffffffffffff6008602d608081101515620004a157fe5b0181905550700faadceceeff8bffffffffffffffffffff6008602e608081101515620004c957fe5b0181905550700f05dc6b27edadffffffffffffffffffff6008602f608081101515620004f157fe5b0181905550700e67a5a25da4107fffffffffffffffffff600860306080811015156200051957fe5b0181905550700dcff115b14eedffffffffffffffffffff600860316080811015156200054157fe5b0181905550700d3e7a392431239fffffffffffffffffff600860326080811015156200056957fe5b0181905550700cb2ff529eb71e4fffffffffffffffffff600860336080811015156200059157fe5b0181905550700c2d415c3db974afffffffffffffffffff60086034608081101515620005b957fe5b0181905550700bad03e7d883f69bffffffffffffffffff60086035608081101515620005e157fe5b0181905550700b320d03b2c343d5ffffffffffffffffff600860366080811015156200060957fe5b0181905550700abc25204e02828dffffffffffffffffff600860376080811015156200063157fe5b0181905550700a4b16f74ee4bb207fffffffffffffffff600860386080811015156200065957fe5b01819055507009deaf736ac1f569ffffffffffffffffff600860396080811015156200068157fe5b0181905550700976bd9952c7aa957fffffffffffffffff6008603a608081101515620006a957fe5b01819055507009131271922eaa606fffffffffffffffff6008603b608081101515620006d157fe5b01819055507008b380f3558668c46fffffffffffffffff6008603c608081101515620006f957fe5b0181905550700857ddf0117efa215bffffffffffffffff6008603d6080811015156200072157fe5b01819055507007ffffffffffffffffffffffffffffffff6008603e6080811015156200074957fe5b01819055507007abbf6f6abb9d087fffffffffffffffff6008603f6080811015156200077157fe5b018190555070075af62cbac95f7dfa7fffffffffffffff600860406080811015156200079957fe5b018190555070070d7fb7452e187ac13fffffffffffffff60086041608081101515620007c157fe5b01819055507006c3390ecc8af379295fffffffffffffff60086042608081101515620007e957fe5b018190555070067c00a3b07ffc01fd6fffffffffffffff600860436080811015156200081157fe5b0181905550700637b647c39cbb9d3d27ffffffffffffff600860446080811015156200083957fe5b01819055507005f63b1fc104dbd39587ffffffffffffff600860456080811015156200086157fe5b01819055507005b771955b36e12f7235ffffffffffffff600860466080811015156200088957fe5b018190555070057b3d49dda84556d6f6ffffffffffffff60086047608081101515620008b157fe5b018190555070054183095b2c8ececf30ffffffffffffff60086048608081101515620008d957fe5b018190555070050a28be635ca2b888f77fffffffffffff600860496080811015156200090157fe5b01819055507004d5156639708c9db33c3fffffffffffff6008604a6080811015156200092957fe5b01819055507004a23105873875bd52dfdfffffffffffff6008604b6080811015156200095157fe5b0181905550700471649d87199aa990756fffffffffffff6008604c6080811015156200097957fe5b01819055507004429a21a029d4c1457cfbffffffffffff6008604d608081101515620009a157fe5b0181905550700415bc6d6fb7dd71af2cb3ffffffffffff6008604e608081101515620009c957fe5b01819055507003eab73b3bbfe282243ce1ffffffffffff6008604f608081101515620009f157fe5b01819055507003c1771ac9fb6b4c18e229ffffffffffff6008605060808110151562000a1957fe5b0181905550700399e96897690418f785257fffffffffff6008605160808110151562000a4157fe5b0181905550700373fc456c53bb779bf0ea9fffffffffff6008605260808110151562000a6957fe5b018190555070034f9e8e490c48e67e6ab8bfffffffffff6008605360808110151562000a9157fe5b018190555070032cbfd4a7adc790560b3337ffffffffff6008605460808110151562000ab957fe5b018190555070030b50570f6e5d2acca94613ffffffffff6008605560808110151562000ae157fe5b01819055507002eb40f9f620fda6b56c2861ffffffffff6008605660808110151562000b0957fe5b01819055507002cc8340ecb0d0f520a6af58ffffffffff6008605760808110151562000b3157fe5b01819055507002af09481380a0a35cf1ba02ffffffffff6008605860808110151562000b5957fe5b0181905550700292c5bdd3b92ec810287b1b3fffffffff6008605960808110151562000b8157fe5b0181905550700277abdcdab07d5a77ac6d6b9fffffffff6008605a60808110151562000ba957fe5b018190555070025daf6654b1eaa55fd64df5efffffffff6008605b60808110151562000bd157fe5b0181905550700244c49c648baa98192dce88b7ffffffff6008605c60808110151562000bf957fe5b018190555070022ce03cd5619a311b2471268bffffffff6008605d60808110151562000c2157fe5b0181905550700215f77c045fbe885654a44a0fffffffff6008605e60808110151562000c4957fe5b01819055507001ffffffffffffffffffffffffffffffff6008605f60808110151562000c7157fe5b01819055507001eaefdbdaaee7421fc4d3ede5ffffffff6008606060808110151562000c9957fe5b01819055507001d6bd8b2eb257df7e8ca57b09bfffffff6008606160808110151562000cc157fe5b01819055507001c35fedd14b861eb0443f7f133fffffff6008606260808110151562000ce957fe5b01819055507001b0ce43b322bcde4a56e8ada5afffffff6008606360808110151562000d1157fe5b018190555070019f0028ec1fff007f5a195a39dfffffff6008606460808110151562000d3957fe5b018190555070018ded91f0e72ee74f49b15ba527ffffff6008606560808110151562000d6157fe5b018190555070017d8ec7f04136f4e5615fd41a63ffffff6008606660808110151562000d8957fe5b018190555070016ddc6556cdb84bdc8d12d22e6fffffff6008606760808110151562000db157fe5b018190555070015ecf52776a1155b5bd8395814f7fffff6008606860808110151562000dd957fe5b018190555070015060c256cb23b3b3cc3754cf40ffffff6008606960808110151562000e0157fe5b01819055507001428a2f98d728ae223ddab715be3fffff6008606a60808110151562000e2957fe5b018190555070013545598e5c23276ccf0ede68034fffff6008606b60808110151562000e5157fe5b01819055507001288c4161ce1d6f54b7f61081194fffff6008606c60808110151562000e7957fe5b018190555070011c592761c666aa641d5a01a40f17ffff6008606d60808110151562000ea157fe5b0181905550700110a688680a7530515f3e6e6cfdcdffff6008606e60808110151562000ec957fe5b01819055507001056f1b5bedf75c6bcb2ce8aed428ffff6008606f60808110151562000ef157fe5b01819055506ffaadceceeff8a0890f3875f008277fff6008607060808110151562000f1857fe5b01819055506ff05dc6b27edad306388a600f6ba0bfff6008607160808110151562000f3f57fe5b01819055506fe67a5a25da41063de1495d5b18cdbfff6008607260808110151562000f6657fe5b01819055506fdcff115b14eedde6fc3aa5353f2e4fff6008607360808110151562000f8d57fe5b01819055506fd3e7a3924312399f9aae2e0f868f8fff6008607460808110151562000fb457fe5b01819055506fcb2ff529eb71e41582cccd5a1ee26fff6008607560808110151562000fdb57fe5b01819055506fc2d415c3db974ab32a51840c0b67edff600860766080811015156200100257fe5b01819055506fbad03e7d883f69ad5b0a186184e06bff600860776080811015156200102957fe5b01819055506fb320d03b2c343d4829abd6075f0cc5ff600860786080811015156200105057fe5b01819055506fabc25204e02828d73c6e80bcdb1a95bf600860796080811015156200107757fe5b01819055506fa4b16f74ee4bb2040a1ec6c15fbbf2df6008607a6080811015156200109e57fe5b01819055506f9deaf736ac1f569deb1b5ae3f36c130f6008607b608081101515620010c557fe5b01819055506f976bd9952c7aa957f5937d790ef650376008607c608081101515620010ec57fe5b01819055506f9131271922eaa6064b73a22d0bd4f2bf6008607d6080811015156200111357fe5b01819055506f8b380f3558668c46c91c49a2f8e967b96008607e6080811015156200113a57fe5b01819055506f857ddf0117efa215952912839f6473e66008607f6080811015156200116157fe5b018190555080608860006101000a81548163ffffffff021916908363ffffffff16021790555050620011a33383620011fd640100000000026401000000009004565b505050505080608a60006101000a81548173ffffffffffffffffffffffffffffffffffffffff021916908373ffffffffffffffffffffffffffffffffffffffff16021790555050505050505062001517565b600033905090565b600073ffffffffffffffffffffffffffffffffffffffff168273ffffffffffffffffffffffffffffffffffffffff1614151515620012a3576040517f08c379a000000000000000000000000000000000000000000000000000000000815260040180806020018281038252601f8152602001807f45524332303a206d696e7420746f20746865207a65726f20616464726573730081525060200191505060405180910390fd5b620012c881600354620013dd6401000000000262002293179091906401000000009004565b6003819055506200133081600160008573ffffffffffffffffffffffffffffffffffffffff1673ffffffffffffffffffffffffffffffffffffffff16815260200190815260200160002054620013dd6401000000000262002293179091906401000000009004565b600160008473ffffffffffffffffffffffffffffffffffffffff1673ffffffffffffffffffffffffffffffffffffffff168152602001908152602001600020819055508173ffffffffffffffffffffffffffffffffffffffff16600073ffffffffffffffffffffffffffffffffffffffff167fddf252ad1be2c89b69c2b068fc378daa952ba7f163c4a11628f55a4df523b3ef836040518082815260200191505060405180910390a35050565b60008082840190508381101515156200145e576040517f08c379a000000000000000000000000000000000000000000000000000000000815260040180806020018281038252601b8152602001807f536166654d6174683a206164646974696f6e206f766572666c6f77000000000081525060200191505060405180910390fd5b8091505092915050565b828054600181600116156101000203166002900490600052602060002090601f016020900481019282601f10620014ab57805160ff1916838001178555620014dc565b82800160010185558215620014dc579182015b82811115620014db578251825591602001919060010190620014be565b5b509050620014eb9190620014ef565b5090565b6200151491905b8082111562001510576000816000905550600101620014f6565b5090565b90565b61441b80620015276000396000f3fe608060405234801561001057600080fd5b50600436106101f7576000357c0100000000000000000000000000000000000000000000000000000000900480637cbed3e011610121578063a457c2d7116100bf578063da12457a1161008e578063da12457a146109d8578063dd62ed3e146109f6578063f2fde38b14610a6e578063f4325d6714610ab2576101f7565b8063a457c2d714610890578063a9059cbb146108f6578063b265c7021461095c578063d2fa635e146109aa576101f7565b806395d89b41116100fb57806395d89b41146107935780639634388614610816578063a0712d6814610844578063a10954fe14610872576101f7565b80637cbed3e0146106e55780638da5cb5b146107275780638f32d59b14610771576101f7565b8063313ce5671161019957806349f9b0f71161016857806349f9b0f71461059a57806354fd4d501461060057806370a0823114610683578063715018a6146106db576101f7565b8063313ce567146104c457806339509351146104e85780633de39c111461054e57806342966c681461056c576101f7565b80630d8f9f7f116101d55780630d8f9f7f1461037857806318160ddd146103ba57806323b872dd146103d857806329a00e7c1461045e576101f7565b806306fdde0314610265578063095ea7b3146102e85780630c7d5cd81461034e575b6040517f08c379a000000000000000000000000000000000000000000000000000000000815260040180806020018281038252601e8152602001807f43616e6e6f742063616c6c2066616c6c6261636b2066756e6374696f6e2e000081525060200191505060405180910390fd5b61026d610afc565b6040518080602001828103825283818151815260200191508051906020019080838360005b838110156102ad578082015181840152602081019050610292565b50505050905090810190601f1680156102da5780820380516001836020036101000a031916815260200191505b509250505060405180910390f35b610334600480360360408110156102fe57600080fd5b81019080803573ffffffffffffffffffffffffffffffffffffffff16906020019092919080359060200190929190505050610b9e565b604051808215151515815260200191505060405180910390f35b610356610bbc565b604051808263ffffffff1663ffffffff16815260200191505060405180910390f35b6103a46004803603602081101561038e57600080fd5b8101908080359060200190929190505050610bd2565b6040518082815260200191505060405180910390f35b6103c2610c07565b6040518082815260200191505060405180910390f35b610444600480360360608110156103ee57600080fd5b81019080803573ffffffffffffffffffffffffffffffffffffffff169060200190929190803573ffffffffffffffffffffffffffffffffffffffff16906020019092919080359060200190929190505050610c11565b604051808215151515815260200191505060405180910390f35b6104ae6004803603608081101561047457600080fd5b810190808035906020019092919080359060200190929190803563ffffffff16906020019092919080359060200190929190505050610ceb565b6040518082815260200191505060405180910390f35b6104cc610e6a565b604051808260ff1660ff16815260200191505060405180910390f35b610534600480360360408110156104fe57600080fd5b81019080803573ffffffffffffffffffffffffffffffffffffffff16906020019092919080359060200190929190505050610e81565b604051808215151515815260200191505060405180910390f35b610556610f34565b6040518082815260200191505060405180910390f35b6105986004803603602081101561058257600080fd5b8101908080359060200190929190505050610f3a565b005b6105ea600480360360808110156105b057600080fd5b810190808035906020019092919080359060200190929190803563ffffffff169060200190929190803590602001909291905050506110bf565b6040518082815260200191505060405180910390f35b61060861126d565b6040518080602001828103825283818151815260200191508051906020019080838360005b8381101561064857808201518184015260208101905061062d565b50505050905090810190601f1680156106755780820380516001836020036101000a031916815260200191505b509250505060405180910390f35b6106c56004803603602081101561069957600080fd5b81019080803573ffffffffffffffffffffffffffffffffffffffff16906020019092919050505061130b565b6040518082815260200191505060405180910390f35b6106e3611354565b005b610711600480360360208110156106fb57600080fd5b810190808035906020019092919050505061148f565b6040518082815260200191505060405180910390f35b61072f6114c4565b604051808273ffffffffffffffffffffffffffffffffffffffff1673ffffffffffffffffffffffffffffffffffffffff16815260200191505060405180910390f35b6107796114ed565b604051808215151515815260200191505060405180910390f35b61079b61154b565b6040518080602001828103825283818151815260200191508051906020019080838360005b838110156107db5780820151818401526020810190506107c0565b50505050905090810190601f1680156108085780820380516001836020036101000a031916815260200191505b509250505060405180910390f35b6108426004803603602081101561082c57600080fd5b81019080803590602001909291905050506115ed565b005b6108706004803603602081101561085a57600080fd5b810190808035906020019092919050505061166e565b005b61087a611806565b6040518082815260200191505060405180910390f35b6108dc600480360360408110156108a657600080fd5b81019080803573ffffffffffffffffffffffffffffffffffffffff16906020019092919080359060200190929190505050611903565b604051808215151515815260200191505060405180910390f35b6109426004803603604081101561090c57600080fd5b81019080803573ffffffffffffffffffffffffffffffffffffffff169060200190929190803590602001909291905050506119d1565b604051808215151515815260200191505060405180910390f35b6109a86004803603604081101561097257600080fd5b81019080803573ffffffffffffffffffffffffffffffffffffffff169060200190929190803590602001909291905050506119ef565b005b6109d6600480360360208110156109c057600080fd5b8101908080359060200190929190505050611a71565b005b6109e0611af7565b6040518082815260200191505060405180910390f35b610a5860048036036040811015610a0c57600080fd5b81019080803573ffffffffffffffffffffffffffffffffffffffff169060200190929190803573ffffffffffffffffffffffffffffffffffffffff169060200190929190505050611b06565b6040518082815260200191505060405180910390f35b610ab060048036036020811015610a8457600080fd5b81019080803573ffffffffffffffffffffffffffffffffffffffff169060200190929190505050611b8d565b005b610aba611c15565b604051808273ffffffffffffffffffffffffffffffffffffffff1673ffffffffffffffffffffffffffffffffffffffff16815260200191505060405180910390f35b606060048054600181600116156101000203166002900480601f016020809104026020016040519081016040528092919081815260200182805460018160011615610100020316600290048015610b945780601f10610b6957610100808354040283529160200191610b94565b820191906000526020600020905b815481529060010190602001808311610b7757829003601f168201915b5050505050905090565b6000610bb2610bab611c3b565b8484611c43565b6001905092915050565b608860009054906101000a900463ffffffff1681565b6000610c00610bdf611af7565b610be7611806565b608860009054906101000a900463ffffffff1685610ceb565b9050919050565b6000600354905090565b6000610c1e848484611e3e565b610ce084610c2a611c3b565b610cdb856060604051908101604052806028815260200161431560289139600260008b73ffffffffffffffffffffffffffffffffffffffff1673ffffffffffffffffffffffffffffffffffffffff1681526020019081526020016000206000610c91611c3b565b73ffffffffffffffffffffffffffffffffffffffff1673ffffffffffffffffffffffffffffffffffffffff168152602001908152602001600020546120fd9092919063ffffffff16565b611c43565b600190509392505050565b60008085118015610cfc5750600084115b8015610d0e575060008363ffffffff16115b8015610d295750620f424063ffffffff168363ffffffff1611155b1515610d9d576040517f08c379a000000000000000000000000000000000000000000000000000000000815260040180806020018281038252600f8152602001807f496e76616c696420696e707574732e000000000000000000000000000000000081525060200191505060405180910390fd5b6000821415610daf5760009050610e62565b620f424063ffffffff168363ffffffff161415610df257610deb84610ddd84886121bf90919063ffffffff16565b61224990919063ffffffff16565b9050610e62565b6000806000610e0a878661229390919063ffffffff16565b9050610e1b818888620f424061231d565b809350819450505060008260ff16610e3c858b6121bf90919063ffffffff16565b908060020a82049150509050610e5b898261250190919063ffffffff16565b9450505050505b949350505050565b6000600660009054906101000a900460ff16905090565b6000610f2a610e8e611c3b565b84610f258560026000610e9f611c3b565b73ffffffffffffffffffffffffffffffffffffffff1673ffffffffffffffffffffffffffffffffffffffff16815260200190815260200160002060008973ffffffffffffffffffffffffffffffffffffffff1673ffffffffffffffffffffffffffffffffffffffff1681526020019081526020016000205461229390919063ffffffff16565b611c43565b6001905092915050565b60895481565b6000610f458261254b565b9050608a60009054906101000a900473ffffffffffffffffffffffffffffffffffffffff1673ffffffffffffffffffffffffffffffffffffffff1663a9059cbb33836040518363ffffffff167c0100000000000000000000000000000000000000000000000000000000028152600401808373ffffffffffffffffffffffffffffffffffffffff1673ffffffffffffffffffffffffffffffffffffffff16815260200182815260200192505050602060405180830381600087803b15801561100c57600080fd5b505af1158015611020573d6000803e3d6000fd5b505050506040513d602081101561103657600080fd5b810190808051906020019092919050505015156110bb576040517f08c379a000000000000000000000000000000000000000000000000000000000815260040180806020018281038252601d8152602001807f6275726e28292045524332302e7472616e73666572206661696c65642e00000081525060200191505060405180910390fd5b5050565b600080851180156110d05750600084115b80156110e2575060008363ffffffff16115b80156110fd5750620f424063ffffffff168363ffffffff1611155b80156111095750848211155b151561117d576040517f08c379a000000000000000000000000000000000000000000000000000000000815260040180806020018281038252600f8152602001807f496e76616c696420696e707574732e000000000000000000000000000000000081525060200191505060405180910390fd5b600082141561118f5760009050611265565b8482141561119f57839050611265565b620f424063ffffffff168363ffffffff1614156111e2576111db856111cd84876121bf90919063ffffffff16565b61224990919063ffffffff16565b9050611265565b60008060006111fa858961250190919063ffffffff16565b905061120b8882620f42408961231d565b8093508194505050600061122884896121bf90919063ffffffff16565b905060008360ff16899060020a02905061125d8561124f838561250190919063ffffffff16565b61224990919063ffffffff16565b955050505050505b949350505050565b60078054600181600116156101000203166002900480601f0160208091040260200160405190810160405280929190818152602001828054600181600116156101000203166002900480156113035780601f106112d857610100808354040283529160200191611303565b820191906000526020600020905b8154815290600101906020018083116112e657829003601f168201915b505050505081565b6000600160008373ffffffffffffffffffffffffffffffffffffffff1673ffffffffffffffffffffffffffffffffffffffff168152602001908152602001600020549050919050565b61135c6114ed565b15156113d0576040517f08c379a00000000000000000000000000000000000000000000000000000000081526004018080602001828103825260208152602001807f4f776e61626c653a2063616c6c6572206973206e6f7420746865206f776e657281525060200191505060405180910390fd5b600073ffffffffffffffffffffffffffffffffffffffff166000809054906101000a900473ffffffffffffffffffffffffffffffffffffffff1673ffffffffffffffffffffffffffffffffffffffff167f8be0079c531659141344cd1fd0a4f28419497f9722a3daafe3b4186f6b6457e060405160405180910390a360008060006101000a81548173ffffffffffffffffffffffffffffffffffffffff021916908373ffffffffffffffffffffffffffffffffffffffff160217905550565b60006114bd61149c611af7565b6114a4611806565b608860009054906101000a900463ffffffff16856110bf565b9050919050565b60008060009054906101000a900473ffffffffffffffffffffffffffffffffffffffff16905090565b60008060009054906101000a900473ffffffffffffffffffffffffffffffffffffffff1673ffffffffffffffffffffffffffffffffffffffff1661152f611c3b565b73ffffffffffffffffffffffffffffffffffffffff1614905090565b606060058054600181600116156101000203166002900480601f0160208091040260200160405190810160405280929190818152602001828054600181600116156101000203166002900480156115e35780601f106115b8576101008083540402835291602001916115e3565b820191906000526020600020905b8154815290600101906020018083116115c657829003601f168201915b5050505050905090565b6115f73382612735565b7f23ff0e75edf108e3d0392d92e13e8c8a868ef19001bd49f9e94876dc46dff87f33826000604051808473ffffffffffffffffffffffffffffffffffffffff1673ffffffffffffffffffffffffffffffffffffffff168152602001838152602001828152602001935050505060405180910390a150565b611677816128f2565b50608a60009054906101000a900473ffffffffffffffffffffffffffffffffffffffff1673ffffffffffffffffffffffffffffffffffffffff166323b872dd3330846040518463ffffffff167c0100000000000000000000000000000000000000000000000000000000028152600401808473ffffffffffffffffffffffffffffffffffffffff1673ffffffffffffffffffffffffffffffffffffffff1681526020018373ffffffffffffffffffffffffffffffffffffffff1673ffffffffffffffffffffffffffffffffffffffff1681526020018281526020019350505050602060405180830381600087803b15801561177157600080fd5b505af1158015611785573d6000803e3d6000fd5b505050506040513d602081101561179b57600080fd5b81019080805190602001909291905050501515611803576040517f08c379a00000000000000000000000000000000000000000000000000000000081526004018080602001828103825260218152602001806141fb6021913960400191505060405180910390fd5b50565b6000608a60009054906101000a900473ffffffffffffffffffffffffffffffffffffffff1673ffffffffffffffffffffffffffffffffffffffff166370a08231306040518263ffffffff167c0100000000000000000000000000000000000000000000000000000000028152600401808273ffffffffffffffffffffffffffffffffffffffff1673ffffffffffffffffffffffffffffffffffffffff16815260200191505060206040518083038186803b1580156118c357600080fd5b505afa1580156118d7573d6000803e3d6000fd5b505050506040513d60208110156118ed57600080fd5b8101908080519060200190929190505050905090565b60006119c7611910611c3b565b846119c285606060405190810160405280602581526020016143cb602591396002600061193b611c3b565b73ffffffffffffffffffffffffffffffffffffffff1673ffffffffffffffffffffffffffffffffffffffff16815260200190815260200160002060008a73ffffffffffffffffffffffffffffffffffffffff1673ffffffffffffffffffffffffffffffffffffffff168152602001908152602001600020546120fd9092919063ffffffff16565b611c43565b6001905092915050565b60006119e56119de611c3b565b8484611e3e565b6001905092915050565b6119f98282612a5c565b7f23ff0e75edf108e3d0392d92e13e8c8a868ef19001bd49f9e94876dc46dff87f33826000604051808473ffffffffffffffffffffffffffffffffffffffff1673ffffffffffffffffffffffffffffffffffffffff168152602001838152602001828152602001935050505060405180910390a15050565b611a796114ed565b1515611aed576040517f08c379a00000000000000000000000000000000000000000000000000000000081526004018080602001828103825260208152602001807f4f776e61626c653a2063616c6c6572206973206e6f7420746865206f776e657281525060200191505060405180910390fd5b8060898190555050565b6000611b01610c07565b905090565b6000600260008473ffffffffffffffffffffffffffffffffffffffff1673ffffffffffffffffffffffffffffffffffffffff16815260200190815260200160002060008373ffffffffffffffffffffffffffffffffffffffff1673ffffffffffffffffffffffffffffffffffffffff16815260200190815260200160002054905092915050565b611b956114ed565b1515611c09576040517f08c379a00000000000000000000000000000000000000000000000000000000081526004018080602001828103825260208152602001807f4f776e61626c653a2063616c6c6572206973206e6f7420746865206f776e657281525060200191505060405180910390fd5b611c1281612b2c565b50565b608a60009054906101000a900473ffffffffffffffffffffffffffffffffffffffff1681565b600033905090565b600073ffffffffffffffffffffffffffffffffffffffff168373ffffffffffffffffffffffffffffffffffffffff1614151515611ccb576040517f08c379a00000000000000000000000000000000000000000000000000000000081526004018080602001828103825260248152602001806143a76024913960400191505060405180910390fd5b600073ffffffffffffffffffffffffffffffffffffffff168273ffffffffffffffffffffffffffffffffffffffff1614151515611d53576040517f08c379a00000000000000000000000000000000000000000000000000000000081526004018080602001828103825260228152602001806142646022913960400191505060405180910390fd5b80600260008573ffffffffffffffffffffffffffffffffffffffff1673ffffffffffffffffffffffffffffffffffffffff16815260200190815260200160002060008473ffffffffffffffffffffffffffffffffffffffff1673ffffffffffffffffffffffffffffffffffffffff168152602001908152602001600020819055508173ffffffffffffffffffffffffffffffffffffffff168373ffffffffffffffffffffffffffffffffffffffff167f8c5be1e5ebec7d5bd14f71427d1e84f3dd0314c0f7b2291e5b200ac8c7c3b925836040518082815260200191505060405180910390a3505050565b600073ffffffffffffffffffffffffffffffffffffffff168373ffffffffffffffffffffffffffffffffffffffff1614151515611ec6576040517f08c379a00000000000000000000000000000000000000000000000000000000081526004018080602001828103825260258152602001806143826025913960400191505060405180910390fd5b600073ffffffffffffffffffffffffffffffffffffffff168273ffffffffffffffffffffffffffffffffffffffff1614151515611f4e576040517f08c379a00000000000000000000000000000000000000000000000000000000081526004018080602001828103825260238152602001806141d86023913960400191505060405180910390fd5b611fbb81606060405190810160405280602681526020016142ce60269139600160008773ffffffffffffffffffffffffffffffffffffffff1673ffffffffffffffffffffffffffffffffffffffff168152602001908152602001600020546120fd9092919063ffffffff16565b600160008573ffffffffffffffffffffffffffffffffffffffff1673ffffffffffffffffffffffffffffffffffffffff1681526020019081526020016000208190555061205081600160008573ffffffffffffffffffffffffffffffffffffffff1673ffffffffffffffffffffffffffffffffffffffff1681526020019081526020016000205461229390919063ffffffff16565b600160008473ffffffffffffffffffffffffffffffffffffffff1673ffffffffffffffffffffffffffffffffffffffff168152602001908152602001600020819055508173ffffffffffffffffffffffffffffffffffffffff168373ffffffffffffffffffffffffffffffffffffffff167fddf252ad1be2c89b69c2b068fc378daa952ba7f163c4a11628f55a4df523b3ef836040518082815260200191505060405180910390a3505050565b600083831115829015156121ac576040517f08c379a00000000000000000000000000000000000000000000000000000000081526004018080602001828103825283818151815260200191508051906020019080838360005b83811015612171578082015181840152602081019050612156565b50505050905090810190601f16801561219e5780820380516001836020036101000a031916815260200191505b509250505060405180910390fd5b5060008385039050809150509392505050565b6000808314156121d25760009050612243565b600082840290508284828115156121e557fe5b0414151561223e576040517f08c379a00000000000000000000000000000000000000000000000000000000081526004018080602001828103825260218152602001806142f46021913960400191505060405180910390fd5b809150505b92915050565b600061228b83836040805190810160405280601a81526020017f536166654d6174683a206469766973696f6e206279207a65726f000000000000815250612c72565b905092915050565b6000808284019050838110151515612313576040517f08c379a000000000000000000000000000000000000000000000000000000000815260040180806020018281038252601b8152602001807f536166654d6174683a206164646974696f6e206f766572666c6f77000000000081525060200191505060405180910390fd5b8091505092915050565b600080700200000000000000000000000000000000861015156123a8576040517f08c379a00000000000000000000000000000000000000000000000000000000081526004018080602001828103825260188152602001807f626173654e2065786365656473206d61782076616c75652e000000000000000081525060200191505060405180910390fd5b848610151515612420576040517f08c379a000000000000000000000000000000000000000000000000000000000815260040180806020018281038252601c8152602001807f4261736573203c203120617265206e6f7420737570706f727465642e0000000081525060200191505060405180910390fd5b600080866f80000000000000000000000000000000890281151561244057fe5b04905070015bf0a8b1457695355fb8ac404e7a79e381101561246c5761246581612d3c565b9150612478565b6124758161330c565b91505b60008563ffffffff168763ffffffff16840281151561249357fe5b0490507008000000000000000000000000000000008110156124c6576124b881613451565b607f945094505050506124f8565b60006124d182613a11565b90506124ee81607f0360ff1683908060020a820491505082613ad6565b8195509550505050505b94509492505050565b600061254383836040805190810160405280601e81526020017f536166654d6174683a207375627472616374696f6e206f766572666c6f7700008152506120fd565b905092915050565b60006089543a111515156125aa576040517f08c379a00000000000000000000000000000000000000000000000000000000081526004018080602001828103825260488152602001806142866048913960600191505060405180910390fd5b600082111515612622576040517f08c379a00000000000000000000000000000000000000000000000000000000081526004018080602001828103825260188152602001807f416d6f756e74206d757374206265206e6f6e2d7a65726f2e000000000000000081525060200191505060405180910390fd5b8161262c3361130b565b101515156126a2576040517f08c379a000000000000000000000000000000000000000000000000000000000815260040180806020018281038252601c8152602001807f496e73756666696369656e7420746f6b656e7320746f206275726e2e0000000081525060200191505060405180910390fd5b60006126ad8361148f565b90506126b93384612735565b7f23ff0e75edf108e3d0392d92e13e8c8a868ef19001bd49f9e94876dc46dff87f338483604051808473ffffffffffffffffffffffffffffffffffffffff1673ffffffffffffffffffffffffffffffffffffffff168152602001838152602001828152602001935050505060405180910390a180915050919050565b600073ffffffffffffffffffffffffffffffffffffffff168273ffffffffffffffffffffffffffffffffffffffff16141515156127bd576040517f08c379a00000000000000000000000000000000000000000000000000000000081526004018080602001828103825260218152602001806143616021913960400191505060405180910390fd5b61282a816060604051908101604052806022815260200161421c60229139600160008673ffffffffffffffffffffffffffffffffffffffff1673ffffffffffffffffffffffffffffffffffffffff168152602001908152602001600020546120fd9092919063ffffffff16565b600160008473ffffffffffffffffffffffffffffffffffffffff1673ffffffffffffffffffffffffffffffffffffffff168152602001908152602001600020819055506128828160035461250190919063ffffffff16565b600381905550600073ffffffffffffffffffffffffffffffffffffffff168273ffffffffffffffffffffffffffffffffffffffff167fddf252ad1be2c89b69c2b068fc378daa952ba7f163c4a11628f55a4df523b3ef836040518082815260200191505060405180910390a35050565b60006089543a11151515612951576040517f08c379a00000000000000000000000000000000000000000000000000000000081526004018080602001828103825260488152602001806142866048913960600191505060405180910390fd5b6000821115156129c9576040517f08c379a00000000000000000000000000000000000000000000000000000000081526004018080602001828103825260198152602001807f4465706f736974206d757374206265206e6f6e2d7a65726f2e0000000000000081525060200191505060405180910390fd5b60006129d483610bd2565b90506129e03382613f79565b7f25b428dfde728ccfaddad7e29e4ac23c24ed7fd1a6e3e3f91894a9a073f5dfff338285604051808473ffffffffffffffffffffffffffffffffffffffff1673ffffffffffffffffffffffffffffffffffffffff168152602001838152602001828152602001935050505060405180910390a180915050919050565b612a668282612735565b612b2882612a72611c3b565b612b23846060604051908101604052806024815260200161433d60249139600260008973ffffffffffffffffffffffffffffffffffffffff1673ffffffffffffffffffffffffffffffffffffffff1681526020019081526020016000206000612ad9611c3b565b73ffffffffffffffffffffffffffffffffffffffff1673ffffffffffffffffffffffffffffffffffffffff168152602001908152602001600020546120fd9092919063ffffffff16565b611c43565b5050565b600073ffffffffffffffffffffffffffffffffffffffff168173ffffffffffffffffffffffffffffffffffffffff1614151515612bb4576040517f08c379a000000000000000000000000000000000000000000000000000000000815260040180806020018281038252602681526020018061423e6026913960400191505060405180910390fd5b8073ffffffffffffffffffffffffffffffffffffffff166000809054906101000a900473ffffffffffffffffffffffffffffffffffffffff1673ffffffffffffffffffffffffffffffffffffffff167f8be0079c531659141344cd1fd0a4f28419497f9722a3daafe3b4186f6b6457e060405160405180910390a3806000806101000a81548173ffffffffffffffffffffffffffffffffffffffff021916908373ffffffffffffffffffffffffffffffffffffffff16021790555050565b600080831182901515612d20576040517f08c379a00000000000000000000000000000000000000000000000000000000081526004018080602001828103825283818151815260200191508051906020019080838360005b83811015612ce5578082015181840152602081019050612cca565b50505050905090810190601f168015612d125780820380516001836020036101000a031916815260200191505b509250505060405180910390fd5b5060008385811515612d2e57fe5b049050809150509392505050565b6000806000905060008060006fd3094c70f034de4b96ff7d5b6f99fcd886101515612da7576f40000000000000000000000000000000840193506fd3094c70f034de4b96ff7d5b6f99fcd86f800000000000000000000000000000008702811515612da357fe5b0495505b6fa45af1e1f40c333b3de1db4dd55f29a786101515612e06576f20000000000000000000000000000000840193506fa45af1e1f40c333b3de1db4dd55f29a76f800000000000000000000000000000008702811515612e0257fe5b0495505b6f910b022db7ae67ce76b441c27035c6a186101515612e65576f10000000000000000000000000000000840193506f910b022db7ae67ce76b441c27035c6a16f800000000000000000000000000000008702811515612e6157fe5b0495505b6f88415abbe9a76bead8d00cf112e4d4a886101515612ec4576f08000000000000000000000000000000840193506f88415abbe9a76bead8d00cf112e4d4a86f800000000000000000000000000000008702811515612ec057fe5b0495505b6f84102b00893f64c705e841d5d4064bd386101515612f23576f04000000000000000000000000000000840193506f84102b00893f64c705e841d5d4064bd36f800000000000000000000000000000008702811515612f1f57fe5b0495505b6f8204055aaef1c8bd5c3259f4822735a286101515612f82576f02000000000000000000000000000000840193506f8204055aaef1c8bd5c3259f4822735a26f800000000000000000000000000000008702811515612f7e57fe5b0495505b6f810100ab00222d861931c15e39b44e9986101515612fe1576f01000000000000000000000000000000840193506f810100ab00222d861931c15e39b44e996f800000000000000000000000000000008702811515612fdd57fe5b0495505b6f808040155aabbbe9451521693554f7338610151561303f576e800000000000000000000000000000840193506f808040155aabbbe9451521693554f7336f80000000000000000000000000000000870281151561303b57fe5b0495505b6f80000000000000000000000000000000860392508291506f8000000000000000000000000000000083840281151561307457fe5b049050700100000000000000000000000000000000837001000000000000000000000000000000000383028115156130a857fe5b04840193506f800000000000000000000000000000008183028115156130ca57fe5b049150700200000000000000000000000000000000836faaaaaaaaaaaaaaaaaaaaaaaaaaaaaaaa0383028115156130fd57fe5b04840193506f8000000000000000000000000000000081830281151561311f57fe5b049150700300000000000000000000000000000000836f9999999999999999999999999999999903830281151561315257fe5b04840193506f8000000000000000000000000000000081830281151561317457fe5b049150700400000000000000000000000000000000836f924924924924924924924924924924920383028115156131a757fe5b04840193506f800000000000000000000000000000008183028115156131c957fe5b049150700500000000000000000000000000000000836f8e38e38e38e38e38e38e38e38e38e38e0383028115156131fc57fe5b04840193506f8000000000000000000000000000000081830281151561321e57fe5b049150700600000000000000000000000000000000836f8ba2e8ba2e8ba2e8ba2e8ba2e8ba2e8b03830281151561325157fe5b04840193506f8000000000000000000000000000000081830281151561327357fe5b049150700700000000000000000000000000000000836f89d89d89d89d89d89d89d89d89d89d890383028115156132a657fe5b04840193506f800000000000000000000000000000008183028115156132c857fe5b049150700800000000000000000000000000000000836f888888888888888888888888888888880383028115156132fb57fe5b048401935083945050505050919050565b600080600090506000839050700100000000000000000000000000000000811015156133855760006133586f800000000000000000000000000000008381151561335257fe5b04614138565b90508060ff1682908060020a820491505091506f800000000000000000000000000000008160ff16029250505b6f8000000000000000000000000000000081111561341a576000607f90505b60008160ff161115613418576f800000000000000000000000000000008283028115156133cd57fe5b0491507001000000000000000000000000000000008210151561340c57600182908060020a820491505091506001810360ff1660019060020a02830192505b806001900390506133a4565b505b6f05b9de1d10bf4103d647b0955897ba806f03f80fe03f80fe03f80fe03f80fe03f8830281151561344757fe5b0492505050919050565b600080600090506000806f100000000000000000000000000000008581151561347657fe5b0691508190506f8000000000000000000000000000000082820281151561349957fe5b0490506710e1b3be415a00008102830192506f800000000000000000000000000000008282028115156134c857fe5b0490506705a0913f6b1e00008102830192506f800000000000000000000000000000008282028115156134f757fe5b049050670168244fdac780008102830192506f8000000000000000000000000000000082820281151561352657fe5b049050664807432bc180008102830192506f8000000000000000000000000000000082820281151561355457fe5b049050660c0135dca040008102830192506f8000000000000000000000000000000082820281151561358257fe5b0490506601b707b1cdc0008102830192506f800000000000000000000000000000008282028115156135b057fe5b0490506536e0f639b8008102830192506f800000000000000000000000000000008282028115156135dd57fe5b049050650618fee9f8008102830192506f8000000000000000000000000000000082820281151561360a57fe5b049050649c197dcc008102830192506f8000000000000000000000000000000082820281151561363657fe5b049050640e30dce4008102830192506f8000000000000000000000000000000082820281151561366257fe5b04905064012ebd13008102830192506f8000000000000000000000000000000082820281151561368e57fe5b0490506317499f008102830192506f800000000000000000000000000000008282028115156136b957fe5b0490506301a9d4808102830192506f800000000000000000000000000000008282028115156136e457fe5b049050621c63808102830192506f8000000000000000000000000000000082820281151561370e57fe5b0490506201c6388102830192506f8000000000000000000000000000000082820281151561373857fe5b049050611ab88102830192506f8000000000000000000000000000000082820281151561376157fe5b04905061017c8102830192506f8000000000000000000000000000000082820281151561378a57fe5b04905060148102830192506f800000000000000000000000000000008282028115156137b257fe5b04905060018102830192506f80000000000000000000000000000000826721c3677c82b40000858115156137e257fe5b040101925060006f1000000000000000000000000000000086161415156138365770018ebef9eac820ae8682b9793ac6d1e7767001c3d6a24ed82218787d624d3e5eba95f9840281151561383257fe5b0492505b60006f200000000000000000000000000000008616141515613885577001368b2fc6f9609fe7aceb46aa619baed470018ebef9eac820ae8682b9793ac6d1e778840281151561388157fe5b0492505b60006f4000000000000000000000000000000086161415156138d3576fbc5ab1b16779be3575bd8f0520a9f21f7001368b2fc6f9609fe7aceb46aa619baed584028115156138cf57fe5b0492505b60006f800000000000000000000000000000008616141515613920576f454aaa8efe072e7f6ddbab84b40a55c96fbc5ab1b16779be3575bd8f0520a9f21e840281151561391c57fe5b0492505b6000700100000000000000000000000000000000861614151561396e576f0960aadc109e7a3bf4578099615711ea6f454aaa8efe072e7f6ddbab84b40a55c5840281151561396a57fe5b0492505b600070020000000000000000000000000000000086161415156139bb576e2bf84208204f5977f9a8cf01fdce3d6f0960aadc109e7a3bf4578099615711d784028115156139b757fe5b0492505b60007004000000000000000000000000000000008616141515613a06576d03c6ab775dd0b95b4cbee7e65d116e2bf84208204f5977f9a8cf01fdc3078402811515613a0257fe5b0492505b829350505050919050565b600080602090506000607f90505b8060ff166001830160ff161015613a74576000600282840160ff16811515613a4357fe5b0490508460088260ff16608081101515613a5957fe5b0154101515613a6a57809250613a6e565b8091505b50613a1f565b8360088260ff16608081101515613a8757fe5b0154101515613a9a578092505050613ad1565b8360088360ff16608081101515613aad57fe5b0154101515613ac0578192505050613ad1565b60001515613aca57fe5b6000925050505b919050565b60008083905060008090508360ff16858302908060020a820491505091506f03442c4e6074a82f1797f72ac00000008202810190508360ff16858302908060020a820491505091506f0116b96f757c380fb287fd0e400000008202810190508360ff16858302908060020a820491505091506e45ae5bdd5f0e03eca1ff43900000008202810190508360ff16858302908060020a820491505091506e0defabf91302cd95b9ffda500000008202810190508360ff16858302908060020a820491505091506e02529ca9832b22439efff9b80000008202810190508360ff16858302908060020a820491505091506d54f1cf12bd04e516b6da880000008202810190508360ff16858302908060020a820491505091506d0a9e39e257a09ca2d6db510000008202810190508360ff16858302908060020a820491505091506d012e066e7b839fa050c3090000008202810190508360ff16858302908060020a820491505091506c1e33d7d926c329a1ad1a8000008202810190508360ff16858302908060020a820491505091506c02bee513bdb4a6b19b5f8000008202810190508360ff16858302908060020a820491505091506b3a9316fa79b88eccf2a000008202810190508360ff16858302908060020a820491505091506b048177ebe1fa8123752000008202810190508360ff16858302908060020a820491505091506a5263fe90242dcbacf000008202810190508360ff16858302908060020a820491505091506a057e22099c030d941000008202810190508360ff16858302908060020a820491505091506957e22099c030d94100008202810190508360ff16858302908060020a8204915050915069052b6b545699763100008202810190508360ff16858302908060020a82049150509150684985f67696bf7480008202810190508360ff16858302908060020a820491505091506803dea12ea99e4980008202810190508360ff16858302908060020a820491505091506731880f2214b6e0008202810190508360ff16858302908060020a8204915050915067025bcff56eb360008202810190508360ff16858302908060020a82049150509150661b722e10ab10008202810190508360ff16858302908060020a820491505091506601317c700770008202810190508360ff16858302908060020a82049150509150650cba84aafa008202810190508360ff16858302908060020a820491505091506482573a0a008202810190508360ff16858302908060020a820491505091506405035ad9008202810190508360ff16858302908060020a82049150509150632f881b008202810190508360ff16858302908060020a820491505091506301b293408202810190508360ff16858302908060020a82049150509150620efc408202810190508360ff16858302908060020a82049150509150617fe08202810190508360ff16858302908060020a820491505091506104208202810190508360ff16858302908060020a8204915050915060218202810190508360ff16858302908060020a8204915050915060018202810190508360ff1660019060020a02856f0688589cc0e9505e2f2fee558000000083811515613f6c57fe5b0401019250505092915050565b600073ffffffffffffffffffffffffffffffffffffffff168273ffffffffffffffffffffffffffffffffffffffff161415151561401e576040517f08c379a000000000000000000000000000000000000000000000000000000000815260040180806020018281038252601f8152602001807f45524332303a206d696e7420746f20746865207a65726f20616464726573730081525060200191505060405180910390fd5b6140338160035461229390919063ffffffff16565b60038190555061408b81600160008573ffffffffffffffffffffffffffffffffffffffff1673ffffffffffffffffffffffffffffffffffffffff1681526020019081526020016000205461229390919063ffffffff16565b600160008473ffffffffffffffffffffffffffffffffffffffff1673ffffffffffffffffffffffffffffffffffffffff168152602001908152602001600020819055508173ffffffffffffffffffffffffffffffffffffffff16600073ffffffffffffffffffffffffffffffffffffffff167fddf252ad1be2c89b69c2b068fc378daa952ba7f163c4a11628f55a4df523b3ef836040518082815260200191505060405180910390a35050565b600080600090506000839050610100811015614177575b600181111561417257600181908060020a8204915050905060018201915061414f565b6141cd565b6000608090505b60008160ff1611156141cb578060ff1660019060020a02821015156141b4578060ff1682908060020a8204915050915080831792505b60018160ff16908060020a8204915050905061417e565b505b819250505091905056fe45524332303a207472616e7366657220746f20746865207a65726f20616464726573736d696e7428292045524332302e7472616e7366657246726f6d206661696c65642e45524332303a206275726e20616d6f756e7420657863656564732062616c616e63654f776e61626c653a206e6577206f776e657220697320746865207a65726f206164647265737345524332303a20617070726f766520746f20746865207a65726f2061646472657373476173207072696365206d757374206265203c3d206d6178696d756d2067617320707269636520746f2070726576656e742066726f6e742072756e6e696e672061747461636b732e45524332303a207472616e7366657220616d6f756e7420657863656564732062616c616e6365536166654d6174683a206d756c7469706c69636174696f6e206f766572666c6f7745524332303a207472616e7366657220616d6f756e74206578636565647320616c6c6f77616e636545524332303a206275726e20616d6f756e74206578636565647320616c6c6f77616e636545524332303a206275726e2066726f6d20746865207a65726f206164647265737345524332303a207472616e736665722066726f6d20746865207a65726f206164647265737345524332303a20617070726f76652066726f6d20746865207a65726f206164647265737345524332303a2064656372656173656420616c6c6f77616e63652062656c6f77207a65726fa165627a7a72305820548f5f5a6cf99bd10378ffd2ebb8ac13ae3ceb8a3f01d4000ee36e1f3a0c2d270029",
  "source": "pragma solidity ^0.5.2;\n\nimport \"./ContinuousToken.sol\";\n\ncontract ERC20ContinuousToken is ContinuousToken {\n    ERC20 public reserveToken;\n\n    constructor(\n        string memory _name,\n        string memory _symbol,\n        uint8 _decimals,\n        uint _initialSupply,\n        uint32 _reserveRatio,\n        ERC20 _reserveToken\n    ) public ContinuousToken(_name, _symbol, _decimals, _initialSupply, _reserveRatio) {\n        reserveToken = _reserveToken;\n    }\n\n    function () external { revert(\"Cannot call fallback function.\"); }\n\n    function mint(uint _amount) public {\n        _continuousMint(_amount);\n        require(reserveToken.transferFrom(msg.sender, address(this), _amount), \"mint() ERC20.transferFrom failed.\");\n    }\n\n    function burn(uint _amount) public {\n        uint returnAmount = _continuousBurn(_amount);\n        require(reserveToken.transfer(msg.sender, returnAmount), \"burn() ERC20.transfer failed.\");\n    }\n\n    function reserveBalance() public view returns (uint) {\n        return reserveToken.balanceOf(address(this));\n    }\n}",
  "sourcePath": "/Users/feewet/dev/ethdenver/solidity/loftbound/contracts/token/ERC20ContinuousToken.sol",
  "compiler": {
    "name": "solc",
    "version": "0.5.2+commit.1df8f40c.Emscripten.clang"
  },
  "schemaVersion": "3.0.1",
  "updatedAt": "2020-02-15T09:42:19.515Z",
  "devdoc": {
    "methods": {
      "allowance(address,address)": {
        "details": "See {IERC20-allowance}."
      },
      "approve(address,uint256)": {
        "details": "See {IERC20-approve}.     * Requirements:     * - `spender` cannot be the zero address."
      },
      "balanceOf(address)": {
        "details": "See {IERC20-balanceOf}."
      },
      "calculatePurchaseReturn(uint256,uint256,uint32,uint256)": {
        "details": "given a continuous token supply, reserve token balance, reserve ratio, and a deposit amount (in the reserve token), calculates the return for a given conversion (in the continuous token)    * Formula: Return = _supply * ((1 + _depositAmount / _reserveBalance) ^ (_reserveRatio / MAX_RESERVE_RATIO) - 1)",
        "params": {
          "_depositAmount": "deposit amount, in reserve token",
          "_reserveBalance": "total reserve token balance",
          "_reserveRatio": "reserve ratio, represented in ppm, 1-1000000",
          "_supply": "continuous token total supply"
        },
        "return": "purchase return amount"
      },
      "calculateSaleReturn(uint256,uint256,uint32,uint256)": {
        "details": "given a continuous token supply, reserve token balance, reserve ratio and a sell amount (in the continuous token), calculates the return for a given conversion (in the reserve token)    * Formula: Return = _reserveBalance * (1 - (1 - _sellAmount / _supply) ^ (1 / (_reserveRatio / MAX_RESERVE_RATIO)))",
        "params": {
          "_reserveBalance": "total reserve token balance",
          "_reserveRatio": "constant reserve ratio, represented in ppm, 1-1000000",
          "_sellAmount": "sell amount, in the continuous token itself",
          "_supply": "continuous token total supply"
        },
        "return": "sale return amount"
      },
      "decimals()": {
        "details": "Returns the number of decimals used to get its user representation. For example, if `decimals` equals `2`, a balance of `505` tokens should be displayed to a user as `5,05` (`505 / 10 ** 2`).     * Tokens usually opt for a value of 18, imitating the relationship between Ether and Wei.     * NOTE: This information is only used for _display_ purposes: it in no way affects any of the arithmetic of the contract, including {IERC20-balanceOf} and {IERC20-transfer}."
      },
      "decreaseAllowance(address,uint256)": {
        "details": "Atomically decreases the allowance granted to `spender` by the caller.     * This is an alternative to {approve} that can be used as a mitigation for problems described in {IERC20-approve}.     * Emits an {Approval} event indicating the updated allowance.     * Requirements:     * - `spender` cannot be the zero address. - `spender` must have allowance for the caller of at least `subtractedValue`."
      },
      "increaseAllowance(address,uint256)": {
        "details": "Atomically increases the allowance granted to `spender` by the caller.     * This is an alternative to {approve} that can be used as a mitigation for problems described in {IERC20-approve}.     * Emits an {Approval} event indicating the updated allowance.     * Requirements:     * - `spender` cannot be the zero address."
      },
      "isOwner()": {
        "details": "Returns true if the caller is the current owner."
      },
      "name()": {
        "details": "Returns the name of the token."
      },
      "owner()": {
        "details": "Returns the address of the current owner."
      },
      "renounceOwnership()": {
        "details": "Leaves the contract without owner. It will not be possible to call `onlyOwner` functions anymore. Can only be called by the current owner.     * NOTE: Renouncing ownership will leave the contract without an owner, thereby removing any functionality that is only available to the owner."
      },
      "symbol()": {
        "details": "Returns the symbol of the token, usually a shorter version of the name."
      },
      "totalSupply()": {
        "details": "See {IERC20-totalSupply}."
      },
      "transfer(address,uint256)": {
        "details": "See {IERC20-transfer}.     * Requirements:     * - `recipient` cannot be the zero address. - the caller must have a balance of at least `amount`."
      },
      "transferFrom(address,address,uint256)": {
        "details": "See {IERC20-transferFrom}.     * Emits an {Approval} event indicating the updated allowance. This is not required by the EIP. See the note at the beginning of {ERC20};     * Requirements: - `sender` and `recipient` cannot be the zero address. - `sender` must have a balance of at least `amount`. - the caller must have allowance for `sender`'s tokens of at least `amount`."
      },
      "transferOwnership(address)": {
        "details": "Transfers ownership of the contract to a new account (`newOwner`). Can only be called by the current owner."
      }
    }
  },
  "userdoc": {
    "methods": {}
  }
}