{
  "contractName": "ERC20ContinuousToken",
  "abi": [
    {
      "inputs": [
        {
          "internalType": "string",
          "name": "_name",
          "type": "string"
        },
        {
          "internalType": "string",
          "name": "_symbol",
          "type": "string"
        },
        {
          "internalType": "uint8",
          "name": "_decimals",
          "type": "uint8"
        },
        {
          "internalType": "uint256",
          "name": "_initialSupply",
          "type": "uint256"
        },
        {
          "internalType": "uint32",
          "name": "_reserveRatio",
          "type": "uint32"
        },
        {
          "internalType": "contract ERC20",
          "name": "_reserveToken",
          "type": "address"
        }
      ],
      "payable": false,
      "stateMutability": "nonpayable",
      "type": "constructor"
    },
    {
      "anonymous": false,
      "inputs": [
        {
          "indexed": true,
          "internalType": "address",
          "name": "owner",
          "type": "address"
        },
        {
          "indexed": true,
          "internalType": "address",
          "name": "spender",
          "type": "address"
        },
        {
          "indexed": false,
          "internalType": "uint256",
          "name": "value",
          "type": "uint256"
        }
      ],
      "name": "Approval",
      "type": "event"
    },
    {
      "anonymous": false,
      "inputs": [
        {
          "indexed": false,
          "internalType": "address",
          "name": "sender",
          "type": "address"
        },
        {
          "indexed": false,
          "internalType": "uint256",
          "name": "amount",
          "type": "uint256"
        },
        {
          "indexed": false,
          "internalType": "uint256",
          "name": "refund",
          "type": "uint256"
        }
      ],
      "name": "Burned",
      "type": "event"
    },
    {
      "anonymous": false,
      "inputs": [
        {
          "indexed": false,
          "internalType": "address",
          "name": "sender",
          "type": "address"
        },
        {
          "indexed": false,
          "internalType": "uint256",
          "name": "amount",
          "type": "uint256"
        },
        {
          "indexed": false,
          "internalType": "uint256",
          "name": "deposit",
          "type": "uint256"
        }
      ],
      "name": "Minted",
      "type": "event"
    },
    {
      "anonymous": false,
      "inputs": [
        {
          "indexed": true,
          "internalType": "address",
          "name": "previousOwner",
          "type": "address"
        },
        {
          "indexed": true,
          "internalType": "address",
          "name": "newOwner",
          "type": "address"
        }
      ],
      "name": "OwnershipTransferred",
      "type": "event"
    },
    {
      "anonymous": false,
      "inputs": [
        {
          "indexed": true,
          "internalType": "address",
          "name": "from",
          "type": "address"
        },
        {
          "indexed": true,
          "internalType": "address",
          "name": "to",
          "type": "address"
        },
        {
          "indexed": false,
          "internalType": "uint256",
          "name": "value",
          "type": "uint256"
        }
      ],
      "name": "Transfer",
      "type": "event"
    },
    {
      "payable": false,
      "stateMutability": "nonpayable",
      "type": "fallback"
    },
    {
      "constant": true,
      "inputs": [
        {
          "internalType": "address",
          "name": "owner",
          "type": "address"
        },
        {
          "internalType": "address",
          "name": "spender",
          "type": "address"
        }
      ],
      "name": "allowance",
      "outputs": [
        {
          "internalType": "uint256",
          "name": "",
          "type": "uint256"
        }
      ],
      "payable": false,
      "stateMutability": "view",
      "type": "function"
    },
    {
      "constant": false,
      "inputs": [
        {
          "internalType": "address",
          "name": "spender",
          "type": "address"
        },
        {
          "internalType": "uint256",
          "name": "amount",
          "type": "uint256"
        }
      ],
      "name": "approve",
      "outputs": [
        {
          "internalType": "bool",
          "name": "",
          "type": "bool"
        }
      ],
      "payable": false,
      "stateMutability": "nonpayable",
      "type": "function"
    },
    {
      "constant": true,
      "inputs": [
        {
          "internalType": "address",
          "name": "account",
          "type": "address"
        }
      ],
      "name": "balanceOf",
      "outputs": [
        {
          "internalType": "uint256",
          "name": "",
          "type": "uint256"
        }
      ],
      "payable": false,
      "stateMutability": "view",
      "type": "function"
    },
    {
      "constant": true,
      "inputs": [
        {
          "internalType": "uint256",
          "name": "_supply",
          "type": "uint256"
        },
        {
          "internalType": "uint256",
          "name": "_reserveBalance",
          "type": "uint256"
        },
        {
          "internalType": "uint32",
          "name": "_reserveRatio",
          "type": "uint32"
        },
        {
          "internalType": "uint256",
          "name": "_depositAmount",
          "type": "uint256"
        }
      ],
      "name": "calculatePurchaseReturn",
      "outputs": [
        {
          "internalType": "uint256",
          "name": "",
          "type": "uint256"
        }
      ],
      "payable": false,
      "stateMutability": "view",
      "type": "function"
    },
    {
      "constant": true,
      "inputs": [
        {
          "internalType": "uint256",
          "name": "_supply",
          "type": "uint256"
        },
        {
          "internalType": "uint256",
          "name": "_reserveBalance",
          "type": "uint256"
        },
        {
          "internalType": "uint32",
          "name": "_reserveRatio",
          "type": "uint32"
        },
        {
          "internalType": "uint256",
          "name": "_sellAmount",
          "type": "uint256"
        }
      ],
      "name": "calculateSaleReturn",
      "outputs": [
        {
          "internalType": "uint256",
          "name": "",
          "type": "uint256"
        }
      ],
      "payable": false,
      "stateMutability": "view",
      "type": "function"
    },
    {
      "constant": true,
      "inputs": [],
      "name": "continuousSupply",
      "outputs": [
        {
          "internalType": "uint256",
          "name": "",
          "type": "uint256"
        }
      ],
      "payable": false,
      "stateMutability": "view",
      "type": "function"
    },
    {
      "constant": true,
      "inputs": [],
      "name": "decimals",
      "outputs": [
        {
          "internalType": "uint8",
          "name": "",
          "type": "uint8"
        }
      ],
      "payable": false,
      "stateMutability": "view",
      "type": "function"
    },
    {
      "constant": false,
      "inputs": [
        {
          "internalType": "address",
          "name": "spender",
          "type": "address"
        },
        {
          "internalType": "uint256",
          "name": "subtractedValue",
          "type": "uint256"
        }
      ],
      "name": "decreaseAllowance",
      "outputs": [
        {
          "internalType": "bool",
          "name": "",
          "type": "bool"
        }
      ],
      "payable": false,
      "stateMutability": "nonpayable",
      "type": "function"
    },
    {
      "constant": true,
      "inputs": [
        {
          "internalType": "uint256",
          "name": "_continuousTokenAmount",
          "type": "uint256"
        }
      ],
      "name": "getContinuousBurnRefund",
      "outputs": [
        {
          "internalType": "uint256",
          "name": "",
          "type": "uint256"
        }
      ],
      "payable": false,
      "stateMutability": "view",
      "type": "function"
    },
    {
      "constant": true,
      "inputs": [
        {
          "internalType": "uint256",
          "name": "_reserveTokenAmount",
          "type": "uint256"
        }
      ],
      "name": "getContinuousMintReward",
      "outputs": [
        {
          "internalType": "uint256",
          "name": "",
          "type": "uint256"
        }
      ],
      "payable": false,
      "stateMutability": "view",
      "type": "function"
    },
    {
      "constant": false,
      "inputs": [
        {
          "internalType": "address",
          "name": "spender",
          "type": "address"
        },
        {
          "internalType": "uint256",
          "name": "addedValue",
          "type": "uint256"
        }
      ],
      "name": "increaseAllowance",
      "outputs": [
        {
          "internalType": "bool",
          "name": "",
          "type": "bool"
        }
      ],
      "payable": false,
      "stateMutability": "nonpayable",
      "type": "function"
    },
    {
      "constant": true,
      "inputs": [],
      "name": "isOwner",
      "outputs": [
        {
          "internalType": "bool",
          "name": "",
          "type": "bool"
        }
      ],
      "payable": false,
      "stateMutability": "view",
      "type": "function"
    },
    {
      "constant": true,
      "inputs": [],
      "name": "maxGasPrice",
      "outputs": [
        {
          "internalType": "uint256",
          "name": "",
          "type": "uint256"
        }
      ],
      "payable": false,
      "stateMutability": "view",
      "type": "function"
    },
    {
      "constant": true,
      "inputs": [],
      "name": "name",
      "outputs": [
        {
          "internalType": "string",
          "name": "",
          "type": "string"
        }
      ],
      "payable": false,
      "stateMutability": "view",
      "type": "function"
    },
    {
      "constant": true,
      "inputs": [],
      "name": "owner",
      "outputs": [
        {
          "internalType": "address",
          "name": "",
          "type": "address"
        }
      ],
      "payable": false,
      "stateMutability": "view",
      "type": "function"
    },
    {
      "constant": false,
      "inputs": [],
      "name": "renounceOwnership",
      "outputs": [],
      "payable": false,
      "stateMutability": "nonpayable",
      "type": "function"
    },
    {
      "constant": true,
      "inputs": [],
      "name": "reserveRatio",
      "outputs": [
        {
          "internalType": "uint32",
          "name": "",
          "type": "uint32"
        }
      ],
      "payable": false,
      "stateMutability": "view",
      "type": "function"
    },
    {
      "constant": true,
      "inputs": [],
      "name": "reserveToken",
      "outputs": [
        {
          "internalType": "contract ERC20",
          "name": "",
          "type": "address"
        }
      ],
      "payable": false,
      "stateMutability": "view",
      "type": "function"
    },
    {
      "constant": false,
      "inputs": [
        {
          "internalType": "uint256",
          "name": "newPrice",
          "type": "uint256"
        }
      ],
      "name": "setMaxGasPrice",
      "outputs": [],
      "payable": false,
      "stateMutability": "nonpayable",
      "type": "function"
    },
    {
      "constant": false,
      "inputs": [
        {
          "internalType": "uint256",
          "name": "_amount",
          "type": "uint256"
        }
      ],
      "name": "sponsoredBurn",
      "outputs": [],
      "payable": false,
      "stateMutability": "nonpayable",
      "type": "function"
    },
    {
      "constant": false,
      "inputs": [
        {
          "internalType": "address",
          "name": "_from",
          "type": "address"
        },
        {
          "internalType": "uint256",
          "name": "_amount",
          "type": "uint256"
        }
      ],
      "name": "sponsoredBurnFrom",
      "outputs": [],
      "payable": false,
      "stateMutability": "nonpayable",
      "type": "function"
    },
    {
      "constant": true,
      "inputs": [],
      "name": "symbol",
      "outputs": [
        {
          "internalType": "string",
          "name": "",
          "type": "string"
        }
      ],
      "payable": false,
      "stateMutability": "view",
      "type": "function"
    },
    {
      "constant": true,
      "inputs": [],
      "name": "totalSupply",
      "outputs": [
        {
          "internalType": "uint256",
          "name": "",
          "type": "uint256"
        }
      ],
      "payable": false,
      "stateMutability": "view",
      "type": "function"
    },
    {
      "constant": false,
      "inputs": [
        {
          "internalType": "address",
          "name": "recipient",
          "type": "address"
        },
        {
          "internalType": "uint256",
          "name": "amount",
          "type": "uint256"
        }
      ],
      "name": "transfer",
      "outputs": [
        {
          "internalType": "bool",
          "name": "",
          "type": "bool"
        }
      ],
      "payable": false,
      "stateMutability": "nonpayable",
      "type": "function"
    },
    {
      "constant": false,
      "inputs": [
        {
          "internalType": "address",
          "name": "sender",
          "type": "address"
        },
        {
          "internalType": "address",
          "name": "recipient",
          "type": "address"
        },
        {
          "internalType": "uint256",
          "name": "amount",
          "type": "uint256"
        }
      ],
      "name": "transferFrom",
      "outputs": [
        {
          "internalType": "bool",
          "name": "",
          "type": "bool"
        }
      ],
      "payable": false,
      "stateMutability": "nonpayable",
      "type": "function"
    },
    {
      "constant": false,
      "inputs": [
        {
          "internalType": "address",
          "name": "newOwner",
          "type": "address"
        }
      ],
      "name": "transferOwnership",
      "outputs": [],
      "payable": false,
      "stateMutability": "nonpayable",
      "type": "function"
    },
    {
      "constant": true,
      "inputs": [],
      "name": "version",
      "outputs": [
        {
          "internalType": "string",
          "name": "",
          "type": "string"
        }
      ],
      "payable": false,
      "stateMutability": "view",
      "type": "function"
    },
    {
      "constant": false,
      "inputs": [
        {
          "internalType": "uint256",
          "name": "_amount",
          "type": "uint256"
        }
      ],
      "name": "mint",
      "outputs": [],
      "payable": false,
      "stateMutability": "nonpayable",
      "type": "function"
    },
    {
      "constant": false,
      "inputs": [
        {
          "internalType": "uint256",
          "name": "_amount",
          "type": "uint256"
        }
      ],
      "name": "burn",
      "outputs": [],
      "payable": false,
      "stateMutability": "nonpayable",
      "type": "function"
    },
    {
      "constant": true,
      "inputs": [],
      "name": "reserveBalance",
      "outputs": [
        {
          "internalType": "uint256",
          "name": "",
          "type": "uint256"
        }
      ],
      "payable": false,
      "stateMutability": "view",
      "type": "function"
    }
  ],
  "bytecode": "0x60c06040526003608081905262302e3360e81b60a090815262000026916007919062000b7d565b50670de0b6b3a76400006089553480156200004057600080fd5b50604051620038c3380380620038c3833981810160405260c08110156200006657600080fd5b81019080805160405193929190846401000000008211156200008757600080fd5b9083019060208201858111156200009d57600080fd5b8251640100000000811182820188101715620000b857600080fd5b82525081516020918201929091019080838360005b83811015620000e7578181015183820152602001620000cd565b50505050905090810190601f168015620001155780820380516001836020036101000a031916815260200191505b50604052602001805160405193929190846401000000008211156200013957600080fd5b9083019060208201858111156200014f57600080fd5b82516401000000008111828201881017156200016a57600080fd5b82525081516020918201929091019080838360005b83811015620001995781810151838201526020016200017f565b50505050905090810190601f168015620001c75780820380516001836020036101000a031916815260200191505b506040908152602082015190820151606083015160809093015191945092508585858585808585856000620002046001600160e01b0362000a1116565b600080546001600160a01b0319166001600160a01b0383169081178255604051929350917f8be0079c531659141344cd1fd0a4f28419497f9722a3daafe3b4186f6b6457e0908290a35082516200026390600490602086019062000b7d565b5081516200027990600590602085019062000b7d565b506006805460ff191660ff9290921691909117905550506001641c35fedd1560601b036028556001646c3390ecc9605e1b036029556001640cf801476160611b03602a5560016431bdb23e1d605f1b03602b5560016502fb1d8fe083605b1b03602c5560016505b771955b37605a1b03602d556001650af67a93bb5160591b03602e5560016515060c256cb360581b03602f556001651428a2f98d7360581b036030556001654d515663970960561b03603155600165944620b0e70f60551b03603255600166011c592761c66760541b0360335560016602214d10d014eb60531b03603455600166020ade36b7dbef60531b0360355560016603eab73b3bbfe360521b036036556001660782ee3593f6d760511b036037556001661ccf4b44bb4821604f1b0360385560016606e7f88ad8a77760511b0360395560016669f3d1c921891d604d1b03603a55600166cb2ff529eb71e5604c1b03603b55600166c2d415c3db974b604c1b03603c5560016702eb40f9f620fda7604a1b03603d5560016705990681d961a1eb60491b03603e55600167055e12902701414760491b03603f5560016714962dee9dc9764160471b0360405560016704ef57b9b560fab560491b0360415560016712ed7b32a58f552b60471b036042556001679131271922eaa60760441b036043556001678b380f3558668c4760441b036044556001680215f77c045fbe885760421b036045556001600160831b036046556001670f577eded5773a1160471b036047556001680eb5ec597592befbf5603f1b036048556001681c35fedd14b861eb05603e1b036049556001683619c87664579bc94b603d1b03604a5560016867c00a3b07ffc01fd7603c1b03604b55600168c6f6c8f8739773a7a5603b1b03604c55600168bec763f8209b7a72b1603b1b03604d5560016902dbb8caad9b7097b91b60391b03604e55600169057b3d49dda84556d6f760381b03604f55600169054183095b2c8ececf3160381b036050556001690a14517cc6b9457111ef60371b0360515560016913545598e5c23276ccf160361b036052556001692511882c39c3adea96ff60351b03605355600169471649d87199aa99075760341b036054557004429a21a029d4c1457cfbffffffffffff605555700415bc6d6fb7dd71af2cb3ffffffffffff6056557003eab73b3bbfe282243ce1ffffffffffff6057557003c1771ac9fb6b4c18e229ffffffffffff605855700399e96897690418f785257fffffffffff605955700373fc456c53bb779bf0ea9fffffffffff605a5570034f9e8e490c48e67e6ab8bfffffffffff605b5570032cbfd4a7adc790560b3337ffffffffff605c5570030b50570f6e5d2acca94613ffffffffff605d557002eb40f9f620fda6b56c2861ffffffffff605e557002cc8340ecb0d0f520a6af58ffffffffff605f557002af09481380a0a35cf1ba02ffffffffff606055700292c5bdd3b92ec810287b1b3fffffffff606155700277abdcdab07d5a77ac6d6b9fffffffff60625570025daf6654b1eaa55fd64df5efffffffff606355700244c49c648baa98192dce88b7ffffffff60645570022ce03cd5619a311b2471268bffffffff606555700215f77c045fbe885654a44a0fffffffff6066556001600160811b036067557001eaefdbdaaee7421fc4d3ede5ffffffff6068557001d6bd8b2eb257df7e8ca57b09bfffffff6069557001c35fedd14b861eb0443f7f133fffffff606a557001b0ce43b322bcde4a56e8ada5afffffff606b5570019f0028ec1fff007f5a195a39dfffffff606c5570018ded91f0e72ee74f49b15ba527ffffff606d5570017d8ec7f04136f4e5615fd41a63ffffff606e5570016ddc6556cdb84bdc8d12d22e6fffffff606f5570015ecf52776a1155b5bd8395814f7fffff60705570015060c256cb23b3b3cc3754cf40ffffff6071557001428a2f98d728ae223ddab715be3fffff60725570013545598e5c23276ccf0ede68034fffff6073557001288c4161ce1d6f54b7f61081194fffff60745570011c592761c666aa641d5a01a40f17ffff607555700110a688680a7530515f3e6e6cfdcdffff6076557001056f1b5bedf75c6bcb2ce8aed428ffff6077556ffaadceceeff8a0890f3875f008277fff6078556ff05dc6b27edad306388a600f6ba0bfff6079556fe67a5a25da41063de1495d5b18cdbfff607a556fdcff115b14eedde6fc3aa5353f2e4fff607b556fd3e7a3924312399f9aae2e0f868f8fff607c556fcb2ff529eb71e41582cccd5a1ee26fff607d556fc2d415c3db974ab32a51840c0b67edff607e556fbad03e7d883f69ad5b0a186184e06bff607f556fb320d03b2c343d4829abd6075f0cc5ff6080556fabc25204e02828d73c6e80bcdb1a95bf6081556fa4b16f74ee4bb2040a1ec6c15fbbf2df6082556f9deaf736ac1f569deb1b5ae3f36c130f6083556f976bd9952c7aa957f5937d790ef650376084556f9131271922eaa6064b73a22d0bd4f2bf6085556f8b380f3558668c46c91c49a2f8e967b96086556f857ddf0117efa215952912839f6473e66087556088805463ffffffff191663ffffffff92909216919091179055620009df338362000a16565b5050608a80546001600160a01b0319166001600160a01b0395909516949094179093555062000c1f9650505050505050565b335b90565b6001600160a01b03821662000a72576040805162461bcd60e51b815260206004820152601f60248201527f45524332303a206d696e7420746f20746865207a65726f206164647265737300604482015290519081900360640190fd5b62000a8e8160035462000b1b60201b620014ac1790919060201c565b6003556001600160a01b03821660009081526001602090815260409091205462000ac3918390620014ac62000b1b821b17901c565b6001600160a01b03831660008181526001602090815260408083209490945583518581529351929391927fddf252ad1be2c89b69c2b068fc378daa952ba7f163c4a11628f55a4df523b3ef9281900390910190a35050565b60008282018381101562000b76576040805162461bcd60e51b815260206004820152601b60248201527f536166654d6174683a206164646974696f6e206f766572666c6f770000000000604482015290519081900360640190fd5b9392505050565b828054600181600116156101000203166002900490600052602060002090601f016020900481019282601f1062000bc057805160ff191683800117855562000bf0565b8280016001018555821562000bf0579182015b8281111562000bf057825182559160200191906001019062000bd3565b5062000bfe92915062000c02565b5090565b62000a1391905b8082111562000bfe576000815560010162000c09565b612c948062000c2f6000396000f3fe608060405234801561001057600080fd5b50600436106101da5760003560e01c80637cbed3e011610104578063a457c2d7116100a2578063da12457a11610071578063da12457a146105b7578063dd62ed3e146105bf578063f2fde38b146105ed578063f4325d6714610613576101da565b8063a457c2d714610516578063a9059cbb14610542578063b265c7021461056e578063d2fa635e1461059a576101da565b806395d89b41116100de57806395d89b41146104cc57806396343886146104d4578063a0712d68146104f1578063a10954fe1461050e576101da565b80637cbed3e0146104835780638da5cb5b146104a05780638f32d59b146104c4576101da565b8063313ce5671161017c57806349f9b0f71161014b57806349f9b0f71461041857806354fd4d501461044d57806370a0823114610455578063715018a61461047b576101da565b8063313ce567146103a757806339509351146103c55780633de39c11146103f157806342966c68146103f9576101da565b80630d8f9f7f116101b85780630d8f9f7f1461030557806318160ddd1461033457806323b872dd1461033c57806329a00e7c14610372576101da565b806306fdde0314610227578063095ea7b3146102a45780630c7d5cd8146102e4575b6040805162461bcd60e51b815260206004820152601e60248201527f43616e6e6f742063616c6c2066616c6c6261636b2066756e6374696f6e2e0000604482015290519081900360640190fd5b61022f61061b565b6040805160208082528351818301528351919283929083019185019080838360005b83811015610269578181015183820152602001610251565b50505050905090810190601f1680156102965780820380516001836020036101000a031916815260200191505b509250505060405180910390f35b6102d0600480360360408110156102ba57600080fd5b506001600160a01b0381351690602001356106b1565b604080519115158252519081900360200190f35b6102ec6106cf565b6040805163ffffffff9092168252519081900360200190f35b6103226004803603602081101561031b57600080fd5b50356106db565b60408051918252519081900360200190f35b610322610707565b6102d06004803603606081101561035257600080fd5b506001600160a01b0381358116916020810135909116906040013561070d565b6103226004803603608081101561038857600080fd5b5080359060208101359063ffffffff604082013516906060013561079a565b6103af6108cb565b6040805160ff9092168252519081900360200190f35b6102d0600480360360408110156103db57600080fd5b506001600160a01b0381351690602001356108d4565b610322610928565b6104166004803603602081101561040f57600080fd5b503561092e565b005b6103226004803603608081101561042e57600080fd5b5080359060208101359063ffffffff6040820135169060600135610a2a565b61022f610b67565b6103226004803603602081101561046b57600080fd5b50356001600160a01b0316610bf5565b610416610c10565b6103226004803603602081101561049957600080fd5b5035610ccb565b6104a8610cef565b604080516001600160a01b039092168252519081900360200190f35b6102d0610cfe565b61022f610d22565b610416600480360360208110156104ea57600080fd5b5035610d83565b6104166004803603602081101561050757600080fd5b5035610dd0565b610322610eb7565b6102d06004803603604081101561052c57600080fd5b506001600160a01b038135169060200135610f4c565b6102d06004803603604081101561055857600080fd5b506001600160a01b038135169060200135610fba565b6104166004803603604081101561058457600080fd5b506001600160a01b038135169060200135610fce565b610416600480360360208110156105b057600080fd5b503561101c565b61032261107a565b610322600480360360408110156105d557600080fd5b506001600160a01b0381358116916020013516611089565b6104166004803603602081101561060357600080fd5b50356001600160a01b03166110b4565b6104a8611116565b60048054604080516020601f60026000196101006001881615020190951694909404938401819004810282018101909252828152606093909290918301828280156106a75780601f1061067c576101008083540402835291602001916106a7565b820191906000526020600020905b81548152906001019060200180831161068a57829003601f168201915b5050505050905090565b60006106c56106be611125565b8484611129565b5060015b92915050565b60885463ffffffff1681565b60006106ff6106e861107a565b6106f0610eb7565b60885463ffffffff168561079a565b90505b919050565b60035490565b600061071a848484611215565b61079084610726611125565b61078b85604051806060016040528060288152602001612b85602891396001600160a01b038a16600090815260026020526040812090610764611125565b6001600160a01b03168152602081019190915260400160002054919063ffffffff61137316565b611129565b5060019392505050565b600080851180156107ab5750600084115b80156107bd575060008363ffffffff16115b80156107d25750620f424063ffffffff841611155b610823576040805162461bcd60e51b815260206004820152600f60248201527f496e76616c696420696e707574732e0000000000000000000000000000000000604482015290519081900360640190fd5b81610830575060006108c3565b63ffffffff8316620f424014156108685761086184610855878563ffffffff61140a16565b9063ffffffff61146a16565b90506108c3565b6000808061087c858863ffffffff6114ac16565b905061088d818888620f4240611506565b9093509150600060ff83166108a88a8663ffffffff61140a16565b901c90506108bc818a63ffffffff61168f16565b9450505050505b949350505050565b60065460ff1690565b60006106c56108e1611125565b8461078b85600260006108f2611125565b6001600160a01b03908116825260208083019390935260409182016000908120918c16815292529020549063ffffffff6114ac16565b60895481565b6000610939826116d1565b608a54604080517fa9059cbb0000000000000000000000000000000000000000000000000000000081523360048201526024810184905290519293506001600160a01b039091169163a9059cbb916044808201926020929091908290030181600087803b1580156109a957600080fd5b505af11580156109bd573d6000803e3d6000fd5b505050506040513d60208110156109d357600080fd5b5051610a26576040805162461bcd60e51b815260206004820152601d60248201527f6275726e28292045524332302e7472616e73666572206661696c65642e000000604482015290519081900360640190fd5b5050565b60008085118015610a3b5750600084115b8015610a4d575060008363ffffffff16115b8015610a625750620f424063ffffffff841611155b8015610a6e5750848211155b610abf576040805162461bcd60e51b815260206004820152600f60248201527f496e76616c696420696e707574732e0000000000000000000000000000000000604482015290519081900360640190fd5b81610acc575060006108c3565b84821415610adb5750826108c3565b63ffffffff8316620f42401415610b005761086185610855868563ffffffff61140a16565b60008080610b14888663ffffffff61168f16565b9050610b258882620f424089611506565b90935091506000610b3c888563ffffffff61140a16565b905060ff831688901b610b5985610855848463ffffffff61168f16565b9a9950505050505050505050565b6007805460408051602060026001851615610100026000190190941693909304601f81018490048402820184019092528181529291830182828015610bed5780601f10610bc257610100808354040283529160200191610bed565b820191906000526020600020905b815481529060010190602001808311610bd057829003601f168201915b505050505081565b6001600160a01b031660009081526001602052604090205490565b610c18610cfe565b610c69576040805162461bcd60e51b815260206004820181905260248201527f4f776e61626c653a2063616c6c6572206973206e6f7420746865206f776e6572604482015290519081900360640190fd5b600080546040516001600160a01b03909116907f8be0079c531659141344cd1fd0a4f28419497f9722a3daafe3b4186f6b6457e0908390a3600080547fffffffffffffffffffffffff0000000000000000000000000000000000000000169055565b60006106ff610cd861107a565b610ce0610eb7565b60885463ffffffff1685610a2a565b6000546001600160a01b031690565b600080546001600160a01b0316610d13611125565b6001600160a01b031614905090565b60058054604080516020601f60026000196101006001881615020190951694909404938401819004810282018101909252828152606093909290918301828280156106a75780601f1061067c576101008083540402835291602001916106a7565b610d8d3382611823565b604080513381526020810183905260008183015290517f23ff0e75edf108e3d0392d92e13e8c8a868ef19001bd49f9e94876dc46dff87f9181900360600190a150565b610dd98161191f565b50608a54604080517f23b872dd0000000000000000000000000000000000000000000000000000000081523360048201523060248201526044810184905290516001600160a01b03909216916323b872dd916064808201926020929091908290030181600087803b158015610e4d57600080fd5b505af1158015610e61573d6000803e3d6000fd5b505050506040513d6020811015610e7757600080fd5b5051610eb45760405162461bcd60e51b8152600401808060200182810382526021815260200180612a6b6021913960400191505060405180910390fd5b50565b608a54604080517f70a0823100000000000000000000000000000000000000000000000000000000815230600482015290516000926001600160a01b0316916370a08231916024808301926020929190829003018186803b158015610f1b57600080fd5b505afa158015610f2f573d6000803e3d6000fd5b505050506040513d6020811015610f4557600080fd5b5051905090565b60006106c5610f59611125565b8461078b85604051806060016040528060258152602001612c3b6025913960026000610f83611125565b6001600160a01b03908116825260208083019390935260409182016000908120918d1681529252902054919063ffffffff61137316565b60006106c5610fc7611125565b8484611215565b610fd88282611a14565b604080513381526020810183905260008183015290517f23ff0e75edf108e3d0392d92e13e8c8a868ef19001bd49f9e94876dc46dff87f9181900360600190a15050565b611024610cfe565b611075576040805162461bcd60e51b815260206004820181905260248201527f4f776e61626c653a2063616c6c6572206973206e6f7420746865206f776e6572604482015290519081900360640190fd5b608955565b6000611084610707565b905090565b6001600160a01b03918216600090815260026020908152604080832093909416825291909152205490565b6110bc610cfe565b61110d576040805162461bcd60e51b815260206004820181905260248201527f4f776e61626c653a2063616c6c6572206973206e6f7420746865206f776e6572604482015290519081900360640190fd5b610eb481611a68565b608a546001600160a01b031681565b3390565b6001600160a01b03831661116e5760405162461bcd60e51b8152600401808060200182810382526024815260200180612c176024913960400191505060405180910390fd5b6001600160a01b0382166111b35760405162461bcd60e51b8152600401808060200182810382526022815260200180612ad46022913960400191505060405180910390fd5b6001600160a01b03808416600081815260026020908152604080832094871680845294825291829020859055815185815291517f8c5be1e5ebec7d5bd14f71427d1e84f3dd0314c0f7b2291e5b200ac8c7c3b9259281900390910190a3505050565b6001600160a01b03831661125a5760405162461bcd60e51b8152600401808060200182810382526025815260200180612bf26025913960400191505060405180910390fd5b6001600160a01b03821661129f5760405162461bcd60e51b8152600401808060200182810382526023815260200180612a486023913960400191505060405180910390fd5b6112e281604051806060016040528060268152602001612b3e602691396001600160a01b038616600090815260016020526040902054919063ffffffff61137316565b6001600160a01b038085166000908152600160205260408082209390935590841681522054611317908263ffffffff6114ac16565b6001600160a01b0380841660008181526001602090815260409182902094909455805185815290519193928716927fddf252ad1be2c89b69c2b068fc378daa952ba7f163c4a11628f55a4df523b3ef92918290030190a3505050565b600081848411156114025760405162461bcd60e51b81526004018080602001828103825283818151815260200191508051906020019080838360005b838110156113c75781810151838201526020016113af565b50505050905090810190601f1680156113f45780820380516001836020036101000a031916815260200191505b509250505060405180910390fd5b505050900390565b600082611419575060006106c9565b8282028284828161142657fe5b04146114635760405162461bcd60e51b8152600401808060200182810382526021815260200180612b646021913960400191505060405180910390fd5b9392505050565b600061146383836040518060400160405280601a81526020017f536166654d6174683a206469766973696f6e206279207a65726f000000000000815250611b20565b600082820183811015611463576040805162461bcd60e51b815260206004820152601b60248201527f536166654d6174683a206164646974696f6e206f766572666c6f770000000000604482015290519081900360640190fd5b600080700200000000000000000000000000000000861061156e576040805162461bcd60e51b815260206004820152601860248201527f626173654e2065786365656473206d61782076616c75652e0000000000000000604482015290519081900360640190fd5b848610156115c3576040805162461bcd60e51b815260206004820152601c60248201527f4261736573203c203120617265206e6f7420737570706f727465642e00000000604482015290519081900360640190fd5b600080866001607f1b8902816115d557fe5b04905070015bf0a8b1457695355fb8ac404e7a79e3811015611601576115fa81611b85565b915061160d565b61160a81612030565b91505b60008563ffffffff168763ffffffff1684028161162657fe5b0490507008000000000000000000000000000000008110156116595761164b816120e0565b607f94509450505050611686565b6000611664826124c2565b905061167981607f0360ff1683901c82612554565b9550935061168692505050565b94509492505050565b600061146383836040518060400160405280601e81526020017f536166654d6174683a207375627472616374696f6e206f766572666c6f770000815250611373565b60006089543a11156117145760405162461bcd60e51b8152600401808060200182810382526048815260200180612af66048913960600191505060405180910390fd5b60008211611769576040805162461bcd60e51b815260206004820152601860248201527f416d6f756e74206d757374206265206e6f6e2d7a65726f2e0000000000000000604482015290519081900360640190fd5b8161177333610bf5565b10156117c6576040805162461bcd60e51b815260206004820152601c60248201527f496e73756666696369656e7420746f6b656e7320746f206275726e2e00000000604482015290519081900360640190fd5b60006117d183610ccb565b90506117dd3384611823565b604080513381526020810185905280820183905290517f23ff0e75edf108e3d0392d92e13e8c8a868ef19001bd49f9e94876dc46dff87f9181900360600190a192915050565b6001600160a01b0382166118685760405162461bcd60e51b8152600401808060200182810382526021815260200180612bd16021913960400191505060405180910390fd5b6118ab81604051806060016040528060228152602001612a8c602291396001600160a01b038516600090815260016020526040902054919063ffffffff61137316565b6001600160a01b0383166000908152600160205260409020556003546118d7908263ffffffff61168f16565b6003556040805182815290516000916001600160a01b038516917fddf252ad1be2c89b69c2b068fc378daa952ba7f163c4a11628f55a4df523b3ef9181900360200190a35050565b60006089543a11156119625760405162461bcd60e51b8152600401808060200182810382526048815260200180612af66048913960600191505060405180910390fd5b600082116119b7576040805162461bcd60e51b815260206004820152601960248201527f4465706f736974206d757374206265206e6f6e2d7a65726f2e00000000000000604482015290519081900360640190fd5b60006119c2836106db565b90506119ce33826128f1565b604080513381526020810183905280820185905290517f25b428dfde728ccfaddad7e29e4ac23c24ed7fd1a6e3e3f91894a9a073f5dfff9181900360600190a192915050565b611a1e8282611823565b610a2682611a2a611125565b61078b84604051806060016040528060248152602001612bad602491396001600160a01b038816600090815260026020526040812090610764611125565b6001600160a01b038116611aad5760405162461bcd60e51b8152600401808060200182810382526026815260200180612aae6026913960400191505060405180910390fd5b600080546040516001600160a01b03808516939216917f8be0079c531659141344cd1fd0a4f28419497f9722a3daafe3b4186f6b6457e091a3600080547fffffffffffffffffffffffff0000000000000000000000000000000000000000166001600160a01b0392909216919091179055565b60008183611b6f5760405162461bcd60e51b81526020600482018181528351602484015283519092839260449091019190850190808383600083156113c75781810151838201526020016113af565b506000838581611b7b57fe5b0495945050505050565b6000808080806fd3094c70f034de4b96ff7d5b6f99fcd88610611bda576f40000000000000000000000000000000840193506fd3094c70f034de4b96ff7d5b6f99fcd86001607f1b870281611bd657fe5b0495505b6fa45af1e1f40c333b3de1db4dd55f29a78610611c29576f20000000000000000000000000000000840193506fa45af1e1f40c333b3de1db4dd55f29a76001607f1b870281611c2557fe5b0495505b6f910b022db7ae67ce76b441c27035c6a18610611c78576f10000000000000000000000000000000840193506f910b022db7ae67ce76b441c27035c6a16001607f1b870281611c7457fe5b0495505b6f88415abbe9a76bead8d00cf112e4d4a88610611cc7576f08000000000000000000000000000000840193506f88415abbe9a76bead8d00cf112e4d4a86001607f1b870281611cc357fe5b0495505b6f84102b00893f64c705e841d5d4064bd38610611d16576f04000000000000000000000000000000840193506f84102b00893f64c705e841d5d4064bd36001607f1b870281611d1257fe5b0495505b6f8204055aaef1c8bd5c3259f4822735a28610611d65576f02000000000000000000000000000000840193506f8204055aaef1c8bd5c3259f4822735a26001607f1b870281611d6157fe5b0495505b6f810100ab00222d861931c15e39b44e998610611db4576f01000000000000000000000000000000840193506f810100ab00222d861931c15e39b44e996001607f1b870281611db057fe5b0495505b6f808040155aabbbe9451521693554f7338610611e02576e800000000000000000000000000000840193506f808040155aabbbe9451521693554f7336001607f1b870281611dfe57fe5b0495505b7fffffffffffffffffffffffffffffffff80000000000000000000000000000000860192508291506001607f1b828002049050600160801b838103830204840193506001607f1b81830281611e5357fe5b049150700200000000000000000000000000000000836faaaaaaaaaaaaaaaaaaaaaaaaaaaaaaaa03830281611e8457fe5b04840193506001607f1b81830281611e9857fe5b049150700300000000000000000000000000000000836f9999999999999999999999999999999903830281611ec957fe5b04840193506001607f1b81830281611edd57fe5b049150700400000000000000000000000000000000836f9249249249249249249249249249249203830281611f0e57fe5b04840193506001607f1b81830281611f2257fe5b049150700500000000000000000000000000000000836f8e38e38e38e38e38e38e38e38e38e38e03830281611f5357fe5b04840193506001607f1b81830281611f6757fe5b049150700600000000000000000000000000000000836f8ba2e8ba2e8ba2e8ba2e8ba2e8ba2e8b03830281611f9857fe5b04840193506001607f1b81830281611fac57fe5b049150700700000000000000000000000000000000836f89d89d89d89d89d89d89d89d89d89d8903830281611fdd57fe5b04840193506001607f1b81830281611ff157fe5b049150700800000000000000000000000000000000836f888888888888888888888888888888880383028161202257fe5b049390930195945050505050565b60008082600160801b81106120635760006120506001607f1b83046129e3565b60ff166001607f1b810293509190911c90505b6001607f1b8111156120b357607f5b60ff8116156120b1576001607f1b828002049150600160801b82106120a857600182901c91506001810360ff166001901b830192505b60001901612072565b505b6f05b9de1d10bf4103d647b0955897ba806f03f80fe03f80fe03f80fe03f80fe03f8830204949350505050565b6000670168244fdac780006001607f1b6f0fffffffffffffffffffffffffffffff84168080028290048082028390048083028490049485026710e1b3be415a00009092026705a0913f6b1e000091909102010192909181830204905080664807432bc1800002830192506001607f1b8282028161215957fe5b04905080660c0135dca0400002830192506001607f1b8282028161217957fe5b049050806601b707b1cdc00002830192506001607f1b8282028161219957fe5b049050806536e0f639b80002830192506001607f1b828202816121b857fe5b04905080650618fee9f80002830192506001607f1b828202816121d757fe5b04905080649c197dcc0002830192506001607f1b828202816121f557fe5b04905080640e30dce40002830192506001607f1b8282028161221357fe5b0490508064012ebd130002830192506001607f1b8282028161223157fe5b049050806317499f0002830192506001607f1b8282028161224e57fe5b049050806301a9d48002830192506001607f1b8282028161226b57fe5b04905080621c638002830192506001607f1b8282028161228757fe5b049050806201c63802830192506001607f1b828202816122a357fe5b04905080611ab802830192506001607f1b828202816122be57fe5b0490508061017c02830192506001607f1b828202816122d957fe5b04905080601402830192506001607f1b828202816122f357fe5b6721c3677c82b400009190049384010482016001607f1b019290506f100000000000000000000000000000008516156123505770018ebef9eac820ae8682b9793ac6d1e7767001c3d6a24ed82218787d624d3e5eba95f984020492505b6f20000000000000000000000000000000851615612392577001368b2fc6f9609fe7aceb46aa619baed470018ebef9eac820ae8682b9793ac6d1e77884020492505b6f400000000000000000000000000000008516156123d3576fbc5ab1b16779be3575bd8f0520a9f21f7001368b2fc6f9609fe7aceb46aa619baed584020492505b6001607f1b851615612407576f454aaa8efe072e7f6ddbab84b40a55c96fbc5ab1b16779be3575bd8f0520a9f21e84020492505b600160801b85161561243b576f0960aadc109e7a3bf4578099615711ea6f454aaa8efe072e7f6ddbab84b40a55c584020492505b70020000000000000000000000000000000085161561247b576e2bf84208204f5977f9a8cf01fdce3d6f0960aadc109e7a3bf4578099615711d784020492505b7004000000000000000000000000000000008516156124b9576d03c6ab775dd0b95b4cbee7e65d116e2bf84208204f5977f9a8cf01fdc30784020492505b50909392505050565b60006020607f5b8060ff168260010160ff161015612511576000600260ff848401160490508460088260ff16608081106124f857fe5b0154106125075780925061250b565b8091505b506124c9565b8360088260ff166080811061252257fe5b0154106125325791506107029050565b8360088360ff166080811061254357fe5b01541061255257509050610702565bfe5b60008083905060008090508360ff16858302901c9150816f03442c4e6074a82f1797f72ac000000002810190508360ff16858302901c9150816f0116b96f757c380fb287fd0e4000000002810190508360ff16858302901c9150816e45ae5bdd5f0e03eca1ff439000000002810190508360ff16858302901c9150816e0defabf91302cd95b9ffda5000000002810190508360ff16858302901c9150816e02529ca9832b22439efff9b800000002810190508360ff16858302901c9150816d54f1cf12bd04e516b6da8800000002810190508360ff16858302901c9150816d0a9e39e257a09ca2d6db5100000002810190508360ff16858302901c9150816d012e066e7b839fa050c30900000002810190508360ff16858302901c9150816c1e33d7d926c329a1ad1a80000002810190508360ff16858302901c9150816c02bee513bdb4a6b19b5f80000002810190508360ff16858302901c9150816b3a9316fa79b88eccf2a0000002810190508360ff16858302901c9150816b048177ebe1fa81237520000002810190508360ff16858302901c9150816a5263fe90242dcbacf0000002810190508360ff16858302901c9150816a057e22099c030d9410000002810190508360ff16858302901c9150816957e22099c030d941000002810190508360ff16858302901c91508169052b6b5456997631000002810190508360ff16858302901c915081684985f67696bf74800002810190508360ff16858302901c9150816803dea12ea99e49800002810190508360ff16858302901c9150816731880f2214b6e00002810190508360ff16858302901c91508167025bcff56eb3600002810190508360ff16858302901c915081661b722e10ab100002810190508360ff16858302901c9150816601317c7007700002810190508360ff16858302901c915081650cba84aafa0002810190508360ff16858302901c9150816482573a0a0002810190508360ff16858302901c9150816405035ad90002810190508360ff16858302901c915081632f881b0002810190508360ff16858302901c9150816301b2934002810190508360ff16858302901c915081620efc4002810190508360ff16858302901c915081617fe002810190508360ff16858302901c91508161042002810190508360ff16858302901c915081602102810190508360ff16858302901c915081600102810190508360ff166001901b856f0688589cc0e9505e2f2fee558000000083816128e557fe5b04010195945050505050565b6001600160a01b03821661294c576040805162461bcd60e51b815260206004820152601f60248201527f45524332303a206d696e7420746f20746865207a65726f206164647265737300604482015290519081900360640190fd5b60035461295f908263ffffffff6114ac16565b6003556001600160a01b03821660009081526001602052604090205461298b908263ffffffff6114ac16565b6001600160a01b03831660008181526001602090815260408083209490945583518581529351929391927fddf252ad1be2c89b69c2b068fc378daa952ba7f163c4a11628f55a4df523b3ef9281900390910190a35050565b60008082610100811015612a0c575b6001811115612a07576001918201911c6129f2565b612a40565b60805b60ff811615612a3e57600160ff82161b8210612a33579182179160ff81169190911c905b60011c607f16612a0f565b505b509291505056fe45524332303a207472616e7366657220746f20746865207a65726f20616464726573736d696e7428292045524332302e7472616e7366657246726f6d206661696c65642e45524332303a206275726e20616d6f756e7420657863656564732062616c616e63654f776e61626c653a206e6577206f776e657220697320746865207a65726f206164647265737345524332303a20617070726f766520746f20746865207a65726f2061646472657373476173207072696365206d757374206265203c3d206d6178696d756d2067617320707269636520746f2070726576656e742066726f6e742072756e6e696e672061747461636b732e45524332303a207472616e7366657220616d6f756e7420657863656564732062616c616e6365536166654d6174683a206d756c7469706c69636174696f6e206f766572666c6f7745524332303a207472616e7366657220616d6f756e74206578636565647320616c6c6f77616e636545524332303a206275726e20616d6f756e74206578636565647320616c6c6f77616e636545524332303a206275726e2066726f6d20746865207a65726f206164647265737345524332303a207472616e736665722066726f6d20746865207a65726f206164647265737345524332303a20617070726f76652066726f6d20746865207a65726f206164647265737345524332303a2064656372656173656420616c6c6f77616e63652062656c6f77207a65726fa265627a7a723158202ba11c32916c02de48dabacc6ea5e156ef54208dc78675592d0b3ca307828b2a64736f6c63430005100032",
  "source": "pragma solidity ^0.5.2;\n\nimport \"./ContinuousToken.sol\";\n\ncontract ERC20ContinuousToken is ContinuousToken {\n    ERC20 public reserveToken;\n\n    constructor(\n        string memory _name,\n        string memory _symbol,\n        uint8 _decimals,\n        uint _initialSupply,\n        uint32 _reserveRatio,\n        ERC20 _reserveToken\n    ) public ContinuousToken(_name, _symbol, _decimals, _initialSupply, _reserveRatio) {\n        reserveToken = _reserveToken;\n    }\n\n    function () external { revert(\"Cannot call fallback function.\"); }\n\n    function mint(uint _amount) public {\n        _continuousMint(_amount);\n        require(reserveToken.transferFrom(msg.sender, address(this), _amount), \"mint() ERC20.transferFrom failed.\");\n    }\n\n    function burn(uint _amount) public {\n        uint returnAmount = _continuousBurn(_amount);\n        require(reserveToken.transfer(msg.sender, returnAmount), \"burn() ERC20.transfer failed.\");\n    }\n\n    function reserveBalance() public view returns (uint) {\n        return reserveToken.balanceOf(address(this));\n    }\n}",
  "sourcePath": "/Users/jzstern/Go on.... GIT/bound/truffle/contracts/token/ERC20ContinuousToken.sol",
  "compiler": {
    "name": "solc",
    "version": "0.5.16+commit.9c3226ce.Emscripten.clang"
  },
  "schemaVersion": "3.0.23",
  "updatedAt": "2020-02-16T12:52:29.793Z",
  "devdoc": {
    "methods": {
      "allowance(address,address)": {
        "details": "See {IERC20-allowance}."
      },
      "approve(address,uint256)": {
        "details": "See {IERC20-approve}.     * Requirements:     * - `spender` cannot be the zero address."
      },
      "balanceOf(address)": {
        "details": "See {IERC20-balanceOf}."
      },
      "calculatePurchaseReturn(uint256,uint256,uint32,uint256)": {
        "details": "given a continuous token supply, reserve token balance, reserve ratio, and a deposit amount (in the reserve token), calculates the return for a given conversion (in the continuous token)    * Formula: Return = _supply * ((1 + _depositAmount / _reserveBalance) ^ (_reserveRatio / MAX_RESERVE_RATIO) - 1)",
        "params": {
          "_depositAmount": "deposit amount, in reserve token",
          "_reserveBalance": "total reserve token balance",
          "_reserveRatio": "reserve ratio, represented in ppm, 1-1000000",
          "_supply": "continuous token total supply"
        },
        "return": "purchase return amount"
      },
      "calculateSaleReturn(uint256,uint256,uint32,uint256)": {
        "details": "given a continuous token supply, reserve token balance, reserve ratio and a sell amount (in the continuous token), calculates the return for a given conversion (in the reserve token)    * Formula: Return = _reserveBalance * (1 - (1 - _sellAmount / _supply) ^ (1 / (_reserveRatio / MAX_RESERVE_RATIO)))",
        "params": {
          "_reserveBalance": "total reserve token balance",
          "_reserveRatio": "constant reserve ratio, represented in ppm, 1-1000000",
          "_sellAmount": "sell amount, in the continuous token itself",
          "_supply": "continuous token total supply"
        },
        "return": "sale return amount"
      },
      "decimals()": {
        "details": "Returns the number of decimals used to get its user representation. For example, if `decimals` equals `2`, a balance of `505` tokens should be displayed to a user as `5,05` (`505 / 10 ** 2`).     * Tokens usually opt for a value of 18, imitating the relationship between Ether and Wei.     * NOTE: This information is only used for _display_ purposes: it in no way affects any of the arithmetic of the contract, including {IERC20-balanceOf} and {IERC20-transfer}."
      },
      "decreaseAllowance(address,uint256)": {
        "details": "Atomically decreases the allowance granted to `spender` by the caller.     * This is an alternative to {approve} that can be used as a mitigation for problems described in {IERC20-approve}.     * Emits an {Approval} event indicating the updated allowance.     * Requirements:     * - `spender` cannot be the zero address. - `spender` must have allowance for the caller of at least `subtractedValue`."
      },
      "increaseAllowance(address,uint256)": {
        "details": "Atomically increases the allowance granted to `spender` by the caller.     * This is an alternative to {approve} that can be used as a mitigation for problems described in {IERC20-approve}.     * Emits an {Approval} event indicating the updated allowance.     * Requirements:     * - `spender` cannot be the zero address."
      },
      "isOwner()": {
        "details": "Returns true if the caller is the current owner."
      },
      "name()": {
        "details": "Returns the name of the token."
      },
      "owner()": {
        "details": "Returns the address of the current owner."
      },
      "renounceOwnership()": {
        "details": "Leaves the contract without owner. It will not be possible to call `onlyOwner` functions anymore. Can only be called by the current owner.     * NOTE: Renouncing ownership will leave the contract without an owner, thereby removing any functionality that is only available to the owner."
      },
      "symbol()": {
        "details": "Returns the symbol of the token, usually a shorter version of the name."
      },
      "totalSupply()": {
        "details": "See {IERC20-totalSupply}."
      },
      "transfer(address,uint256)": {
        "details": "See {IERC20-transfer}.     * Requirements:     * - `recipient` cannot be the zero address. - the caller must have a balance of at least `amount`."
      },
      "transferFrom(address,address,uint256)": {
        "details": "See {IERC20-transferFrom}.     * Emits an {Approval} event indicating the updated allowance. This is not required by the EIP. See the note at the beginning of {ERC20};     * Requirements: - `sender` and `recipient` cannot be the zero address. - `sender` must have a balance of at least `amount`. - the caller must have allowance for `sender`'s tokens of at least `amount`."
      },
      "transferOwnership(address)": {
        "details": "Transfers ownership of the contract to a new account (`newOwner`). Can only be called by the current owner."
      }
    }
  },
  "userdoc": {
    "methods": {}
  }
}