{
  "contractName": "ETHContinuousToken",
  "abi": [
    {
      "inputs": [
        {
          "internalType": "string",
          "name": "_name",
          "type": "string"
        },
        {
          "internalType": "string",
          "name": "_symbol",
          "type": "string"
        },
        {
          "internalType": "uint8",
          "name": "_decimals",
          "type": "uint8"
        },
        {
          "internalType": "uint256",
          "name": "_initialSupply",
          "type": "uint256"
        },
        {
          "internalType": "uint32",
          "name": "_reserveRatio",
          "type": "uint32"
        }
      ],
      "payable": true,
      "stateMutability": "payable",
      "type": "constructor"
    },
    {
      "anonymous": false,
      "inputs": [
        {
          "indexed": true,
          "internalType": "address",
          "name": "owner",
          "type": "address"
        },
        {
          "indexed": true,
          "internalType": "address",
          "name": "spender",
          "type": "address"
        },
        {
          "indexed": false,
          "internalType": "uint256",
          "name": "value",
          "type": "uint256"
        }
      ],
      "name": "Approval",
      "type": "event"
    },
    {
      "anonymous": false,
      "inputs": [
        {
          "indexed": false,
          "internalType": "address",
          "name": "sender",
          "type": "address"
        },
        {
          "indexed": false,
          "internalType": "uint256",
          "name": "amount",
          "type": "uint256"
        },
        {
          "indexed": false,
          "internalType": "uint256",
          "name": "refund",
          "type": "uint256"
        }
      ],
      "name": "Burned",
      "type": "event"
    },
    {
      "anonymous": false,
      "inputs": [
        {
          "indexed": false,
          "internalType": "address",
          "name": "sender",
          "type": "address"
        },
        {
          "indexed": false,
          "internalType": "uint256",
          "name": "amount",
          "type": "uint256"
        },
        {
          "indexed": false,
          "internalType": "uint256",
          "name": "deposit",
          "type": "uint256"
        }
      ],
      "name": "Minted",
      "type": "event"
    },
    {
      "anonymous": false,
      "inputs": [
        {
          "indexed": true,
          "internalType": "address",
          "name": "previousOwner",
          "type": "address"
        },
        {
          "indexed": true,
          "internalType": "address",
          "name": "newOwner",
          "type": "address"
        }
      ],
      "name": "OwnershipTransferred",
      "type": "event"
    },
    {
      "anonymous": false,
      "inputs": [
        {
          "indexed": true,
          "internalType": "address",
          "name": "from",
          "type": "address"
        },
        {
          "indexed": true,
          "internalType": "address",
          "name": "to",
          "type": "address"
        },
        {
          "indexed": false,
          "internalType": "uint256",
          "name": "value",
          "type": "uint256"
        }
      ],
      "name": "Transfer",
      "type": "event"
    },
    {
      "payable": true,
      "stateMutability": "payable",
      "type": "fallback"
    },
    {
      "constant": true,
      "inputs": [
        {
          "internalType": "address",
          "name": "owner",
          "type": "address"
        },
        {
          "internalType": "address",
          "name": "spender",
          "type": "address"
        }
      ],
      "name": "allowance",
      "outputs": [
        {
          "internalType": "uint256",
          "name": "",
          "type": "uint256"
        }
      ],
      "payable": false,
      "stateMutability": "view",
      "type": "function"
    },
    {
      "constant": false,
      "inputs": [
        {
          "internalType": "address",
          "name": "spender",
          "type": "address"
        },
        {
          "internalType": "uint256",
          "name": "amount",
          "type": "uint256"
        }
      ],
      "name": "approve",
      "outputs": [
        {
          "internalType": "bool",
          "name": "",
          "type": "bool"
        }
      ],
      "payable": false,
      "stateMutability": "nonpayable",
      "type": "function"
    },
    {
      "constant": true,
      "inputs": [
        {
          "internalType": "address",
          "name": "account",
          "type": "address"
        }
      ],
      "name": "balanceOf",
      "outputs": [
        {
          "internalType": "uint256",
          "name": "",
          "type": "uint256"
        }
      ],
      "payable": false,
      "stateMutability": "view",
      "type": "function"
    },
    {
      "constant": true,
      "inputs": [
        {
          "internalType": "uint256",
          "name": "_supply",
          "type": "uint256"
        },
        {
          "internalType": "uint256",
          "name": "_reserveBalance",
          "type": "uint256"
        },
        {
          "internalType": "uint32",
          "name": "_reserveRatio",
          "type": "uint32"
        },
        {
          "internalType": "uint256",
          "name": "_depositAmount",
          "type": "uint256"
        }
      ],
      "name": "calculatePurchaseReturn",
      "outputs": [
        {
          "internalType": "uint256",
          "name": "",
          "type": "uint256"
        }
      ],
      "payable": false,
      "stateMutability": "view",
      "type": "function"
    },
    {
      "constant": true,
      "inputs": [
        {
          "internalType": "uint256",
          "name": "_supply",
          "type": "uint256"
        },
        {
          "internalType": "uint256",
          "name": "_reserveBalance",
          "type": "uint256"
        },
        {
          "internalType": "uint32",
          "name": "_reserveRatio",
          "type": "uint32"
        },
        {
          "internalType": "uint256",
          "name": "_sellAmount",
          "type": "uint256"
        }
      ],
      "name": "calculateSaleReturn",
      "outputs": [
        {
          "internalType": "uint256",
          "name": "",
          "type": "uint256"
        }
      ],
      "payable": false,
      "stateMutability": "view",
      "type": "function"
    },
    {
      "constant": true,
      "inputs": [],
      "name": "continuousSupply",
      "outputs": [
        {
          "internalType": "uint256",
          "name": "",
          "type": "uint256"
        }
      ],
      "payable": false,
      "stateMutability": "view",
      "type": "function"
    },
    {
      "constant": true,
      "inputs": [],
      "name": "decimals",
      "outputs": [
        {
          "internalType": "uint8",
          "name": "",
          "type": "uint8"
        }
      ],
      "payable": false,
      "stateMutability": "view",
      "type": "function"
    },
    {
      "constant": false,
      "inputs": [
        {
          "internalType": "address",
          "name": "spender",
          "type": "address"
        },
        {
          "internalType": "uint256",
          "name": "subtractedValue",
          "type": "uint256"
        }
      ],
      "name": "decreaseAllowance",
      "outputs": [
        {
          "internalType": "bool",
          "name": "",
          "type": "bool"
        }
      ],
      "payable": false,
      "stateMutability": "nonpayable",
      "type": "function"
    },
    {
      "constant": true,
      "inputs": [
        {
          "internalType": "uint256",
          "name": "_continuousTokenAmount",
          "type": "uint256"
        }
      ],
      "name": "getContinuousBurnRefund",
      "outputs": [
        {
          "internalType": "uint256",
          "name": "",
          "type": "uint256"
        }
      ],
      "payable": false,
      "stateMutability": "view",
      "type": "function"
    },
    {
      "constant": true,
      "inputs": [
        {
          "internalType": "uint256",
          "name": "_reserveTokenAmount",
          "type": "uint256"
        }
      ],
      "name": "getContinuousMintReward",
      "outputs": [
        {
          "internalType": "uint256",
          "name": "",
          "type": "uint256"
        }
      ],
      "payable": false,
      "stateMutability": "view",
      "type": "function"
    },
    {
      "constant": false,
      "inputs": [
        {
          "internalType": "address",
          "name": "spender",
          "type": "address"
        },
        {
          "internalType": "uint256",
          "name": "addedValue",
          "type": "uint256"
        }
      ],
      "name": "increaseAllowance",
      "outputs": [
        {
          "internalType": "bool",
          "name": "",
          "type": "bool"
        }
      ],
      "payable": false,
      "stateMutability": "nonpayable",
      "type": "function"
    },
    {
      "constant": true,
      "inputs": [],
      "name": "isOwner",
      "outputs": [
        {
          "internalType": "bool",
          "name": "",
          "type": "bool"
        }
      ],
      "payable": false,
      "stateMutability": "view",
      "type": "function"
    },
    {
      "constant": true,
      "inputs": [],
      "name": "maxGasPrice",
      "outputs": [
        {
          "internalType": "uint256",
          "name": "",
          "type": "uint256"
        }
      ],
      "payable": false,
      "stateMutability": "view",
      "type": "function"
    },
    {
      "constant": true,
      "inputs": [],
      "name": "name",
      "outputs": [
        {
          "internalType": "string",
          "name": "",
          "type": "string"
        }
      ],
      "payable": false,
      "stateMutability": "view",
      "type": "function"
    },
    {
      "constant": true,
      "inputs": [],
      "name": "owner",
      "outputs": [
        {
          "internalType": "address",
          "name": "",
          "type": "address"
        }
      ],
      "payable": false,
      "stateMutability": "view",
      "type": "function"
    },
    {
      "constant": false,
      "inputs": [],
      "name": "renounceOwnership",
      "outputs": [],
      "payable": false,
      "stateMutability": "nonpayable",
      "type": "function"
    },
    {
      "constant": true,
      "inputs": [],
      "name": "reserveRatio",
      "outputs": [
        {
          "internalType": "uint32",
          "name": "",
          "type": "uint32"
        }
      ],
      "payable": false,
      "stateMutability": "view",
      "type": "function"
    },
    {
      "constant": false,
      "inputs": [
        {
          "internalType": "uint256",
          "name": "newPrice",
          "type": "uint256"
        }
      ],
      "name": "setMaxGasPrice",
      "outputs": [],
      "payable": false,
      "stateMutability": "nonpayable",
      "type": "function"
    },
    {
      "constant": false,
      "inputs": [
        {
          "internalType": "uint256",
          "name": "_amount",
          "type": "uint256"
        }
      ],
      "name": "sponsoredBurn",
      "outputs": [],
      "payable": false,
      "stateMutability": "nonpayable",
      "type": "function"
    },
    {
      "constant": false,
      "inputs": [
        {
          "internalType": "address",
          "name": "_from",
          "type": "address"
        },
        {
          "internalType": "uint256",
          "name": "_amount",
          "type": "uint256"
        }
      ],
      "name": "sponsoredBurnFrom",
      "outputs": [],
      "payable": false,
      "stateMutability": "nonpayable",
      "type": "function"
    },
    {
      "constant": true,
      "inputs": [],
      "name": "symbol",
      "outputs": [
        {
          "internalType": "string",
          "name": "",
          "type": "string"
        }
      ],
      "payable": false,
      "stateMutability": "view",
      "type": "function"
    },
    {
      "constant": true,
      "inputs": [],
      "name": "totalSupply",
      "outputs": [
        {
          "internalType": "uint256",
          "name": "",
          "type": "uint256"
        }
      ],
      "payable": false,
      "stateMutability": "view",
      "type": "function"
    },
    {
      "constant": false,
      "inputs": [
        {
          "internalType": "address",
          "name": "recipient",
          "type": "address"
        },
        {
          "internalType": "uint256",
          "name": "amount",
          "type": "uint256"
        }
      ],
      "name": "transfer",
      "outputs": [
        {
          "internalType": "bool",
          "name": "",
          "type": "bool"
        }
      ],
      "payable": false,
      "stateMutability": "nonpayable",
      "type": "function"
    },
    {
      "constant": false,
      "inputs": [
        {
          "internalType": "address",
          "name": "sender",
          "type": "address"
        },
        {
          "internalType": "address",
          "name": "recipient",
          "type": "address"
        },
        {
          "internalType": "uint256",
          "name": "amount",
          "type": "uint256"
        }
      ],
      "name": "transferFrom",
      "outputs": [
        {
          "internalType": "bool",
          "name": "",
          "type": "bool"
        }
      ],
      "payable": false,
      "stateMutability": "nonpayable",
      "type": "function"
    },
    {
      "constant": false,
      "inputs": [
        {
          "internalType": "address",
          "name": "newOwner",
          "type": "address"
        }
      ],
      "name": "transferOwnership",
      "outputs": [],
      "payable": false,
      "stateMutability": "nonpayable",
      "type": "function"
    },
    {
      "constant": true,
      "inputs": [],
      "name": "version",
      "outputs": [
        {
          "internalType": "string",
          "name": "",
          "type": "string"
        }
      ],
      "payable": false,
      "stateMutability": "view",
      "type": "function"
    },
    {
      "constant": false,
      "inputs": [],
      "name": "mint",
      "outputs": [],
      "payable": true,
      "stateMutability": "payable",
      "type": "function"
    },
    {
      "constant": false,
      "inputs": [
        {
          "internalType": "uint256",
          "name": "_amount",
          "type": "uint256"
        }
      ],
      "name": "burn",
      "outputs": [],
      "payable": false,
      "stateMutability": "nonpayable",
      "type": "function"
    },
    {
      "constant": true,
      "inputs": [],
      "name": "reserveBalance",
      "outputs": [
        {
          "internalType": "uint256",
          "name": "",
          "type": "uint256"
        }
      ],
      "payable": false,
      "stateMutability": "view",
      "type": "function"
    }
  ],
  "bytecode": "0x60c06040526003608081905262302e3360e81b60a090815262000026916007919062000b4e565b50670de0b6b3a76400006089556040516200375d3803806200375d833981810160405260a08110156200005857600080fd5b81019080805160405193929190846401000000008211156200007957600080fd5b9083019060208201858111156200008f57600080fd5b8251640100000000811182820188101715620000aa57600080fd5b82525081516020918201929091019080838360005b83811015620000d9578181015183820152602001620000bf565b50505050905090810190601f168015620001075780820380516001836020036101000a031916815260200191505b50604052602001805160405193929190846401000000008211156200012b57600080fd5b9083019060208201858111156200014157600080fd5b82516401000000008111828201881017156200015c57600080fd5b82525081516020918201929091019080838360005b838110156200018b57818101518382015260200162000171565b50505050905090810190601f168015620001b95780820380516001836020036101000a031916815260200191505b5060409081526020820151908201516060909201519093509091508484848484808585856000620001f26001600160e01b03620009e216565b600080546001600160a01b0319166001600160a01b0383169081178255604051929350917f8be0079c531659141344cd1fd0a4f28419497f9722a3daafe3b4186f6b6457e0908290a35082516200025190600490602086019062000b4e565b5081516200026790600590602085019062000b4e565b506006805460ff191660ff9290921691909117905550506001641c35fedd1560601b036028556001646c3390ecc9605e1b036029556001640cf801476160611b03602a5560016431bdb23e1d605f1b03602b5560016502fb1d8fe083605b1b03602c5560016505b771955b37605a1b03602d556001650af67a93bb5160591b03602e5560016515060c256cb360581b03602f556001651428a2f98d7360581b036030556001654d515663970960561b03603155600165944620b0e70f60551b03603255600166011c592761c66760541b0360335560016602214d10d014eb60531b03603455600166020ade36b7dbef60531b0360355560016603eab73b3bbfe360521b036036556001660782ee3593f6d760511b036037556001661ccf4b44bb4821604f1b0360385560016606e7f88ad8a77760511b0360395560016669f3d1c921891d604d1b03603a55600166cb2ff529eb71e5604c1b03603b55600166c2d415c3db974b604c1b03603c5560016702eb40f9f620fda7604a1b03603d5560016705990681d961a1eb60491b03603e55600167055e12902701414760491b03603f5560016714962dee9dc9764160471b0360405560016704ef57b9b560fab560491b0360415560016712ed7b32a58f552b60471b036042556001679131271922eaa60760441b036043556001678b380f3558668c4760441b036044556001680215f77c045fbe885760421b036045556001600160831b036046556001670f577eded5773a1160471b036047556001680eb5ec597592befbf5603f1b036048556001681c35fedd14b861eb05603e1b036049556001683619c87664579bc94b603d1b03604a5560016867c00a3b07ffc01fd7603c1b03604b55600168c6f6c8f8739773a7a5603b1b03604c55600168bec763f8209b7a72b1603b1b03604d5560016902dbb8caad9b7097b91b60391b03604e55600169057b3d49dda84556d6f760381b03604f55600169054183095b2c8ececf3160381b036050556001690a14517cc6b9457111ef60371b0360515560016913545598e5c23276ccf160361b036052556001692511882c39c3adea96ff60351b03605355600169471649d87199aa99075760341b036054557004429a21a029d4c1457cfbffffffffffff605555700415bc6d6fb7dd71af2cb3ffffffffffff6056557003eab73b3bbfe282243ce1ffffffffffff6057557003c1771ac9fb6b4c18e229ffffffffffff605855700399e96897690418f785257fffffffffff605955700373fc456c53bb779bf0ea9fffffffffff605a5570034f9e8e490c48e67e6ab8bfffffffffff605b5570032cbfd4a7adc790560b3337ffffffffff605c5570030b50570f6e5d2acca94613ffffffffff605d557002eb40f9f620fda6b56c2861ffffffffff605e557002cc8340ecb0d0f520a6af58ffffffffff605f557002af09481380a0a35cf1ba02ffffffffff606055700292c5bdd3b92ec810287b1b3fffffffff606155700277abdcdab07d5a77ac6d6b9fffffffff60625570025daf6654b1eaa55fd64df5efffffffff606355700244c49c648baa98192dce88b7ffffffff60645570022ce03cd5619a311b2471268bffffffff606555700215f77c045fbe885654a44a0fffffffff6066556001600160811b036067557001eaefdbdaaee7421fc4d3ede5ffffffff6068557001d6bd8b2eb257df7e8ca57b09bfffffff6069557001c35fedd14b861eb0443f7f133fffffff606a557001b0ce43b322bcde4a56e8ada5afffffff606b5570019f0028ec1fff007f5a195a39dfffffff606c5570018ded91f0e72ee74f49b15ba527ffffff606d5570017d8ec7f04136f4e5615fd41a63ffffff606e5570016ddc6556cdb84bdc8d12d22e6fffffff606f5570015ecf52776a1155b5bd8395814f7fffff60705570015060c256cb23b3b3cc3754cf40ffffff6071557001428a2f98d728ae223ddab715be3fffff60725570013545598e5c23276ccf0ede68034fffff6073557001288c4161ce1d6f54b7f61081194fffff60745570011c592761c666aa641d5a01a40f17ffff607555700110a688680a7530515f3e6e6cfdcdffff6076557001056f1b5bedf75c6bcb2ce8aed428ffff6077556ffaadceceeff8a0890f3875f008277fff6078556ff05dc6b27edad306388a600f6ba0bfff6079556fe67a5a25da41063de1495d5b18cdbfff607a556fdcff115b14eedde6fc3aa5353f2e4fff607b556fd3e7a3924312399f9aae2e0f868f8fff607c556fcb2ff529eb71e41582cccd5a1ee26fff607d556fc2d415c3db974ab32a51840c0b67edff607e556fbad03e7d883f69ad5b0a186184e06bff607f556fb320d03b2c343d4829abd6075f0cc5ff6080556fabc25204e02828d73c6e80bcdb1a95bf6081556fa4b16f74ee4bb2040a1ec6c15fbbf2df6082556f9deaf736ac1f569deb1b5ae3f36c130f6083556f976bd9952c7aa957f5937d790ef650376084556f9131271922eaa6064b73a22d0bd4f2bf6085556f8b380f3558668c46c91c49a2f8e967b96086556f857ddf0117efa215952912839f6473e66087556088805463ffffffff191663ffffffff92909216919091179055620009cd3383620009e7565b505034608a555062000bf09650505050505050565b335b90565b6001600160a01b03821662000a43576040805162461bcd60e51b815260206004820152601f60248201527f45524332303a206d696e7420746f20746865207a65726f206164647265737300604482015290519081900360640190fd5b62000a5f8160035462000aec60201b620011001790919060201c565b6003556001600160a01b03821660009081526001602090815260409091205462000a949183906200110062000aec821b17901c565b6001600160a01b03831660008181526001602090815260408083209490945583518581529351929391927fddf252ad1be2c89b69c2b068fc378daa952ba7f163c4a11628f55a4df523b3ef9281900390910190a35050565b60008282018381101562000b47576040805162461bcd60e51b815260206004820152601b60248201527f536166654d6174683a206164646974696f6e206f766572666c6f770000000000604482015290519081900360640190fd5b9392505050565b828054600181600116156101000203166002900490600052602060002090601f016020900481019282601f1062000b9157805160ff191683800117855562000bc1565b8280016001018555821562000bc1579182015b8281111562000bc157825182559160200191906001019062000ba4565b5062000bcf92915062000bd3565b5090565b620009e491905b8082111562000bcf576000815560010162000bda565b612b5d8062000c006000396000f3fe6080604052600436106101c25760003560e01c806370a08231116100f7578063a10954fe11610095578063d2fa635e11610064578063d2fa635e14610658578063da12457a14610682578063dd62ed3e14610697578063f2fde38b146106d2576101c2565b8063a10954fe14610598578063a457c2d7146105ad578063a9059cbb146105e6578063b265c7021461061f576101c2565b80638da5cb5b116100d15780638da5cb5b146105135780638f32d59b1461054457806395d89b4114610559578063963438861461056e576101c2565b806370a08231146104a1578063715018a6146104d45780637cbed3e0146104e9576101c2565b806329a00e7c116101645780633de39c111161013e5780633de39c111461040b57806342966c681461042057806349f9b0f71461044a57806354fd4d501461048c576101c2565b806329a00e7c14610365578063313ce567146103a757806339509351146103d2576101c2565b80630d8f9f7f116101a05780630d8f9f7f146102d15780631249c58b146101c257806318160ddd1461030d57806323b872dd14610322576101c2565b806306fdde03146101cc578063095ea7b3146102565780630c7d5cd8146102a3575b6101ca610705565b005b3480156101d857600080fd5b506101e1610729565b6040805160208082528351818301528351919283929083019185019080838360005b8381101561021b578181015183820152602001610203565b50505050905090810190601f1680156102485780820380516001836020036101000a031916815260200191505b509250505060405180910390f35b34801561026257600080fd5b5061028f6004803603604081101561027957600080fd5b506001600160a01b0381351690602001356107bf565b604080519115158252519081900360200190f35b3480156102af57600080fd5b506102b86107dd565b6040805163ffffffff9092168252519081900360200190f35b3480156102dd57600080fd5b506102fb600480360360208110156102f457600080fd5b50356107e9565b60408051918252519081900360200190f35b34801561031957600080fd5b506102fb610815565b34801561032e57600080fd5b5061028f6004803603606081101561034557600080fd5b506001600160a01b0381358116916020810135909116906040013561081b565b34801561037157600080fd5b506102fb6004803603608081101561038857600080fd5b5080359060208101359063ffffffff60408201351690606001356108a8565b3480156103b357600080fd5b506103bc6109d9565b6040805160ff9092168252519081900360200190f35b3480156103de57600080fd5b5061028f600480360360408110156103f557600080fd5b506001600160a01b0381351690602001356109e2565b34801561041757600080fd5b506102fb610a36565b34801561042c57600080fd5b506101ca6004803603602081101561044357600080fd5b5035610a3c565b34801561045657600080fd5b506102fb6004803603608081101561046d57600080fd5b5080359060208101359063ffffffff6040820135169060600135610a92565b34801561049857600080fd5b506101e1610bcf565b3480156104ad57600080fd5b506102fb600480360360208110156104c457600080fd5b50356001600160a01b0316610c5d565b3480156104e057600080fd5b506101ca610c78565b3480156104f557600080fd5b506102fb6004803603602081101561050c57600080fd5b5035610d33565b34801561051f57600080fd5b50610528610d57565b604080516001600160a01b039092168252519081900360200190f35b34801561055057600080fd5b5061028f610d66565b34801561056557600080fd5b506101e1610d8a565b34801561057a57600080fd5b506101ca6004803603602081101561059157600080fd5b5035610deb565b3480156105a457600080fd5b506102fb610e38565b3480156105b957600080fd5b5061028f600480360360408110156105d057600080fd5b506001600160a01b038135169060200135610e3e565b3480156105f257600080fd5b5061028f6004803603604081101561060957600080fd5b506001600160a01b038135169060200135610eac565b34801561062b57600080fd5b506101ca6004803603604081101561064257600080fd5b506001600160a01b038135169060200135610ec0565b34801561066457600080fd5b506101ca6004803603602081101561067b57600080fd5b5035610f0e565b34801561068e57600080fd5b506102fb610f6c565b3480156106a357600080fd5b506102fb600480360360408110156106ba57600080fd5b506001600160a01b0381358116916020013516610f7b565b3480156106de57600080fd5b506101ca600480360360208110156106f557600080fd5b50356001600160a01b0316610fa6565b3461070f8161100b565b50608a54610723908263ffffffff61110016565b608a5550565b60048054604080516020601f60026000196101006001881615020190951694909404938401819004810282018101909252828152606093909290918301828280156107b55780601f1061078a576101008083540402835291602001916107b5565b820191906000526020600020905b81548152906001019060200180831161079857829003601f168201915b5050505050905090565b60006107d36107cc611161565b8484611165565b5060015b92915050565b60885463ffffffff1681565b600061080d6107f6610f6c565b6107fe610e38565b60885463ffffffff16856108a8565b90505b919050565b60035490565b6000610828848484611251565b61089e84610834611161565b61089985604051806060016040528060288152602001612a4e602891396001600160a01b038a16600090815260026020526040812090610872611161565b6001600160a01b03168152602081019190915260400160002054919063ffffffff6113af16565b611165565b5060019392505050565b600080851180156108b95750600084115b80156108cb575060008363ffffffff16115b80156108e05750620f424063ffffffff841611155b610931576040805162461bcd60e51b815260206004820152600f60248201527f496e76616c696420696e707574732e0000000000000000000000000000000000604482015290519081900360640190fd5b8161093e575060006109d1565b63ffffffff8316620f424014156109765761096f84610963878563ffffffff61144616565b9063ffffffff61149f16565b90506109d1565b6000808061098a858863ffffffff61110016565b905061099b818888620f42406114e1565b9093509150600060ff83166109b68a8663ffffffff61144616565b901c90506109ca818a63ffffffff61166a16565b9450505050505b949350505050565b60065460ff1690565b60006107d36109ef611161565b846108998560026000610a00611161565b6001600160a01b03908116825260208083019390935260409182016000908120918c16815292529020549063ffffffff61110016565b60895481565b6000610a47826116ac565b608a54909150610a5d908263ffffffff61166a16565b608a55604051339082156108fc029083906000818181858888f19350505050158015610a8d573d6000803e3d6000fd5b505050565b60008085118015610aa35750600084115b8015610ab5575060008363ffffffff16115b8015610aca5750620f424063ffffffff841611155b8015610ad65750848211155b610b27576040805162461bcd60e51b815260206004820152600f60248201527f496e76616c696420696e707574732e0000000000000000000000000000000000604482015290519081900360640190fd5b81610b34575060006109d1565b84821415610b435750826109d1565b63ffffffff8316620f42401415610b685761096f85610963868563ffffffff61144616565b60008080610b7c888663ffffffff61166a16565b9050610b8d8882620f4240896114e1565b90935091506000610ba4888563ffffffff61144616565b905060ff831688901b610bc185610963848463ffffffff61166a16565b9a9950505050505050505050565b6007805460408051602060026001851615610100026000190190941693909304601f81018490048402820184019092528181529291830182828015610c555780601f10610c2a57610100808354040283529160200191610c55565b820191906000526020600020905b815481529060010190602001808311610c3857829003601f168201915b505050505081565b6001600160a01b031660009081526001602052604090205490565b610c80610d66565b610cd1576040805162461bcd60e51b815260206004820181905260248201527f4f776e61626c653a2063616c6c6572206973206e6f7420746865206f776e6572604482015290519081900360640190fd5b600080546040516001600160a01b03909116907f8be0079c531659141344cd1fd0a4f28419497f9722a3daafe3b4186f6b6457e0908390a3600080547fffffffffffffffffffffffff0000000000000000000000000000000000000000169055565b600061080d610d40610f6c565b610d48610e38565b60885463ffffffff1685610a92565b6000546001600160a01b031690565b600080546001600160a01b0316610d7b611161565b6001600160a01b031614905090565b60058054604080516020601f60026000196101006001881615020190951694909404938401819004810282018101909252828152606093909290918301828280156107b55780601f1061078a576101008083540402835291602001916107b5565b610df533826117fe565b604080513381526020810183905260008183015290517f23ff0e75edf108e3d0392d92e13e8c8a868ef19001bd49f9e94876dc46dff87f9181900360600190a150565b608a5490565b60006107d3610e4b611161565b8461089985604051806060016040528060258152602001612b046025913960026000610e75611161565b6001600160a01b03908116825260208083019390935260409182016000908120918d1681529252902054919063ffffffff6113af16565b60006107d3610eb9611161565b8484611251565b610eca82826118fa565b604080513381526020810183905260008183015290517f23ff0e75edf108e3d0392d92e13e8c8a868ef19001bd49f9e94876dc46dff87f9181900360600190a15050565b610f16610d66565b610f67576040805162461bcd60e51b815260206004820181905260248201527f4f776e61626c653a2063616c6c6572206973206e6f7420746865206f776e6572604482015290519081900360640190fd5b608955565b6000610f76610815565b905090565b6001600160a01b03918216600090815260026020908152604080832093909416825291909152205490565b610fae610d66565b610fff576040805162461bcd60e51b815260206004820181905260248201527f4f776e61626c653a2063616c6c6572206973206e6f7420746865206f776e6572604482015290519081900360640190fd5b61100881611952565b50565b60006089543a111561104e5760405162461bcd60e51b81526004018080602001828103825260488152602001806129bf6048913960600191505060405180910390fd5b600082116110a3576040805162461bcd60e51b815260206004820152601960248201527f4465706f736974206d757374206265206e6f6e2d7a65726f2e00000000000000604482015290519081900360640190fd5b60006110ae836107e9565b90506110ba3382611a0a565b604080513381526020810183905280820185905290517f25b428dfde728ccfaddad7e29e4ac23c24ed7fd1a6e3e3f91894a9a073f5dfff9181900360600190a192915050565b60008282018381101561115a576040805162461bcd60e51b815260206004820152601b60248201527f536166654d6174683a206164646974696f6e206f766572666c6f770000000000604482015290519081900360640190fd5b9392505050565b3390565b6001600160a01b0383166111aa5760405162461bcd60e51b8152600401808060200182810382526024815260200180612ae06024913960400191505060405180910390fd5b6001600160a01b0382166111ef5760405162461bcd60e51b815260040180806020018281038252602281526020018061299d6022913960400191505060405180910390fd5b6001600160a01b03808416600081815260026020908152604080832094871680845294825291829020859055815185815291517f8c5be1e5ebec7d5bd14f71427d1e84f3dd0314c0f7b2291e5b200ac8c7c3b9259281900390910190a3505050565b6001600160a01b0383166112965760405162461bcd60e51b8152600401808060200182810382526025815260200180612abb6025913960400191505060405180910390fd5b6001600160a01b0382166112db5760405162461bcd60e51b81526004018080602001828103825260238152602001806129326023913960400191505060405180910390fd5b61131e81604051806060016040528060268152602001612a07602691396001600160a01b038616600090815260016020526040902054919063ffffffff6113af16565b6001600160a01b038085166000908152600160205260408082209390935590841681522054611353908263ffffffff61110016565b6001600160a01b0380841660008181526001602090815260409182902094909455805185815290519193928716927fddf252ad1be2c89b69c2b068fc378daa952ba7f163c4a11628f55a4df523b3ef92918290030190a3505050565b6000818484111561143e5760405162461bcd60e51b81526004018080602001828103825283818151815260200191508051906020019080838360005b838110156114035781810151838201526020016113eb565b50505050905090810190601f1680156114305780820380516001836020036101000a031916815260200191505b509250505060405180910390fd5b505050900390565b600082611455575060006107d7565b8282028284828161146257fe5b041461115a5760405162461bcd60e51b8152600401808060200182810382526021815260200180612a2d6021913960400191505060405180910390fd5b600061115a83836040518060400160405280601a81526020017f536166654d6174683a206469766973696f6e206279207a65726f000000000000815250611afc565b6000807002000000000000000000000000000000008610611549576040805162461bcd60e51b815260206004820152601860248201527f626173654e2065786365656473206d61782076616c75652e0000000000000000604482015290519081900360640190fd5b8486101561159e576040805162461bcd60e51b815260206004820152601c60248201527f4261736573203c203120617265206e6f7420737570706f727465642e00000000604482015290519081900360640190fd5b600080866001607f1b8902816115b057fe5b04905070015bf0a8b1457695355fb8ac404e7a79e38110156115dc576115d581611b61565b91506115e8565b6115e58161200c565b91505b60008563ffffffff168763ffffffff1684028161160157fe5b04905070080000000000000000000000000000000081101561163457611626816120bc565b607f94509450505050611661565b600061163f8261249e565b905061165481607f0360ff1683901c82612530565b9550935061166192505050565b94509492505050565b600061115a83836040518060400160405280601e81526020017f536166654d6174683a207375627472616374696f6e206f766572666c6f7700008152506113af565b60006089543a11156116ef5760405162461bcd60e51b81526004018080602001828103825260488152602001806129bf6048913960600191505060405180910390fd5b60008211611744576040805162461bcd60e51b815260206004820152601860248201527f416d6f756e74206d757374206265206e6f6e2d7a65726f2e0000000000000000604482015290519081900360640190fd5b8161174e33610c5d565b10156117a1576040805162461bcd60e51b815260206004820152601c60248201527f496e73756666696369656e7420746f6b656e7320746f206275726e2e00000000604482015290519081900360640190fd5b60006117ac83610d33565b90506117b833846117fe565b604080513381526020810185905280820183905290517f23ff0e75edf108e3d0392d92e13e8c8a868ef19001bd49f9e94876dc46dff87f9181900360600190a192915050565b6001600160a01b0382166118435760405162461bcd60e51b8152600401808060200182810382526021815260200180612a9a6021913960400191505060405180910390fd5b61188681604051806060016040528060228152602001612955602291396001600160a01b038516600090815260016020526040902054919063ffffffff6113af16565b6001600160a01b0383166000908152600160205260409020556003546118b2908263ffffffff61166a16565b6003556040805182815290516000916001600160a01b038516917fddf252ad1be2c89b69c2b068fc378daa952ba7f163c4a11628f55a4df523b3ef9181900360200190a35050565b61190482826117fe565b61194e82611910611161565b61089984604051806060016040528060248152602001612a76602491396001600160a01b038816600090815260026020526040812090610872611161565b5050565b6001600160a01b0381166119975760405162461bcd60e51b81526004018080602001828103825260268152602001806129776026913960400191505060405180910390fd5b600080546040516001600160a01b03808516939216917f8be0079c531659141344cd1fd0a4f28419497f9722a3daafe3b4186f6b6457e091a3600080547fffffffffffffffffffffffff0000000000000000000000000000000000000000166001600160a01b0392909216919091179055565b6001600160a01b038216611a65576040805162461bcd60e51b815260206004820152601f60248201527f45524332303a206d696e7420746f20746865207a65726f206164647265737300604482015290519081900360640190fd5b600354611a78908263ffffffff61110016565b6003556001600160a01b038216600090815260016020526040902054611aa4908263ffffffff61110016565b6001600160a01b03831660008181526001602090815260408083209490945583518581529351929391927fddf252ad1be2c89b69c2b068fc378daa952ba7f163c4a11628f55a4df523b3ef9281900390910190a35050565b60008183611b4b5760405162461bcd60e51b81526020600482018181528351602484015283519092839260449091019190850190808383600083156114035781810151838201526020016113eb565b506000838581611b5757fe5b0495945050505050565b6000808080806fd3094c70f034de4b96ff7d5b6f99fcd88610611bb6576f40000000000000000000000000000000840193506fd3094c70f034de4b96ff7d5b6f99fcd86001607f1b870281611bb257fe5b0495505b6fa45af1e1f40c333b3de1db4dd55f29a78610611c05576f20000000000000000000000000000000840193506fa45af1e1f40c333b3de1db4dd55f29a76001607f1b870281611c0157fe5b0495505b6f910b022db7ae67ce76b441c27035c6a18610611c54576f10000000000000000000000000000000840193506f910b022db7ae67ce76b441c27035c6a16001607f1b870281611c5057fe5b0495505b6f88415abbe9a76bead8d00cf112e4d4a88610611ca3576f08000000000000000000000000000000840193506f88415abbe9a76bead8d00cf112e4d4a86001607f1b870281611c9f57fe5b0495505b6f84102b00893f64c705e841d5d4064bd38610611cf2576f04000000000000000000000000000000840193506f84102b00893f64c705e841d5d4064bd36001607f1b870281611cee57fe5b0495505b6f8204055aaef1c8bd5c3259f4822735a28610611d41576f02000000000000000000000000000000840193506f8204055aaef1c8bd5c3259f4822735a26001607f1b870281611d3d57fe5b0495505b6f810100ab00222d861931c15e39b44e998610611d90576f01000000000000000000000000000000840193506f810100ab00222d861931c15e39b44e996001607f1b870281611d8c57fe5b0495505b6f808040155aabbbe9451521693554f7338610611dde576e800000000000000000000000000000840193506f808040155aabbbe9451521693554f7336001607f1b870281611dda57fe5b0495505b7fffffffffffffffffffffffffffffffff80000000000000000000000000000000860192508291506001607f1b828002049050600160801b838103830204840193506001607f1b81830281611e2f57fe5b049150700200000000000000000000000000000000836faaaaaaaaaaaaaaaaaaaaaaaaaaaaaaaa03830281611e6057fe5b04840193506001607f1b81830281611e7457fe5b049150700300000000000000000000000000000000836f9999999999999999999999999999999903830281611ea557fe5b04840193506001607f1b81830281611eb957fe5b049150700400000000000000000000000000000000836f9249249249249249249249249249249203830281611eea57fe5b04840193506001607f1b81830281611efe57fe5b049150700500000000000000000000000000000000836f8e38e38e38e38e38e38e38e38e38e38e03830281611f2f57fe5b04840193506001607f1b81830281611f4357fe5b049150700600000000000000000000000000000000836f8ba2e8ba2e8ba2e8ba2e8ba2e8ba2e8b03830281611f7457fe5b04840193506001607f1b81830281611f8857fe5b049150700700000000000000000000000000000000836f89d89d89d89d89d89d89d89d89d89d8903830281611fb957fe5b04840193506001607f1b81830281611fcd57fe5b049150700800000000000000000000000000000000836f8888888888888888888888888888888803830281611ffe57fe5b049390930195945050505050565b60008082600160801b811061203f57600061202c6001607f1b83046128cd565b60ff166001607f1b810293509190911c90505b6001607f1b81111561208f57607f5b60ff81161561208d576001607f1b828002049150600160801b821061208457600182901c91506001810360ff166001901b830192505b6000190161204e565b505b6f05b9de1d10bf4103d647b0955897ba806f03f80fe03f80fe03f80fe03f80fe03f8830204949350505050565b6000670168244fdac780006001607f1b6f0fffffffffffffffffffffffffffffff84168080028290048082028390048083028490049485026710e1b3be415a00009092026705a0913f6b1e000091909102010192909181830204905080664807432bc1800002830192506001607f1b8282028161213557fe5b04905080660c0135dca0400002830192506001607f1b8282028161215557fe5b049050806601b707b1cdc00002830192506001607f1b8282028161217557fe5b049050806536e0f639b80002830192506001607f1b8282028161219457fe5b04905080650618fee9f80002830192506001607f1b828202816121b357fe5b04905080649c197dcc0002830192506001607f1b828202816121d157fe5b04905080640e30dce40002830192506001607f1b828202816121ef57fe5b0490508064012ebd130002830192506001607f1b8282028161220d57fe5b049050806317499f0002830192506001607f1b8282028161222a57fe5b049050806301a9d48002830192506001607f1b8282028161224757fe5b04905080621c638002830192506001607f1b8282028161226357fe5b049050806201c63802830192506001607f1b8282028161227f57fe5b04905080611ab802830192506001607f1b8282028161229a57fe5b0490508061017c02830192506001607f1b828202816122b557fe5b04905080601402830192506001607f1b828202816122cf57fe5b6721c3677c82b400009190049384010482016001607f1b019290506f1000000000000000000000000000000085161561232c5770018ebef9eac820ae8682b9793ac6d1e7767001c3d6a24ed82218787d624d3e5eba95f984020492505b6f2000000000000000000000000000000085161561236e577001368b2fc6f9609fe7aceb46aa619baed470018ebef9eac820ae8682b9793ac6d1e77884020492505b6f400000000000000000000000000000008516156123af576fbc5ab1b16779be3575bd8f0520a9f21f7001368b2fc6f9609fe7aceb46aa619baed584020492505b6001607f1b8516156123e3576f454aaa8efe072e7f6ddbab84b40a55c96fbc5ab1b16779be3575bd8f0520a9f21e84020492505b600160801b851615612417576f0960aadc109e7a3bf4578099615711ea6f454aaa8efe072e7f6ddbab84b40a55c584020492505b700200000000000000000000000000000000851615612457576e2bf84208204f5977f9a8cf01fdce3d6f0960aadc109e7a3bf4578099615711d784020492505b700400000000000000000000000000000000851615612495576d03c6ab775dd0b95b4cbee7e65d116e2bf84208204f5977f9a8cf01fdc30784020492505b50909392505050565b60006020607f5b8060ff168260010160ff1610156124ed576000600260ff848401160490508460088260ff16608081106124d457fe5b0154106124e3578092506124e7565b8091505b506124a5565b8360088260ff16608081106124fe57fe5b01541061250e5791506108109050565b8360088360ff166080811061251f57fe5b01541061252e57509050610810565bfe5b60008083905060008090508360ff16858302901c9150816f03442c4e6074a82f1797f72ac000000002810190508360ff16858302901c9150816f0116b96f757c380fb287fd0e4000000002810190508360ff16858302901c9150816e45ae5bdd5f0e03eca1ff439000000002810190508360ff16858302901c9150816e0defabf91302cd95b9ffda5000000002810190508360ff16858302901c9150816e02529ca9832b22439efff9b800000002810190508360ff16858302901c9150816d54f1cf12bd04e516b6da8800000002810190508360ff16858302901c9150816d0a9e39e257a09ca2d6db5100000002810190508360ff16858302901c9150816d012e066e7b839fa050c30900000002810190508360ff16858302901c9150816c1e33d7d926c329a1ad1a80000002810190508360ff16858302901c9150816c02bee513bdb4a6b19b5f80000002810190508360ff16858302901c9150816b3a9316fa79b88eccf2a0000002810190508360ff16858302901c9150816b048177ebe1fa81237520000002810190508360ff16858302901c9150816a5263fe90242dcbacf0000002810190508360ff16858302901c9150816a057e22099c030d9410000002810190508360ff16858302901c9150816957e22099c030d941000002810190508360ff16858302901c91508169052b6b5456997631000002810190508360ff16858302901c915081684985f67696bf74800002810190508360ff16858302901c9150816803dea12ea99e49800002810190508360ff16858302901c9150816731880f2214b6e00002810190508360ff16858302901c91508167025bcff56eb3600002810190508360ff16858302901c915081661b722e10ab100002810190508360ff16858302901c9150816601317c7007700002810190508360ff16858302901c915081650cba84aafa0002810190508360ff16858302901c9150816482573a0a0002810190508360ff16858302901c9150816405035ad90002810190508360ff16858302901c915081632f881b0002810190508360ff16858302901c9150816301b2934002810190508360ff16858302901c915081620efc4002810190508360ff16858302901c915081617fe002810190508360ff16858302901c91508161042002810190508360ff16858302901c915081602102810190508360ff16858302901c915081600102810190508360ff166001901b856f0688589cc0e9505e2f2fee558000000083816128c157fe5b04010195945050505050565b600080826101008110156128f6575b60018111156128f1576001918201911c6128dc565b61292a565b60805b60ff81161561292857600160ff82161b821061291d579182179160ff81169190911c905b60011c607f166128f9565b505b509291505056fe45524332303a207472616e7366657220746f20746865207a65726f206164647265737345524332303a206275726e20616d6f756e7420657863656564732062616c616e63654f776e61626c653a206e6577206f776e657220697320746865207a65726f206164647265737345524332303a20617070726f766520746f20746865207a65726f2061646472657373476173207072696365206d757374206265203c3d206d6178696d756d2067617320707269636520746f2070726576656e742066726f6e742072756e6e696e672061747461636b732e45524332303a207472616e7366657220616d6f756e7420657863656564732062616c616e6365536166654d6174683a206d756c7469706c69636174696f6e206f766572666c6f7745524332303a207472616e7366657220616d6f756e74206578636565647320616c6c6f77616e636545524332303a206275726e20616d6f756e74206578636565647320616c6c6f77616e636545524332303a206275726e2066726f6d20746865207a65726f206164647265737345524332303a207472616e736665722066726f6d20746865207a65726f206164647265737345524332303a20617070726f76652066726f6d20746865207a65726f206164647265737345524332303a2064656372656173656420616c6c6f77616e63652062656c6f77207a65726fa265627a7a7231582050bb2b0908e431b4347b14b9f305d315decc90ddfa580ef14f83313b5c74065164736f6c63430005100032",
  "source": "pragma solidity ^0.5.2;\n\nimport \"./ContinuousToken.sol\";\n\n\ncontract ETHContinuousToken is ContinuousToken {\n    uint256 internal reserve;\n  \n    constructor(\n        string memory _name,\n        string memory _symbol,\n        uint8 _decimals,\n        uint _initialSupply,\n        uint32 _reserveRatio\n    ) public payable ContinuousToken(_name, _symbol, _decimals, _initialSupply, _reserveRatio) {\n        reserve = msg.value;\n    }\n\n    function () external payable { mint(); }\n\n    function mint() public payable {\n        uint purchaseAmount = msg.value;\n        _continuousMint(purchaseAmount);\n        reserve = reserve.add(purchaseAmount);\n    }\n\n    function burn(uint _amount) public {\n        uint refundAmount = _continuousBurn(_amount);\n        reserve = reserve.sub(refundAmount);\n        msg.sender.transfer(refundAmount);\n    }\n\n    function reserveBalance() public view returns (uint) {\n        return reserve;\n    }    \n}",
  "sourcePath": "/Users/jzstern/Go on.... GIT/bound/truffle/contracts/token/ETHContinuousToken.sol",
  "compiler": {
    "name": "solc",
    "version": "0.5.16+commit.9c3226ce.Emscripten.clang"
  },
  "schemaVersion": "3.0.23",
  "updatedAt": "2020-02-16T12:52:32.459Z",
  "networkType": "ethereum",
  "devdoc": {
    "methods": {
      "allowance(address,address)": {
        "details": "See {IERC20-allowance}."
      },
      "approve(address,uint256)": {
        "details": "See {IERC20-approve}.     * Requirements:     * - `spender` cannot be the zero address."
      },
      "balanceOf(address)": {
        "details": "See {IERC20-balanceOf}."
      },
      "calculatePurchaseReturn(uint256,uint256,uint32,uint256)": {
        "details": "given a continuous token supply, reserve token balance, reserve ratio, and a deposit amount (in the reserve token), calculates the return for a given conversion (in the continuous token)    * Formula: Return = _supply * ((1 + _depositAmount / _reserveBalance) ^ (_reserveRatio / MAX_RESERVE_RATIO) - 1)",
        "params": {
          "_depositAmount": "deposit amount, in reserve token",
          "_reserveBalance": "total reserve token balance",
          "_reserveRatio": "reserve ratio, represented in ppm, 1-1000000",
          "_supply": "continuous token total supply"
        },
        "return": "purchase return amount"
      },
      "calculateSaleReturn(uint256,uint256,uint32,uint256)": {
        "details": "given a continuous token supply, reserve token balance, reserve ratio and a sell amount (in the continuous token), calculates the return for a given conversion (in the reserve token)    * Formula: Return = _reserveBalance * (1 - (1 - _sellAmount / _supply) ^ (1 / (_reserveRatio / MAX_RESERVE_RATIO)))",
        "params": {
          "_reserveBalance": "total reserve token balance",
          "_reserveRatio": "constant reserve ratio, represented in ppm, 1-1000000",
          "_sellAmount": "sell amount, in the continuous token itself",
          "_supply": "continuous token total supply"
        },
        "return": "sale return amount"
      },
      "decimals()": {
        "details": "Returns the number of decimals used to get its user representation. For example, if `decimals` equals `2`, a balance of `505` tokens should be displayed to a user as `5,05` (`505 / 10 ** 2`).     * Tokens usually opt for a value of 18, imitating the relationship between Ether and Wei.     * NOTE: This information is only used for _display_ purposes: it in no way affects any of the arithmetic of the contract, including {IERC20-balanceOf} and {IERC20-transfer}."
      },
      "decreaseAllowance(address,uint256)": {
        "details": "Atomically decreases the allowance granted to `spender` by the caller.     * This is an alternative to {approve} that can be used as a mitigation for problems described in {IERC20-approve}.     * Emits an {Approval} event indicating the updated allowance.     * Requirements:     * - `spender` cannot be the zero address. - `spender` must have allowance for the caller of at least `subtractedValue`."
      },
      "increaseAllowance(address,uint256)": {
        "details": "Atomically increases the allowance granted to `spender` by the caller.     * This is an alternative to {approve} that can be used as a mitigation for problems described in {IERC20-approve}.     * Emits an {Approval} event indicating the updated allowance.     * Requirements:     * - `spender` cannot be the zero address."
      },
      "isOwner()": {
        "details": "Returns true if the caller is the current owner."
      },
      "name()": {
        "details": "Returns the name of the token."
      },
      "owner()": {
        "details": "Returns the address of the current owner."
      },
      "renounceOwnership()": {
        "details": "Leaves the contract without owner. It will not be possible to call `onlyOwner` functions anymore. Can only be called by the current owner.     * NOTE: Renouncing ownership will leave the contract without an owner, thereby removing any functionality that is only available to the owner."
      },
      "symbol()": {
        "details": "Returns the symbol of the token, usually a shorter version of the name."
      },
      "totalSupply()": {
        "details": "See {IERC20-totalSupply}."
      },
      "transfer(address,uint256)": {
        "details": "See {IERC20-transfer}.     * Requirements:     * - `recipient` cannot be the zero address. - the caller must have a balance of at least `amount`."
      },
      "transferFrom(address,address,uint256)": {
        "details": "See {IERC20-transferFrom}.     * Emits an {Approval} event indicating the updated allowance. This is not required by the EIP. See the note at the beginning of {ERC20};     * Requirements: - `sender` and `recipient` cannot be the zero address. - `sender` must have a balance of at least `amount`. - the caller must have allowance for `sender`'s tokens of at least `amount`."
      },
      "transferOwnership(address)": {
        "details": "Transfers ownership of the contract to a new account (`newOwner`). Can only be called by the current owner."
      }
    }
  },
  "userdoc": {
    "methods": {}
  }
}