{
  "contractName": "ETHContinuousToken",
  "abi": [
    {
      "constant": true,
      "inputs": [],
      "name": "name",
      "outputs": [
        {
          "name": "",
          "type": "string"
        }
      ],
      "payable": false,
      "stateMutability": "view",
      "type": "function",
      "signature": "0x06fdde03"
    },
    {
      "constant": false,
      "inputs": [
        {
          "name": "spender",
          "type": "address"
        },
        {
          "name": "amount",
          "type": "uint256"
        }
      ],
      "name": "approve",
      "outputs": [
        {
          "name": "",
          "type": "bool"
        }
      ],
      "payable": false,
      "stateMutability": "nonpayable",
      "type": "function",
      "signature": "0x095ea7b3"
    },
    {
      "constant": true,
      "inputs": [],
      "name": "reserveRatio",
      "outputs": [
        {
          "name": "",
          "type": "uint32"
        }
      ],
      "payable": false,
      "stateMutability": "view",
      "type": "function",
      "signature": "0x0c7d5cd8"
    },
    {
      "constant": true,
      "inputs": [
        {
          "name": "_reserveTokenAmount",
          "type": "uint256"
        }
      ],
      "name": "getContinuousMintReward",
      "outputs": [
        {
          "name": "",
          "type": "uint256"
        }
      ],
      "payable": false,
      "stateMutability": "view",
      "type": "function",
      "signature": "0x0d8f9f7f"
    },
    {
      "constant": true,
      "inputs": [],
      "name": "totalSupply",
      "outputs": [
        {
          "name": "",
          "type": "uint256"
        }
      ],
      "payable": false,
      "stateMutability": "view",
      "type": "function",
      "signature": "0x18160ddd"
    },
    {
      "constant": false,
      "inputs": [
        {
          "name": "sender",
          "type": "address"
        },
        {
          "name": "recipient",
          "type": "address"
        },
        {
          "name": "amount",
          "type": "uint256"
        }
      ],
      "name": "transferFrom",
      "outputs": [
        {
          "name": "",
          "type": "bool"
        }
      ],
      "payable": false,
      "stateMutability": "nonpayable",
      "type": "function",
      "signature": "0x23b872dd"
    },
    {
      "constant": true,
      "inputs": [
        {
          "name": "_supply",
          "type": "uint256"
        },
        {
          "name": "_reserveBalance",
          "type": "uint256"
        },
        {
          "name": "_reserveRatio",
          "type": "uint32"
        },
        {
          "name": "_depositAmount",
          "type": "uint256"
        }
      ],
      "name": "calculatePurchaseReturn",
      "outputs": [
        {
          "name": "",
          "type": "uint256"
        }
      ],
      "payable": false,
      "stateMutability": "view",
      "type": "function",
      "signature": "0x29a00e7c"
    },
    {
      "constant": true,
      "inputs": [],
      "name": "decimals",
      "outputs": [
        {
          "name": "",
          "type": "uint8"
        }
      ],
      "payable": false,
      "stateMutability": "view",
      "type": "function",
      "signature": "0x313ce567"
    },
    {
      "constant": false,
      "inputs": [
        {
          "name": "spender",
          "type": "address"
        },
        {
          "name": "addedValue",
          "type": "uint256"
        }
      ],
      "name": "increaseAllowance",
      "outputs": [
        {
          "name": "",
          "type": "bool"
        }
      ],
      "payable": false,
      "stateMutability": "nonpayable",
      "type": "function",
      "signature": "0x39509351"
    },
    {
      "constant": true,
      "inputs": [],
      "name": "maxGasPrice",
      "outputs": [
        {
          "name": "",
          "type": "uint256"
        }
      ],
      "payable": false,
      "stateMutability": "view",
      "type": "function",
      "signature": "0x3de39c11"
    },
    {
      "constant": true,
      "inputs": [
        {
          "name": "_supply",
          "type": "uint256"
        },
        {
          "name": "_reserveBalance",
          "type": "uint256"
        },
        {
          "name": "_reserveRatio",
          "type": "uint32"
        },
        {
          "name": "_sellAmount",
          "type": "uint256"
        }
      ],
      "name": "calculateSaleReturn",
      "outputs": [
        {
          "name": "",
          "type": "uint256"
        }
      ],
      "payable": false,
      "stateMutability": "view",
      "type": "function",
      "signature": "0x49f9b0f7"
    },
    {
      "constant": true,
      "inputs": [],
      "name": "version",
      "outputs": [
        {
          "name": "",
          "type": "string"
        }
      ],
      "payable": false,
      "stateMutability": "view",
      "type": "function",
      "signature": "0x54fd4d50"
    },
    {
      "constant": true,
      "inputs": [
        {
          "name": "account",
          "type": "address"
        }
      ],
      "name": "balanceOf",
      "outputs": [
        {
          "name": "",
          "type": "uint256"
        }
      ],
      "payable": false,
      "stateMutability": "view",
      "type": "function",
      "signature": "0x70a08231"
    },
    {
      "constant": false,
      "inputs": [],
      "name": "renounceOwnership",
      "outputs": [],
      "payable": false,
      "stateMutability": "nonpayable",
      "type": "function",
      "signature": "0x715018a6"
    },
    {
      "constant": true,
      "inputs": [
        {
          "name": "_continuousTokenAmount",
          "type": "uint256"
        }
      ],
      "name": "getContinuousBurnRefund",
      "outputs": [
        {
          "name": "",
          "type": "uint256"
        }
      ],
      "payable": false,
      "stateMutability": "view",
      "type": "function",
      "signature": "0x7cbed3e0"
    },
    {
      "constant": true,
      "inputs": [],
      "name": "owner",
      "outputs": [
        {
          "name": "",
          "type": "address"
        }
      ],
      "payable": false,
      "stateMutability": "view",
      "type": "function",
      "signature": "0x8da5cb5b"
    },
    {
      "constant": true,
      "inputs": [],
      "name": "isOwner",
      "outputs": [
        {
          "name": "",
          "type": "bool"
        }
      ],
      "payable": false,
      "stateMutability": "view",
      "type": "function",
      "signature": "0x8f32d59b"
    },
    {
      "constant": true,
      "inputs": [],
      "name": "symbol",
      "outputs": [
        {
          "name": "",
          "type": "string"
        }
      ],
      "payable": false,
      "stateMutability": "view",
      "type": "function",
      "signature": "0x95d89b41"
    },
    {
      "constant": false,
      "inputs": [
        {
          "name": "_amount",
          "type": "uint256"
        }
      ],
      "name": "sponsoredBurn",
      "outputs": [],
      "payable": false,
      "stateMutability": "nonpayable",
      "type": "function",
      "signature": "0x96343886"
    },
    {
      "constant": false,
      "inputs": [
        {
          "name": "spender",
          "type": "address"
        },
        {
          "name": "subtractedValue",
          "type": "uint256"
        }
      ],
      "name": "decreaseAllowance",
      "outputs": [
        {
          "name": "",
          "type": "bool"
        }
      ],
      "payable": false,
      "stateMutability": "nonpayable",
      "type": "function",
      "signature": "0xa457c2d7"
    },
    {
      "constant": false,
      "inputs": [
        {
          "name": "recipient",
          "type": "address"
        },
        {
          "name": "amount",
          "type": "uint256"
        }
      ],
      "name": "transfer",
      "outputs": [
        {
          "name": "",
          "type": "bool"
        }
      ],
      "payable": false,
      "stateMutability": "nonpayable",
      "type": "function",
      "signature": "0xa9059cbb"
    },
    {
      "constant": false,
      "inputs": [
        {
          "name": "_from",
          "type": "address"
        },
        {
          "name": "_amount",
          "type": "uint256"
        }
      ],
      "name": "sponsoredBurnFrom",
      "outputs": [],
      "payable": false,
      "stateMutability": "nonpayable",
      "type": "function",
      "signature": "0xb265c702"
    },
    {
      "constant": false,
      "inputs": [
        {
          "name": "newPrice",
          "type": "uint256"
        }
      ],
      "name": "setMaxGasPrice",
      "outputs": [],
      "payable": false,
      "stateMutability": "nonpayable",
      "type": "function",
      "signature": "0xd2fa635e"
    },
    {
      "constant": true,
      "inputs": [],
      "name": "continuousSupply",
      "outputs": [
        {
          "name": "",
          "type": "uint256"
        }
      ],
      "payable": false,
      "stateMutability": "view",
      "type": "function",
      "signature": "0xda12457a"
    },
    {
      "constant": true,
      "inputs": [
        {
          "name": "owner",
          "type": "address"
        },
        {
          "name": "spender",
          "type": "address"
        }
      ],
      "name": "allowance",
      "outputs": [
        {
          "name": "",
          "type": "uint256"
        }
      ],
      "payable": false,
      "stateMutability": "view",
      "type": "function",
      "signature": "0xdd62ed3e"
    },
    {
      "constant": false,
      "inputs": [
        {
          "name": "newOwner",
          "type": "address"
        }
      ],
      "name": "transferOwnership",
      "outputs": [],
      "payable": false,
      "stateMutability": "nonpayable",
      "type": "function",
      "signature": "0xf2fde38b"
    },
    {
      "inputs": [
        {
          "name": "_name",
          "type": "string"
        },
        {
          "name": "_symbol",
          "type": "string"
        },
        {
          "name": "_decimals",
          "type": "uint8"
        },
        {
          "name": "_initialSupply",
          "type": "uint256"
        },
        {
          "name": "_reserveRatio",
          "type": "uint32"
        }
      ],
      "payable": true,
      "stateMutability": "payable",
      "type": "constructor",
      "signature": "constructor"
    },
    {
      "payable": true,
      "stateMutability": "payable",
      "type": "fallback"
    },
    {
      "anonymous": false,
      "inputs": [
        {
          "indexed": false,
          "name": "sender",
          "type": "address"
        },
        {
          "indexed": false,
          "name": "amount",
          "type": "uint256"
        },
        {
          "indexed": false,
          "name": "deposit",
          "type": "uint256"
        }
      ],
      "name": "Minted",
      "type": "event",
      "signature": "0x25b428dfde728ccfaddad7e29e4ac23c24ed7fd1a6e3e3f91894a9a073f5dfff"
    },
    {
      "anonymous": false,
      "inputs": [
        {
          "indexed": false,
          "name": "sender",
          "type": "address"
        },
        {
          "indexed": false,
          "name": "amount",
          "type": "uint256"
        },
        {
          "indexed": false,
          "name": "refund",
          "type": "uint256"
        }
      ],
      "name": "Burned",
      "type": "event",
      "signature": "0x23ff0e75edf108e3d0392d92e13e8c8a868ef19001bd49f9e94876dc46dff87f"
    },
    {
      "anonymous": false,
      "inputs": [
        {
          "indexed": true,
          "name": "previousOwner",
          "type": "address"
        },
        {
          "indexed": true,
          "name": "newOwner",
          "type": "address"
        }
      ],
      "name": "OwnershipTransferred",
      "type": "event",
      "signature": "0x8be0079c531659141344cd1fd0a4f28419497f9722a3daafe3b4186f6b6457e0"
    },
    {
      "anonymous": false,
      "inputs": [
        {
          "indexed": true,
          "name": "from",
          "type": "address"
        },
        {
          "indexed": true,
          "name": "to",
          "type": "address"
        },
        {
          "indexed": false,
          "name": "value",
          "type": "uint256"
        }
      ],
      "name": "Transfer",
      "type": "event",
      "signature": "0xddf252ad1be2c89b69c2b068fc378daa952ba7f163c4a11628f55a4df523b3ef"
    },
    {
      "anonymous": false,
      "inputs": [
        {
          "indexed": true,
          "name": "owner",
          "type": "address"
        },
        {
          "indexed": true,
          "name": "spender",
          "type": "address"
        },
        {
          "indexed": false,
          "name": "value",
          "type": "uint256"
        }
      ],
      "name": "Approval",
      "type": "event",
      "signature": "0x8c5be1e5ebec7d5bd14f71427d1e84f3dd0314c0f7b2291e5b200ac8c7c3b925"
    },
    {
      "constant": false,
      "inputs": [],
      "name": "mint",
      "outputs": [],
      "payable": true,
      "stateMutability": "payable",
      "type": "function",
      "signature": "0x1249c58b"
    },
    {
      "constant": false,
      "inputs": [
        {
          "name": "_amount",
          "type": "uint256"
        }
      ],
      "name": "burn",
      "outputs": [],
      "payable": false,
      "stateMutability": "nonpayable",
      "type": "function",
      "signature": "0x42966c68"
    },
    {
      "constant": true,
      "inputs": [],
      "name": "reserveBalance",
      "outputs": [
        {
          "name": "",
          "type": "uint256"
        }
      ],
      "payable": false,
      "stateMutability": "view",
      "type": "function",
      "signature": "0xa10954fe"
    }
  ],
  "bytecode": "0x60c0604052600360808190527f302e33000000000000000000000000000000000000000000000000000000000060a090815262000040916007919062000b51565b50670de0b6b3a764000060895560405162003d3938038062003d39833981018060405260a08110156200007257600080fd5b8101908080516401000000008111156200008b57600080fd5b820160208101848111156200009f57600080fd5b8151640100000000811182820187101715620000ba57600080fd5b50509291906020018051640100000000811115620000d757600080fd5b82016020810184811115620000eb57600080fd5b81516401000000008111828201871017156200010657600080fd5b505060208201516040830151606090930151919450925084848484848085858560006200013b640100000000620009ad810204565b60008054600160a060020a031916600160a060020a0383169081178255604051929350917f8be0079c531659141344cd1fd0a4f28419497f9722a3daafe3b4186f6b6457e0908290a35082516200019a90600490602086019062000b51565b508151620001b090600590602085019062000b51565b506006805460ff191660ff9290921691909117905550506001606060020a641c35fedd1502036028556001605e60020a646c3390ecc902036029556001606160020a640cf80147610203602a556001605f60020a6431bdb23e1d0203602b556001605b60020a6502fb1d8fe0830203602c556001605a60020a6505b771955b370203602d556001605960020a650af67a93bb510203602e556001605860020a6515060c256cb30203602f556001605860020a651428a2f98d7302036030556001605660020a654d515663970902036031556001605560020a65944620b0e70f02036032557011c592761c666fffffffffffffffffffff60335570110a688680a757ffffffffffffffffffff603455701056f1b5bedf77ffffffffffffffffffff603555700faadceceeff8bffffffffffffffffffff603655700f05dc6b27edadffffffffffffffffffff603755700e67a5a25da4107fffffffffffffffffff603855700dcff115b14eedffffffffffffffffffff603955700d3e7a392431239fffffffffffffffffff603a55700cb2ff529eb71e4fffffffffffffffffff603b55700c2d415c3db974afffffffffffffffffff603c55700bad03e7d883f69bffffffffffffffffff603d55700b320d03b2c343d5ffffffffffffffffff603e55700abc25204e02828dffffffffffffffffff603f55700a4b16f74ee4bb207fffffffffffffffff6040557009deaf736ac1f569ffffffffffffffffff604155700976bd9952c7aa957fffffffffffffffff6042557009131271922eaa606fffffffffffffffff6043557008b380f3558668c46fffffffffffffffff604455700857ddf0117efa215bffffffffffffffff6045556001608360020a036046557007abbf6f6abb9d087fffffffffffffffff60475570075af62cbac95f7dfa7fffffffffffffff60485570070d7fb7452e187ac13fffffffffffffff6049557006c3390ecc8af379295fffffffffffffff604a5570067c00a3b07ffc01fd6fffffffffffffff604b55700637b647c39cbb9d3d27ffffffffffffff604c557005f63b1fc104dbd39587ffffffffffffff604d557005b771955b36e12f7235ffffffffffffff604e5570057b3d49dda84556d6f6ffffffffffffff604f5570054183095b2c8ececf30ffffffffffffff60505570050a28be635ca2b888f77fffffffffffff6051557004d5156639708c9db33c3fffffffffffff6052557004a23105873875bd52dfdfffffffffffff605355700471649d87199aa990756fffffffffffff6054557004429a21a029d4c1457cfbffffffffffff605555700415bc6d6fb7dd71af2cb3ffffffffffff6056557003eab73b3bbfe282243ce1ffffffffffff6057557003c1771ac9fb6b4c18e229ffffffffffff605855700399e96897690418f785257fffffffffff605955700373fc456c53bb779bf0ea9fffffffffff605a5570034f9e8e490c48e67e6ab8bfffffffffff605b5570032cbfd4a7adc790560b3337ffffffffff605c5570030b50570f6e5d2acca94613ffffffffff605d557002eb40f9f620fda6b56c2861ffffffffff605e557002cc8340ecb0d0f520a6af58ffffffffff605f557002af09481380a0a35cf1ba02ffffffffff606055700292c5bdd3b92ec810287b1b3fffffffff606155700277abdcdab07d5a77ac6d6b9fffffffff60625570025daf6654b1eaa55fd64df5efffffffff606355700244c49c648baa98192dce88b7ffffffff60645570022ce03cd5619a311b2471268bffffffff606555700215f77c045fbe885654a44a0fffffffff6066556001608160020a036067557001eaefdbdaaee7421fc4d3ede5ffffffff6068557001d6bd8b2eb257df7e8ca57b09bfffffff6069557001c35fedd14b861eb0443f7f133fffffff606a557001b0ce43b322bcde4a56e8ada5afffffff606b5570019f0028ec1fff007f5a195a39dfffffff606c5570018ded91f0e72ee74f49b15ba527ffffff606d5570017d8ec7f04136f4e5615fd41a63ffffff606e5570016ddc6556cdb84bdc8d12d22e6fffffff606f5570015ecf52776a1155b5bd8395814f7fffff60705570015060c256cb23b3b3cc3754cf40ffffff6071557001428a2f98d728ae223ddab715be3fffff60725570013545598e5c23276ccf0ede68034fffff6073557001288c4161ce1d6f54b7f61081194fffff60745570011c592761c666aa641d5a01a40f17ffff607555700110a688680a7530515f3e6e6cfdcdffff6076557001056f1b5bedf75c6bcb2ce8aed428ffff6077556ffaadceceeff8a0890f3875f008277fff6078556ff05dc6b27edad306388a600f6ba0bfff6079556fe67a5a25da41063de1495d5b18cdbfff607a556fdcff115b14eedde6fc3aa5353f2e4fff607b556fd3e7a3924312399f9aae2e0f868f8fff607c556fcb2ff529eb71e41582cccd5a1ee26fff607d556fc2d415c3db974ab32a51840c0b67edff607e556fbad03e7d883f69ad5b0a186184e06bff607f556fb320d03b2c343d4829abd6075f0cc5ff6080556fabc25204e02828d73c6e80bcdb1a95bf6081556fa4b16f74ee4bb2040a1ec6c15fbbf2df6082556f9deaf736ac1f569deb1b5ae3f36c130f6083556f976bd9952c7aa957f5937d790ef650376084556f9131271922eaa6064b73a22d0bd4f2bf6085556f8b380f3558668c46c91c49a2f8e967b96086556f857ddf0117efa215952912839f6473e66087556088805463ffffffff191663ffffffff92909216919091179055620009983383640100000000620009b2810204565b505034608a555062000bf39650505050505050565b335b90565b600160a060020a038216151562000a2a57604080517f08c379a000000000000000000000000000000000000000000000000000000000815260206004820152601f60248201527f45524332303a206d696e7420746f20746865207a65726f206164647265737300604482015290519081900360640190fd5b60035462000a4790826401000000006200127262000ad582021704565b600355600160a060020a03821660009081526001602052604090205462000a7d90826401000000006200127262000ad582021704565b600160a060020a03831660008181526001602090815260408083209490945583518581529351929391927fddf252ad1be2c89b69c2b068fc378daa952ba7f163c4a11628f55a4df523b3ef9281900390910190a35050565b60008282018381101562000b4a57604080517f08c379a000000000000000000000000000000000000000000000000000000000815260206004820152601b60248201527f536166654d6174683a206164646974696f6e206f766572666c6f770000000000604482015290519081900360640190fd5b9392505050565b828054600181600116156101000203166002900490600052602060002090601f016020900481019282601f1062000b9457805160ff191683800117855562000bc4565b8280016001018555821562000bc4579182015b8281111562000bc457825182559160200191906001019062000ba7565b5062000bd292915062000bd6565b5090565b620009af91905b8082111562000bd2576000815560010162000bdd565b6131368062000c036000396000f3fe6080604052600436106101df576000357c01000000000000000000000000000000000000000000000000000000009004806370a0823111610114578063a10954fe116100b2578063d2fa635e11610081578063d2fa635e146106dd578063da12457a14610707578063dd62ed3e1461071c578063f2fde38b14610764576101df565b8063a10954fe146105f6578063a457c2d71461060b578063a9059cbb14610651578063b265c70214610697576101df565b80638da5cb5b116100ee5780638da5cb5b146105645780638f32d59b146105a257806395d89b41146105b757806396343886146105cc576101df565b806370a08231146104e5578063715018a6146105255780637cbed3e01461053a576101df565b806329a00e7c116101815780633de39c111161015b5780633de39c111461044f57806342966c681461046457806349f9b0f71461048e57806354fd4d50146104d0576101df565b806329a00e7c1461039c578063313ce567146103de5780633950935114610409576101df565b80630d8f9f7f116101bd5780630d8f9f7f146102fb5780631249c58b146101df57806318160ddd1461033757806323b872dd1461034c576101df565b806306fdde03146101e9578063095ea7b3146102735780630c7d5cd8146102cd575b6101e76107a4565b005b3480156101f557600080fd5b506101fe6107c8565b6040805160208082528351818301528351919283929083019185019080838360005b83811015610238578181015183820152602001610220565b50505050905090810190601f1680156102655780820380516001836020036101000a031916815260200191505b509250505060405180910390f35b34801561027f57600080fd5b506102b96004803603604081101561029657600080fd5b5073ffffffffffffffffffffffffffffffffffffffff813516906020013561085e565b604080519115158252519081900360200190f35b3480156102d957600080fd5b506102e261087c565b6040805163ffffffff9092168252519081900360200190f35b34801561030757600080fd5b506103256004803603602081101561031e57600080fd5b5035610888565b60408051918252519081900360200190f35b34801561034357600080fd5b506103256108b4565b34801561035857600080fd5b506102b96004803603606081101561036f57600080fd5b5073ffffffffffffffffffffffffffffffffffffffff8135811691602081013590911690604001356108ba565b3480156103a857600080fd5b50610325600480360360808110156103bf57600080fd5b5080359060208101359063ffffffff6040820135169060600135610962565b3480156103ea57600080fd5b506103f3610aa5565b6040805160ff9092168252519081900360200190f35b34801561041557600080fd5b506102b96004803603604081101561042c57600080fd5b5073ffffffffffffffffffffffffffffffffffffffff8135169060200135610aae565b34801561045b57600080fd5b50610325610b0f565b34801561047057600080fd5b506101e76004803603602081101561048757600080fd5b5035610b15565b34801561049a57600080fd5b50610325600480360360808110156104b157600080fd5b5080359060208101359063ffffffff6040820135169060600135610b6b565b3480156104dc57600080fd5b506101fe610cb6565b3480156104f157600080fd5b506103256004803603602081101561050857600080fd5b503573ffffffffffffffffffffffffffffffffffffffff16610d44565b34801561053157600080fd5b506101e7610d6c565b34801561054657600080fd5b506103256004803603602081101561055d57600080fd5b5035610e3e565b34801561057057600080fd5b50610579610e62565b6040805173ffffffffffffffffffffffffffffffffffffffff9092168252519081900360200190f35b3480156105ae57600080fd5b506102b9610e7e565b3480156105c357600080fd5b506101fe610ebc565b3480156105d857600080fd5b506101e7600480360360208110156105ef57600080fd5b5035610f1d565b34801561060257600080fd5b50610325610f6a565b34801561061757600080fd5b506102b96004803603604081101561062e57600080fd5b5073ffffffffffffffffffffffffffffffffffffffff8135169060200135610f70565b34801561065d57600080fd5b506102b96004803603604081101561067457600080fd5b5073ffffffffffffffffffffffffffffffffffffffff8135169060200135610fec565b3480156106a357600080fd5b506101e7600480360360408110156106ba57600080fd5b5073ffffffffffffffffffffffffffffffffffffffff8135169060200135611000565b3480156106e957600080fd5b506101e76004803603602081101561070057600080fd5b503561104e565b34801561071357600080fd5b506103256110b6565b34801561072857600080fd5b506103256004803603604081101561073f57600080fd5b5073ffffffffffffffffffffffffffffffffffffffff813581169160200135166110c5565b34801561077057600080fd5b506101e76004803603602081101561078757600080fd5b503573ffffffffffffffffffffffffffffffffffffffff166110fd565b346107ae8161116c565b50608a546107c2908263ffffffff61127216565b608a5550565b60048054604080516020601f60026000196101006001881615020190951694909404938401819004810282018101909252828152606093909290918301828280156108545780601f1061082957610100808354040283529160200191610854565b820191906000526020600020905b81548152906001019060200180831161083757829003601f168201915b5050505050905090565b600061087261086b6112db565b84846112df565b5060015b92915050565b60885463ffffffff1681565b60006108ac6108956110b6565b61089d610f6a565b60885463ffffffff1685610962565b90505b919050565b60035490565b60006108c7848484611406565b610958846108d36112db565b61095385606060405190810160405280602881526020016130306028913973ffffffffffffffffffffffffffffffffffffffff8a1660009081526002602052604081209061091f6112db565b73ffffffffffffffffffffffffffffffffffffffff168152602081019190915260400160002054919063ffffffff6115ba16565b6112df565b5060019392505050565b600080851180156109735750600084115b8015610985575060008363ffffffff16115b801561099a5750620f424063ffffffff841611155b15156109f55760408051600080516020612fef833981519152815260206004820152600f60248201527f496e76616c696420696e707574732e0000000000000000000000000000000000604482015290519081900360640190fd5b811515610a0457506000610a9d565b63ffffffff8316620f42401415610a3c57610a3584610a29878563ffffffff61165916565b9063ffffffff6116be16565b9050610a9d565b60008080610a50858863ffffffff61127216565b9050610a61818888620f4240611700565b9093509150600060ff8316610a7c8a8663ffffffff61165916565b60029190910a90049050610a96818a63ffffffff6118ac16565b9450505050505b949350505050565b60065460ff1690565b6000610872610abb6112db565b846109538560026000610acc6112db565b73ffffffffffffffffffffffffffffffffffffffff908116825260208083019390935260409182016000908120918c16815292529020549063ffffffff61127216565b60895481565b6000610b20826118ee565b608a54909150610b36908263ffffffff6118ac16565b608a55604051339082156108fc029083906000818181858888f19350505050158015610b66573d6000803e3d6000fd5b505050565b60008085118015610b7c5750600084115b8015610b8e575060008363ffffffff16115b8015610ba35750620f424063ffffffff841611155b8015610baf5750848211155b1515610c0a5760408051600080516020612fef833981519152815260206004820152600f60248201527f496e76616c696420696e707574732e0000000000000000000000000000000000604482015290519081900360640190fd5b811515610c1957506000610a9d565b84821415610c28575082610a9d565b63ffffffff8316620f42401415610c4d57610a3585610a29868563ffffffff61165916565b60008080610c61888663ffffffff6118ac16565b9050610c728882620f424089611700565b90935091506000610c89888563ffffffff61165916565b905060ff831660020a8802610ca885610a29848463ffffffff6118ac16565b9a9950505050505050505050565b6007805460408051602060026001851615610100026000190190941693909304601f81018490048402820184019092528181529291830182828015610d3c5780601f10610d1157610100808354040283529160200191610d3c565b820191906000526020600020905b815481529060010190602001808311610d1f57829003601f168201915b505050505081565b73ffffffffffffffffffffffffffffffffffffffff1660009081526001602052604090205490565b610d74610e7e565b1515610dcf5760408051600080516020612fef833981519152815260206004820181905260248201527f4f776e61626c653a2063616c6c6572206973206e6f7420746865206f776e6572604482015290519081900360640190fd5b6000805460405173ffffffffffffffffffffffffffffffffffffffff909116907f8be0079c531659141344cd1fd0a4f28419497f9722a3daafe3b4186f6b6457e0908390a3600080547fffffffffffffffffffffffff0000000000000000000000000000000000000000169055565b60006108ac610e4b6110b6565b610e53610f6a565b60885463ffffffff1685610b6b565b60005473ffffffffffffffffffffffffffffffffffffffff1690565b6000805473ffffffffffffffffffffffffffffffffffffffff16610ea06112db565b73ffffffffffffffffffffffffffffffffffffffff1614905090565b60058054604080516020601f60026000196101006001881615020190951694909404938401819004810282018101909252828152606093909290918301828280156108545780601f1061082957610100808354040283529160200191610854565b610f273382611a59565b604080513381526020810183905260008183015290517f23ff0e75edf108e3d0392d92e13e8c8a868ef19001bd49f9e94876dc46dff87f9181900360600190a150565b608a5490565b6000610872610f7d6112db565b8461095385606060405190810160405280602581526020016130e66025913960026000610fa86112db565b73ffffffffffffffffffffffffffffffffffffffff908116825260208083019390935260409182016000908120918d1681529252902054919063ffffffff6115ba16565b6000610872610ff96112db565b8484611406565b61100a8282611b94565b604080513381526020810183905260008183015290517f23ff0e75edf108e3d0392d92e13e8c8a868ef19001bd49f9e94876dc46dff87f9181900360600190a15050565b611056610e7e565b15156110b15760408051600080516020612fef833981519152815260206004820181905260248201527f4f776e61626c653a2063616c6c6572206973206e6f7420746865206f776e6572604482015290519081900360640190fd5b608955565b60006110c06108b4565b905090565b73ffffffffffffffffffffffffffffffffffffffff918216600090815260026020908152604080832093909416825291909152205490565b611105610e7e565b15156111605760408051600080516020612fef833981519152815260206004820181905260248201527f4f776e61626c653a2063616c6c6572206973206e6f7420746865206f776e6572604482015290519081900360640190fd5b61116981611bfa565b50565b6089546000903a11156111b857604051600080516020612fef8339815191528152600401808060200182810382526048815260200180612f816048913960600191505060405180910390fd5b600082116112155760408051600080516020612fef833981519152815260206004820152601960248201527f4465706f736974206d757374206265206e6f6e2d7a65726f2e00000000000000604482015290519081900360640190fd5b600061122083610888565b905061122c3382611ce3565b604080513381526020810183905280820185905290517f25b428dfde728ccfaddad7e29e4ac23c24ed7fd1a6e3e3f91894a9a073f5dfff9181900360600190a192915050565b6000828201838110156112d45760408051600080516020612fef833981519152815260206004820152601b60248201527f536166654d6174683a206164646974696f6e206f766572666c6f770000000000604482015290519081900360640190fd5b9392505050565b3390565b73ffffffffffffffffffffffffffffffffffffffff8316151561133b57604051600080516020612fef83398151915281526004018080602001828103825260248152602001806130c26024913960400191505060405180910390fd5b73ffffffffffffffffffffffffffffffffffffffff8216151561139757604051600080516020612fef8339815191528152600401808060200182810382526022815260200180612f5f6022913960400191505060405180910390fd5b73ffffffffffffffffffffffffffffffffffffffff808416600081815260026020908152604080832094871680845294825291829020859055815185815291517f8c5be1e5ebec7d5bd14f71427d1e84f3dd0314c0f7b2291e5b200ac8c7c3b9259281900390910190a3505050565b73ffffffffffffffffffffffffffffffffffffffff8316151561146257604051600080516020612fef833981519152815260040180806020018281038252602581526020018061309d6025913960400191505060405180910390fd5b73ffffffffffffffffffffffffffffffffffffffff821615156114be57604051600080516020612fef8339815191528152600401808060200182810382526023815260200180612ef46023913960400191505060405180910390fd5b61150f8160606040519081016040528060268152602001612fc96026913973ffffffffffffffffffffffffffffffffffffffff8616600090815260016020526040902054919063ffffffff6115ba16565b73ffffffffffffffffffffffffffffffffffffffff8085166000908152600160205260408082209390935590841681522054611551908263ffffffff61127216565b73ffffffffffffffffffffffffffffffffffffffff80841660008181526001602090815260409182902094909455805185815290519193928716927fddf252ad1be2c89b69c2b068fc378daa952ba7f163c4a11628f55a4df523b3ef92918290030190a3505050565b6000818484111561165157604051600080516020612fef83398151915281526004018080602001828103825283818151815260200191508051906020019080838360005b838110156116165781810151838201526020016115fe565b50505050905090810190601f1680156116435780820380516001836020036101000a031916815260200191505b509250505060405180910390fd5b505050900390565b600082151561166a57506000610876565b82820282848281151561167957fe5b04146112d457604051600080516020612fef833981519152815260040180806020018281038252602181526020018061300f6021913960400191505060405180910390fd5b60006112d483836040805190810160405280601a81526020017f536166654d6174683a206469766973696f6e206279207a65726f000000000000815250611e06565b60008070020000000000000000000000000000000086106117705760408051600080516020612fef833981519152815260206004820152601860248201527f626173654e2065786365656473206d61782076616c75652e0000000000000000604482015290519081900360640190fd5b848610156117cd5760408051600080516020612fef833981519152815260206004820152601c60248201527f4261736573203c203120617265206e6f7420737570706f727465642e00000000604482015290519081900360640190fd5b600080866f8000000000000000000000000000000089028115156117ed57fe5b04905070015bf0a8b1457695355fb8ac404e7a79e38110156118195761181281611e78565b9150611825565b6118228161236c565b91505b60008563ffffffff168763ffffffff16840281151561184057fe5b049050700800000000000000000000000000000000811015611873576118658161246b565b607f945094505050506118a3565b600061187e82612950565b905061189660ff607f8390031660020a8304826129e2565b955093506118a392505050565b94509492505050565b60006112d483836040805190810160405280601e81526020017f536166654d6174683a207375627472616374696f6e206f766572666c6f7700008152506115ba565b6089546000903a111561193a57604051600080516020612fef8339815191528152600401808060200182810382526048815260200180612f816048913960600191505060405180910390fd5b600082116119975760408051600080516020612fef833981519152815260206004820152601860248201527f416d6f756e74206d757374206265206e6f6e2d7a65726f2e0000000000000000604482015290519081900360640190fd5b816119a133610d44565b10156119fc5760408051600080516020612fef833981519152815260206004820152601c60248201527f496e73756666696369656e7420746f6b656e7320746f206275726e2e00000000604482015290519081900360640190fd5b6000611a0783610e3e565b9050611a133384611a59565b604080513381526020810185905280820183905290517f23ff0e75edf108e3d0392d92e13e8c8a868ef19001bd49f9e94876dc46dff87f9181900360600190a192915050565b73ffffffffffffffffffffffffffffffffffffffff82161515611ab557604051600080516020612fef833981519152815260040180806020018281038252602181526020018061307c6021913960400191505060405180910390fd5b611b068160606040519081016040528060228152602001612f176022913973ffffffffffffffffffffffffffffffffffffffff8516600090815260016020526040902054919063ffffffff6115ba16565b73ffffffffffffffffffffffffffffffffffffffff8316600090815260016020526040902055600354611b3f908263ffffffff6118ac16565b60035560408051828152905160009173ffffffffffffffffffffffffffffffffffffffff8516917fddf252ad1be2c89b69c2b068fc378daa952ba7f163c4a11628f55a4df523b3ef9181900360200190a35050565b611b9e8282611a59565b611bf682611baa6112db565b61095384606060405190810160405280602481526020016130586024913973ffffffffffffffffffffffffffffffffffffffff881660009081526002602052604081209061091f6112db565b5050565b73ffffffffffffffffffffffffffffffffffffffff81161515611c5657604051600080516020612fef8339815191528152600401808060200182810382526026815260200180612f396026913960400191505060405180910390fd5b6000805460405173ffffffffffffffffffffffffffffffffffffffff808516939216917f8be0079c531659141344cd1fd0a4f28419497f9722a3daafe3b4186f6b6457e091a3600080547fffffffffffffffffffffffff00000000000000000000000000000000000000001673ffffffffffffffffffffffffffffffffffffffff92909216919091179055565b73ffffffffffffffffffffffffffffffffffffffff82161515611d555760408051600080516020612fef833981519152815260206004820152601f60248201527f45524332303a206d696e7420746f20746865207a65726f206164647265737300604482015290519081900360640190fd5b600354611d68908263ffffffff61127216565b60035573ffffffffffffffffffffffffffffffffffffffff8216600090815260016020526040902054611da1908263ffffffff61127216565b73ffffffffffffffffffffffffffffffffffffffff831660008181526001602090815260408083209490945583518581529351929391927fddf252ad1be2c89b69c2b068fc378daa952ba7f163c4a11628f55a4df523b3ef9281900390910190a35050565b600081818411611e6057604051600080516020612fef8339815191528152600401808060200182810382528381815181526020019150805190602001908083836000838110156116165781810151838201526020016115fe565b5060008385811515611e6e57fe5b0495945050505050565b6000808080806fd3094c70f034de4b96ff7d5b6f99fcd88610611ed3576f4000000000000000000000000000000093909301926fd3094c70f034de4b96ff7d5b6f99fcd86f8000000000000000000000000000000087020495505b6fa45af1e1f40c333b3de1db4dd55f29a78610611f28576f2000000000000000000000000000000093909301926fa45af1e1f40c333b3de1db4dd55f29a76f8000000000000000000000000000000087020495505b6f910b022db7ae67ce76b441c27035c6a18610611f7d576f1000000000000000000000000000000093909301926f910b022db7ae67ce76b441c27035c6a16f8000000000000000000000000000000087020495505b6f88415abbe9a76bead8d00cf112e4d4a88610611fd2576f0800000000000000000000000000000093909301926f88415abbe9a76bead8d00cf112e4d4a86f8000000000000000000000000000000087020495505b6f84102b00893f64c705e841d5d4064bd38610612027576f0400000000000000000000000000000093909301926f84102b00893f64c705e841d5d4064bd36f8000000000000000000000000000000087020495505b6f8204055aaef1c8bd5c3259f4822735a2861061207c576f0200000000000000000000000000000093909301926f8204055aaef1c8bd5c3259f4822735a26f8000000000000000000000000000000087020495505b6f810100ab00222d861931c15e39b44e9986106120d1576f0100000000000000000000000000000093909301926f810100ab00222d861931c15e39b44e996f8000000000000000000000000000000087020495505b6f808040155aabbbe9451521693554f7338610612125576e80000000000000000000000000000093909301926f808040155aabbbe9451521693554f7336f8000000000000000000000000000000087020495505b7fffffffffffffffffffffffffffffffff80000000000000000000000000000000860192508291506f8000000000000000000000000000000082800204905070010000000000000000000000000000000083810383020493909301926f800000000000000000000000000000008282020491507002000000000000000000000000000000006faaaaaaaaaaaaaaaaaaaaaaaaaaaaaaaa84900383020493909301926f800000000000000000000000000000008282020491507003000000000000000000000000000000006f9999999999999999999999999999999984900383020493909301926f800000000000000000000000000000008282020491507004000000000000000000000000000000006f9249249249249249249249249249249284900383020493909301926f800000000000000000000000000000008282020491507005000000000000000000000000000000006f8e38e38e38e38e38e38e38e38e38e38e84900383020493909301926f800000000000000000000000000000008282020491507006000000000000000000000000000000006f8ba2e8ba2e8ba2e8ba2e8ba2e8ba2e8b84900383020493909301926f800000000000000000000000000000008282020491507007000000000000000000000000000000006f89d89d89d89d89d89d89d89d89d89d8984900383020493909301926f800000000000000000000000000000008282020491507008000000000000000000000000000000006f888888888888888888888888888888888490038302049390930195945050505050565b6000808270010000000000000000000000000000000081106123c65760006123a56f800000000000000000000000000000008304612e84565b60ff166f800000000000000000000000000000008102935060020a90910490505b6f8000000000000000000000000000000081111561243e57607f5b60008160ff16111561243c576f8000000000000000000000000000000082800204915070010000000000000000000000000000000082106124335760ff600019820116600290810a9390930192909104905b600019016123e1565b505b6f05b9de1d10bf4103d647b0955897ba806f03f80fe03f80fe03f80fe03f80fe03f8830204949350505050565b6000670168244fdac780006f800000000000000000000000000000006f0fffffffffffffffffffffffffffffff84168080028290048082028390048083028490049485026710e1b3be415a00009092026705a0913f6b1e000091909102010192909181830204905080664807432bc1800002830192506f800000000000000000000000000000008282028115156124fe57fe5b04905080660c0135dca0400002830192506f8000000000000000000000000000000082820281151561252c57fe5b049050806601b707b1cdc00002830192506f8000000000000000000000000000000082820281151561255a57fe5b049050806536e0f639b80002830192506f8000000000000000000000000000000082820281151561258757fe5b04905080650618fee9f80002830192506f800000000000000000000000000000008282028115156125b457fe5b04905080649c197dcc0002830192506f800000000000000000000000000000008282028115156125e057fe5b04905080640e30dce40002830192506f8000000000000000000000000000000082820281151561260c57fe5b0490508064012ebd130002830192506f8000000000000000000000000000000082820281151561263857fe5b049050806317499f0002830192506f8000000000000000000000000000000082820281151561266357fe5b049050806301a9d48002830192506f8000000000000000000000000000000082820281151561268e57fe5b04905080621c638002830192506f800000000000000000000000000000008282028115156126b857fe5b049050806201c63802830192506f800000000000000000000000000000008282028115156126e257fe5b04905080611ab802830192506f8000000000000000000000000000000082820281151561270b57fe5b0490508061017c02830192506f8000000000000000000000000000000082820281151561273457fe5b04905080601402830192506f8000000000000000000000000000000082820281151561275c57fe5b6721c3677c82b400009190049384010482016f80000000000000000000000000000000019290506f100000000000000000000000000000008516156127c55770018ebef9eac820ae8682b9793ac6d1e7767001c3d6a24ed82218787d624d3e5eba95f984020492505b6f20000000000000000000000000000000851615612807577001368b2fc6f9609fe7aceb46aa619baed470018ebef9eac820ae8682b9793ac6d1e77884020492505b6f40000000000000000000000000000000851615612848576fbc5ab1b16779be3575bd8f0520a9f21f7001368b2fc6f9609fe7aceb46aa619baed584020492505b6f80000000000000000000000000000000851615612888576f454aaa8efe072e7f6ddbab84b40a55c96fbc5ab1b16779be3575bd8f0520a9f21e84020492505b7001000000000000000000000000000000008516156128c9576f0960aadc109e7a3bf4578099615711ea6f454aaa8efe072e7f6ddbab84b40a55c584020492505b700200000000000000000000000000000000851615612909576e2bf84208204f5977f9a8cf01fdce3d6f0960aadc109e7a3bf4578099615711d784020492505b700400000000000000000000000000000000851615612947576d03c6ab775dd0b95b4cbee7e65d116e2bf84208204f5977f9a8cf01fdc30784020492505b50909392505050565b60006020607f5b8060ff168260010160ff16101561299f576000600260ff8484011604905084600860ff83166080811061298657fe5b01541061299557809250612999565b8091505b50612957565b83600860ff8316608081106129b057fe5b0154106129c05791506108af9050565b83600860ff8416608081106129d157fe5b0154106129e0575090506108af565bfe5b60008083905060008090508360ff16858302908060020a82049150509150816f03442c4e6074a82f1797f72ac000000002810190508360ff16858302908060020a82049150509150816f0116b96f757c380fb287fd0e4000000002810190508360ff16858302908060020a82049150509150816e45ae5bdd5f0e03eca1ff439000000002810190508360ff16858302908060020a82049150509150816e0defabf91302cd95b9ffda5000000002810190508360ff16858302908060020a82049150509150816e02529ca9832b22439efff9b800000002810190508360ff16858302908060020a82049150509150816d54f1cf12bd04e516b6da8800000002810190508360ff16858302908060020a82049150509150816d0a9e39e257a09ca2d6db5100000002810190508360ff16858302908060020a82049150509150816d012e066e7b839fa050c30900000002810190508360ff16858302908060020a82049150509150816c1e33d7d926c329a1ad1a80000002810190508360ff16858302908060020a82049150509150816c02bee513bdb4a6b19b5f80000002810190508360ff16858302908060020a82049150509150816b3a9316fa79b88eccf2a0000002810190508360ff16858302908060020a82049150509150816b048177ebe1fa81237520000002810190508360ff16858302908060020a82049150509150816a5263fe90242dcbacf0000002810190508360ff16858302908060020a82049150509150816a057e22099c030d9410000002810190508360ff16858302908060020a82049150509150816957e22099c030d941000002810190508360ff16858302908060020a820491505091508169052b6b5456997631000002810190508360ff16858302908060020a8204915050915081684985f67696bf74800002810190508360ff16858302908060020a82049150509150816803dea12ea99e49800002810190508360ff16858302908060020a82049150509150816731880f2214b6e00002810190508360ff16858302908060020a820491505091508167025bcff56eb3600002810190508360ff16858302908060020a8204915050915081661b722e10ab100002810190508360ff16858302908060020a82049150509150816601317c7007700002810190508360ff16858302908060020a8204915050915081650cba84aafa0002810190508360ff16858302908060020a82049150509150816482573a0a0002810190508360ff16858302908060020a82049150509150816405035ad90002810190508360ff16858302908060020a8204915050915081632f881b0002810190508360ff16858302908060020a82049150509150816301b2934002810190508360ff16858302908060020a8204915050915081620efc4002810190508360ff16858302908060020a8204915050915081617fe002810190508360ff16858302908060020a820491505091508161042002810190508360ff16858302908060020a8204915050915081602102810190508360ff16858302908060020a8204915050915081600102810190508360ff1660019060020a02856f0688589cc0e9505e2f2fee558000000083811515612e7857fe5b04010195945050505050565b60008082610100811015612eb1575b6001811115612eac576001919091019060029004612e93565b612eec565b60805b60008160ff161115612eea5760ff811660020a8210612edd579182179160ff811660020a909104905b600260ff90911604612eb4565b505b509291505056fe45524332303a207472616e7366657220746f20746865207a65726f206164647265737345524332303a206275726e20616d6f756e7420657863656564732062616c616e63654f776e61626c653a206e6577206f776e657220697320746865207a65726f206164647265737345524332303a20617070726f766520746f20746865207a65726f2061646472657373476173207072696365206d757374206265203c3d206d6178696d756d2067617320707269636520746f2070726576656e742066726f6e742072756e6e696e672061747461636b732e45524332303a207472616e7366657220616d6f756e7420657863656564732062616c616e636508c379a000000000000000000000000000000000000000000000000000000000536166654d6174683a206d756c7469706c69636174696f6e206f766572666c6f7745524332303a207472616e7366657220616d6f756e74206578636565647320616c6c6f77616e636545524332303a206275726e20616d6f756e74206578636565647320616c6c6f77616e636545524332303a206275726e2066726f6d20746865207a65726f206164647265737345524332303a207472616e736665722066726f6d20746865207a65726f206164647265737345524332303a20617070726f76652066726f6d20746865207a65726f206164647265737345524332303a2064656372656173656420616c6c6f77616e63652062656c6f77207a65726fa165627a7a72305820dce2637f94fc32f6dec1dbe880f39250b9c44ff72b85b6f4e7c26b8e4553fec00029",
  "source": "pragma solidity ^0.5.2;\n\nimport \"./ContinuousToken.sol\";\n\n\ncontract ETHContinuousToken is ContinuousToken {\n    uint256 internal reserve;\n  \n    constructor(\n        string memory _name,\n        string memory _symbol,\n        uint8 _decimals,\n        uint _initialSupply,\n        uint32 _reserveRatio\n    ) public payable ContinuousToken(_name, _symbol, _decimals, _initialSupply, _reserveRatio) {\n        reserve = msg.value;\n    }\n\n    function () external payable { mint(); }\n\n    function mint() public payable {\n        uint purchaseAmount = msg.value;\n        _continuousMint(purchaseAmount);\n        reserve = reserve.add(purchaseAmount);\n    }\n\n    function burn(uint _amount) public {\n        uint refundAmount = _continuousBurn(_amount);\n        reserve = reserve.sub(refundAmount);\n        msg.sender.transfer(refundAmount);\n    }\n\n    function reserveBalance() public view returns (uint) {\n        return reserve;\n    }    \n}",
  "sourcePath": "/Users/feewet/dev/ethdenver/solidity/bound/truffle/contracts/token/ETHContinuousToken.sol",
  "compiler": {
    "name": "solc",
    "version": "0.5.2+commit.1df8f40c.Emscripten.clang"
  },
  "schemaVersion": "3.0.1",
  "updatedAt": "2020-02-15T17:14:22.571Z",
  "devdoc": {
    "methods": {
      "allowance(address,address)": {
        "details": "See {IERC20-allowance}."
      },
      "approve(address,uint256)": {
        "details": "See {IERC20-approve}.     * Requirements:     * - `spender` cannot be the zero address."
      },
      "balanceOf(address)": {
        "details": "See {IERC20-balanceOf}."
      },
      "calculatePurchaseReturn(uint256,uint256,uint32,uint256)": {
        "details": "given a continuous token supply, reserve token balance, reserve ratio, and a deposit amount (in the reserve token), calculates the return for a given conversion (in the continuous token)    * Formula: Return = _supply * ((1 + _depositAmount / _reserveBalance) ^ (_reserveRatio / MAX_RESERVE_RATIO) - 1)",
        "params": {
          "_depositAmount": "deposit amount, in reserve token",
          "_reserveBalance": "total reserve token balance",
          "_reserveRatio": "reserve ratio, represented in ppm, 1-1000000",
          "_supply": "continuous token total supply"
        },
        "return": "purchase return amount"
      },
      "calculateSaleReturn(uint256,uint256,uint32,uint256)": {
        "details": "given a continuous token supply, reserve token balance, reserve ratio and a sell amount (in the continuous token), calculates the return for a given conversion (in the reserve token)    * Formula: Return = _reserveBalance * (1 - (1 - _sellAmount / _supply) ^ (1 / (_reserveRatio / MAX_RESERVE_RATIO)))",
        "params": {
          "_reserveBalance": "total reserve token balance",
          "_reserveRatio": "constant reserve ratio, represented in ppm, 1-1000000",
          "_sellAmount": "sell amount, in the continuous token itself",
          "_supply": "continuous token total supply"
        },
        "return": "sale return amount"
      },
      "decimals()": {
        "details": "Returns the number of decimals used to get its user representation. For example, if `decimals` equals `2`, a balance of `505` tokens should be displayed to a user as `5,05` (`505 / 10 ** 2`).     * Tokens usually opt for a value of 18, imitating the relationship between Ether and Wei.     * NOTE: This information is only used for _display_ purposes: it in no way affects any of the arithmetic of the contract, including {IERC20-balanceOf} and {IERC20-transfer}."
      },
      "decreaseAllowance(address,uint256)": {
        "details": "Atomically decreases the allowance granted to `spender` by the caller.     * This is an alternative to {approve} that can be used as a mitigation for problems described in {IERC20-approve}.     * Emits an {Approval} event indicating the updated allowance.     * Requirements:     * - `spender` cannot be the zero address. - `spender` must have allowance for the caller of at least `subtractedValue`."
      },
      "increaseAllowance(address,uint256)": {
        "details": "Atomically increases the allowance granted to `spender` by the caller.     * This is an alternative to {approve} that can be used as a mitigation for problems described in {IERC20-approve}.     * Emits an {Approval} event indicating the updated allowance.     * Requirements:     * - `spender` cannot be the zero address."
      },
      "isOwner()": {
        "details": "Returns true if the caller is the current owner."
      },
      "name()": {
        "details": "Returns the name of the token."
      },
      "owner()": {
        "details": "Returns the address of the current owner."
      },
      "renounceOwnership()": {
        "details": "Leaves the contract without owner. It will not be possible to call `onlyOwner` functions anymore. Can only be called by the current owner.     * NOTE: Renouncing ownership will leave the contract without an owner, thereby removing any functionality that is only available to the owner."
      },
      "symbol()": {
        "details": "Returns the symbol of the token, usually a shorter version of the name."
      },
      "totalSupply()": {
        "details": "See {IERC20-totalSupply}."
      },
      "transfer(address,uint256)": {
        "details": "See {IERC20-transfer}.     * Requirements:     * - `recipient` cannot be the zero address. - the caller must have a balance of at least `amount`."
      },
      "transferFrom(address,address,uint256)": {
        "details": "See {IERC20-transferFrom}.     * Emits an {Approval} event indicating the updated allowance. This is not required by the EIP. See the note at the beginning of {ERC20};     * Requirements: - `sender` and `recipient` cannot be the zero address. - `sender` must have a balance of at least `amount`. - the caller must have allowance for `sender`'s tokens of at least `amount`."
      },
      "transferOwnership(address)": {
        "details": "Transfers ownership of the contract to a new account (`newOwner`). Can only be called by the current owner."
      }
    }
  },
  "userdoc": {
    "methods": {}
  }
}